:020000040800F2
:10000000000400203117000851180008511800089A
:10001000511800085118000851180008511800081C
:1000200051180008511800085118000881180008DC
:1000300051180008511800085118000881190008CB
:1000400051180008511800085118000851180008EC
:1000500051180008511800085118000851180008DC
:10006000511800085118000851180008812E000886
:10007000B12E0008E12E0008112F0008412F0008C2
:10008000712F0008A12F0008E13500085118000861
:10009000511800085118000851180008511800089C
:1000A000511800085118000851180008511800088C
:1000B00051180008713C0008511800085118000838
:1000C000511800085118000851180008511800086C
:1000D0005118000851180008813E00085118000806
:1000E000511800085118000851180008511800084C
:1000F000511800085118000851180008D12F0008A5
:100100005118000851180008713A000851180008E9
:10011000511800085118000851180008511800081B
:1001200001300008313000086130000891300008CB
:10013000C130000851180008511800085118000873
:1001400051180008511800085118000851180008EB
:10015000F130000821310008513100085118000821
:1001600051180008511800085118000851180008CB
:1001700051180008511800085118000851180008BB
:1001800051180008511800085118000851180008AB
:10019000511800085118000851180008511800089B
:0C01A00051180008511800085118000800
:1001B0002DE9F04F8BB0954DDFF8B882DFF8B8A28B
:1001C000934F944EDFF8B49202F02AFC01F058FCF1
:1001D000914B00241C7003F043FF2B68DFF8A0E272
:1001E0008E491A888E485B88AEF800200B80A8F8EC
:1001F0000030AAF8002004F03BFE8A4B0094402215
:100200004FF4AB613860884801F04AFF07F0E8FB23
:1002100007F0C6FB2146854802F0DAFD8448042138
:1002200040F2823203F094FB8148082140F282328E
:1002300003F08EFB7F4B009440F6581140227E481D
:1002400001F02EFF7D4A7E492346204606F070FCD1
:10025000734804F00DFE386005F072FD204605F08D
:100260005FFD4FF6FF7005F053FD2146386804F03E
:100270006FFD831C6A48338004F0FAFD05F060FDD1
:100280002146704805F0ECFE28684FF6FF7104F037
:100290001FFA2146386804F05BFD023082B2B8F8DC
:1002A00000C0DFF8E0E12868CDF818E093B2C2EBB7
:1002B0000C0C33804FF0A00B214603AAADF812308E
:1002C0000123ADF80EC08DF81430079408940994FA
:1002D000ADF80C40ADF810B006F0EAFB3388B8F882
:1002E00000C0594ADFF8A0E11060C3EB0C0C2146B6
:1002F00003AA2868ADF80EC0ADF81230CDF818E0AA
:10030000ADF80CB0ADF810B006F0D2FB4F4BB6F81C
:1003100000E018604FF032084D4B2868ADF812E04D
:10032000214603AA0693ADF80E40ADF80C40ADF897
:10033000108006F0BDFB474BB6F800C018604FF0C8
:10034000280E454B2868ADF812C0214603AAADF827
:100350000CE00693ADF80E40ADF8108006F0A8FB57
:100360003E4A33881060DFF824E12868ADF80E308B
:100370004FF0460C214603AAADF81230ADF810C07C
:10038000CDF818E0ADF80C4006F092FB344A338803
:10039000DFF8FCE010604FF04B0C03AA2146286800
:1003A000ADF80CC0CDF818E0ADF80E30ADF8123055
:1003B000ADF8108006F07CFB2A4B3968186048467F
:1003C00004F0EEFCBAF8003036882749ADF810800A
:1003D000463B088003AA2146ADF80C3004360A23B8
:1003E0002868ADF80E30ADF81260CDF8189006F020
:1003F000EFFA1E4B1E49186022460C4807F088FA97
:100400004FF4FA7001F074FEFAE700BF0008002014
:100410008C35002058440020652500207C350020C4
:1004200078D2000881780008A83500200C18002038
:1004300000000240C17B0008003B0020C17800089A
:100440004179000890DA00088835002078350020CE
:100450004CC401089C35002054C4010860250020CC
:100460008435002068250020743500208035002068
:1004700078C40108A435002090350020F8DA00087F
:10048000662500203CC4010844C4010860C401087A
:100490006CC40108AFF30080AFF30080AFF30080BD
:1004A00073B96AB9002908BF0028BCBF00204FF00B
:1004B0000041C4BF6FF000414FF0FF3000F058B86A
:1004C00082B0EC462DE9005000F022F8DDF804E09F
:1004D00002B00CBC704700BF00000000000000002C
:1004E0004BB942B9002908BF002802D04FF0FF31B4
:1004F000084600F03DB882B0EC462DE9005000F00F
:100500001FF8DDF804E002B00CBC704700000000EA
:100510002DE97043069E14461D468046894600F02C
:100520002FF804FB01F300FB0533A4FB00451D4439
:10053000B8EB040469EB0505C6E90045BDE8708326
:100540002DE97043069E1446804689461D4600F0FC
:1005500067F900FB05F504FB0153A0FB04451D44AE
:10056000B8EB040469EB0505C6E90045BDE87083F6
:10057000704700BF00000000000000000000000005
:1005800000292DE9F00FC0F29F800024002BC0F25B
:100590009680154606460F46002B3ED18A4257D913
:1005A000B2FA82F34BB1C3F1200201FA03F720FA49
:1005B00002F29D40174300FA03F6290CB7FBF1F253
:1005C000330C01FB127CA8B243EA0C4700FB02F398
:1005D000BB4209D97F1902F1FF3C80F00181BB4287
:1005E00040F2FE80023A2F44FF1AB7FBF1F3B6B295
:1005F00001FB137146EA014100FB03F0884208D970
:10060000491903F1FF3780F0ED80884240F2EA801B
:10061000023B43EA0242002303E08B420AD9002353
:100620001A461046194614B1404261EB4101BDE83B
:10063000F00F7047B3FA83F8B8F1000F40F08480F0
:100640008B4202D3824200F2DE8000230122E8E7DF
:1006500012B90123B3FBF2F5B5FA85F2002A39D1BC
:100660007F1B280C1FFA85FC0123B7FBF0F1320C2D
:1006700000FB117742EA07470CFB01F2BA4207D9A7
:100680007F1901F1FF3802D2BA4200F2C18041461F
:10069000BF1AB7FBF0F2B6B200FB127046EA004098
:1006A0000CFB02FC844507D9401902F1FF3702D246
:1006B000844500F2AB803A4642EA0142B1E7E443A6
:1006C000524263EB430364E7404261EB41014FF068
:1006D000FF345BE79540C2F1200327FA03F1280CB1
:1006E00026FA03F39740B1FBF0F81F433B0C00FBE5
:1006F00018111FFA85FC43EA01410CFB08F38B42F9
:1007000006FA02F608D9491908F1FF3279D28B426C
:1007100077D9A8F102082944C91AB1FBF0F3BFB296
:1007200000FB131147EA01470CFB03F2BA4207D959
:100730007F1903F1FF3160D2BA425ED9023B2F44E8
:10074000BF1A43EA084390E7C8F1200203FA08FC05
:1007500025FA02F343EA0C0C4FEA1C4921FA02F392
:1007600001FA08F720FA02F2B3FBF9F1174309FB8B
:1007700011333A0C1FFA8CFB42EA03430BFB01FADC
:100780009A4505FA08F008D913EB0C0301F1FF3282
:1007900035D29A4533D902396344CAEB0303B3FB1C
:1007A000F9F209FB1233BFB247EA03470BFB02F928
:1007B000B94508D917EB0C0702F1FF331BD2B94535
:1007C00019D9023A674442EA0145A5FB0001C9EB89
:1007D00007078F424FF000030AD305D02A4620E7CF
:1007E000624601E73B4614E706FA08F68642F5D270
:1007F0006A1E002315E71A46E5E70B46A0E71146F7
:10080000CBE7904688E7434642460AE7023A53E779
:1008100002392F443CE700BF000000000000000048
:100820002DE9F00F144605460E46002B43D18A42AF
:1008300053D9B2FA82F757B1C7F1200620FA06F66B
:1008400001FA07F302FA07F41E4300FA07F5210C38
:10085000B6FBF1F22B0C01FB1267A0B243EA07468C
:1008600000FB02F3B34209D9361902F1FF3780F0D9
:10087000F680B34240F2F380023A2644F61AB6FB01
:10088000F1F3ADB201FB136145EA014100FB03F056
:10089000884208D9091903F1FF3680F0E2808842C6
:1008A00040F2DF80023B43EA024200231046194631
:1008B000BDE8F00F70478B424AD8B3FA83F6002E9A
:1008C0004DD18B4202D3824200F2D6800023012216
:1008D00010461946BDE8F00F704712B90124B4FB69
:1008E000F2F4B4FA84F2002A7CD1091B260CA7B2D8
:1008F0000123B1FBF6F02A0C06FB101142EA01417C
:1009000007FB00F28A4207D9091900F1FF3C02D225
:100910008A4200F2C3806046891AB1FBF6F2ADB29A
:1009200006FB121145EA014507FB02F7AF4208D961
:100930002C1902F1FF3180F09680A74240F293809B
:10094000023A42EA004210461946BDE8F00F7047ED
:1009500000231A4610461946BDE8F00F7047C6F14D
:10096000200522FA05F4B3401C434FEA144821FA4B
:1009700005F301FA06F720FA05F5B3FBF8FC2F435F
:1009800008FB1C333D0C1FFA84FA45EA03430AFBBB
:100990000CF9994502FA06FB04D91B190CF1FF3238
:1009A0006DD39446C9EB0303B3FBF8F508FB15338D
:1009B000BFB247EA03470AFB05F8B84504D93F1917
:1009C00005F1FF3361D31D4645EA0C4CACFB0B230C
:1009D000C8EB07079F424FF0000549D345D0624658
:1009E0002B4663E79440C2F1200321FA03FC260C56
:1009F00020FA03F301FA02F5BCFBF6F843EA05011D
:100A00000B0C06FB18CCA7B243EA0C4C07FB08F30F
:100A1000634500FA02F509D91CEB040C08F1FF321A
:100A20003AD2634538D9A8F10208A444C3EB0C0CB0
:100A3000BCFBF6F389B206FB13CC41EA0C4107FB81
:100A400003F28A4207D9091903F1FF3022D28A4200
:100A500020D9023B2144891A43EA084349E73A4630
:100A60000CE733461FE70A466BE7B0409042B6D228
:100A70000CF1FF32002319E73346324616E7994559
:100A80008FD9ACF1020C23448CE7B8459BD9023DC9
:100A9000274499E70346DEE79046C7E7023821443A
:100AA0003AE700BF00000000000000000000000066
:100AB000844641EA000313F003036DD1403A41D369
:100AC00051F8043B40F8043B51F8043B40F8043B28
:100AD00051F8043B40F8043B51F8043B40F8043B18
:100AE00051F8043B40F8043B51F8043B40F8043B08
:100AF00051F8043B40F8043B51F8043B40F8043BF8
:100B000051F8043B40F8043B51F8043B40F8043BE7
:100B100051F8043B40F8043B51F8043B40F8043BD7
:100B200051F8043B40F8043B51F8043B40F8043BC7
:100B300051F8043B40F8043B51F8043B40F8043BB7
:100B4000403ABDD2303211D351F8043B40F8043B57
:100B500051F8043B40F8043B51F8043B40F8043B97
:100B600051F8043B40F8043B103AEDD20C3205D367
:100B700051F8043B40F8043B043AF9D2043208D05F
:100B8000D2071CBF11F8013B00F8013B01D30B88D1
:100B900003806046704700BF082A13D38B078DD0AF
:100BA00010F003038AD0C3F10403D21ADB071CBF81
:100BB00011F8013B00F8013B80D331F8023B20F8EB
:100BC000023B7BE7043AD9D3013A11F8013B00F824
:100BD000013BF9D20B7803704B7843708B788370AC
:100BE00060467047000000000000000000000000A8
:100BF00040EA010C1CF0070F23D1BDF1100DCDE927
:100C00000245CDE900676FF000064FF0000700BF16
:100C1000F0E80223F1E80245A24282FA46FCA7FA74
:100C200086FC08BFBCF1000F40F0D780AB4283FACE
:100C300046FCA7FA86FC08BFBCF1000F40F0CA8052
:100C4000E6E710F0030C21D020F0030050F8042B4D
:100C50005FEACC7C08D00FD211F801CB5FFA92F397
:100C6000B3EB0C0C10D17BB111F801CB5FFAA2F3FE
:100C7000B3EB0C0C08D13BB111F801CB5FFAB2F326
:100C8000B3EB0C0C00D10BB960467047BDF1100DF1
:100C9000CDE90245CDE900676FF000064FF000078F
:100CA00011F0030C2DD110F0040F0DD050F8042BCF
:100CB00051F8044BA24282FA46FCA7FA86FC08BF10
:100CC000BCF1000F40F0898011F0040F9FD051F863
:100CD000045B00BFF0E80223AA4282FA46FCA7FAAE
:100CE00086FC08BFBCF1000F71D1F1E80245A342B8
:100CF00083FA46FCA7FA86FC08BFBCF1000F63D15B
:100D0000E8E721F00301BCF1020F1ED03BDA51F8F5
:100D1000045B00BF50F8043B4FEA152583FA46FCFC
:100D2000A7FA86FCB7EB0C2F03EA162208BFAA42EB
:100D30004DD151F8045BBCF1000F82EA03034FEA86
:100D4000056208BF93423CD1E4E751F8045B00BF61
:100D500050F8043B4FEA154583FA46FCA7FA86FC97
:100D6000B7EB0C4F03EA164208BFAA422FD151F845
:100D7000045BBCF1000F82EA03034FEA054208BF9F
:100D800093421ED1E4E751F8045B00BF50F8043BE6
:100D90004FEA156583FA46FCA7FA86FCB7EB0C6FA1
:100DA00003EA166208BFAA4211D151F8045BBCF1F4
:100DB000000F82EA03034FEA052208BF934200D1E5
:100DC000E4E719BA12BA0AE019BA22BA07E011BA6E
:100DD0002ABA04E019BA2ABA01E011BA22BA9CFA76
:100DE0008CF0DDE90067DDE902451DF1100D38B139
:100DF000B0FA80F0C0F1180021FA00F122FA00F2F6
:100E00000120914298BF8041704700BF0000000060
:100E100081F0004102E000BF83F0004330B54FEAAB
:100E200041044FEA430594EA050F08BF90EA020F18
:100E30001FBF54EA000C55EA020C7FEA645C7FEAAB
:100E4000655C00F0E2804FEA5454D4EB5555B8BFCE
:100E50006D420CDD2C4480EA020281EA030382EA3F
:100E6000000083EA010180EA020281EA0303362DD1
:100E700088BF30BD11F0004F4FEA01314FF4801CA4
:100E80004CEA113102D0404261EB410113F0004FB6
:100E90004FEA03334CEA133302D0524263EB43036D
:100EA00094EA050F00F0A780A4F10104D5F1200E0B
:100EB0000DDB02FA0EFC22FA05F2801841F1000166
:100EC00003FA0EF2801843FA05F359410EE0A5F13A
:100ED00020050EF1200E012A03FA0EFC28BF4CF06B
:100EE000020C43FA05F3C01851EBE37101F0004521
:100EF00007D54FF0000EDCF1000C7EEB00006EEB2E
:100F00000101B1F5801F1BD3B1F5001F0CD34908B7
:100F10005FEA30004FEA3C0C04F101044FEA44520E
:100F200012F5800F80F09A80BCF1004F08BF5FEA95
:100F3000500C50F1000041EB045141EA050130BD75
:100F40005FEA4C0C404141EB010111F4801FA4F118
:100F50000104E9D191F0000F04BF01460020B1FA6D
:100F600081F308BF2033A3F10B03B3F120020CDAA5
:100F70000C3208DD02F1140CC2F10C0201FA0CF083
:100F800021FA02F10CE002F11402D8BFC2F1200CE8
:100F900001FA02F120FA0CFCDCBF41EA0C0190409E
:100FA000E41AA2BF01EB0451294330BD6FEA0404E7
:100FB0001F3C1CDA0C340EDC04F11404C4F12002D2
:100FC00020FA04F001FA02F340EA030021FA04F3E4
:100FD00045EA030130BDC4F10C04C4F1200220FA3B
:100FE00002F001FA04F340EA0300294630BD21FA79
:100FF00004F0294630BD94F0000F83F4801306BF3F
:1010000081F480110134013D4EE77FEA645C18BF32
:101010007FEA655C29D094EA050F08BF90EA020FC9
:1010200005D054EA000C04BF1946104630BD91EAC1
:10103000030F1EBF0021002030BD5FEA545C05D1C4
:101040004000494128BF41F0004130BD14F5800403
:101050003CBF01F5801130BD01F0004545F0FE4177
:1010600041F470014FF0000030BD7FEA645C1ABFAC
:10107000194610467FEA655C1CBF0B46024650EAE3
:10108000013406BF52EA033591EA030F41F400210F
:1010900030BD00BF90F0000F04BF0021704730B595
:1010A0004FF4806404F132044FF000054FF000016A
:1010B00050E700BF90F0000F04BF0021704730B52B
:1010C0004FF4806404F1320410F0004548BF404200
:1010D0004FF000013EE700BF42004FEAE2014FEA55
:1010E00031014FEA02701FBF12F07F4393F07F4F30
:1010F00081F06051704792F0000F14BF93F07F4F62
:10110000704730B54FF4607401F0004521F00041A4
:1011100020E700BF50EA010208BF704730B54FF02A
:1011200000050AE050EA010208BF704730B511F02F
:10113000004502D5404261EB41014FF4806404F167
:1011400032045FEA915C3FF4DCAE4FF003025FEAE9
:10115000DC0C18BF03325FEADC0C18BF033202EB71
:10116000DC02C2F1200300FA03FC20FA02F001FACB
:1011700003FE40EA0E0021FA02F11444C1E600BF6A
:1011800070B54FF0FF0C4CF4E06C1CEA11541DBF1D
:101190001CEA135594EA0C0F95EA0C0F00F0DEF8E8
:1011A0002C4481EA030621EA4C5123EA4C5350EACD
:1011B000013518BF52EA033541F4801143F480131E
:1011C00038D0A0FB02CE4FF00005E1FB02E506F0AF
:1011D0000042E0FB03E54FF00006E1FB03569CF004
:1011E000000F18BF4EF0010EA4F1FF04B6F5007F0A
:1011F00064F5407404D25FEA4E0E6D4146EB06067C
:1012000042EAC62141EA55514FEAC52040EA5E5004
:101210004FEACE2EB4F1FD0C88BFBCF5E06F1ED8AE
:10122000BEF1004F08BF5FEA500E50F1000041EBE5
:10123000045170BD06F0004646EA010140EA020092
:1012400081EA0301B4EB5C04C2BFD4EB0C0541EAB4
:10125000045170BD41F480114FF0000E013C00F3C9
:10126000AB8014F1360FDEBF002001F0004170BDED
:10127000C4F10004203C35DA0C341BDC04F1140406
:10128000C4F1200500FA05F320FA04F001FA05F292
:1012900040EA020001F0004221F0004110EBD3705F
:1012A00021FA04F642EB06015EEA430E08BF20EA8B
:1012B000D37070BDC4F10C04C4F1200500FA04F32E
:1012C00020FA05F001FA04F240EA020001F00041C0
:1012D00010EBD37041F100015EEA430E08BF20EA33
:1012E000D37070BDC4F1200500FA05F24EEA020E7B
:1012F00020FA04F301FA05F243EA020321FA04F0AA
:1013000001F0004121FA04F220EA020000EBD37060
:101310005EEA430E08BF20EAD37070BD94F0000F60
:101320000FD101F00046400041EB010111F4801F94
:1013300008BF013CF7D041EA060195F0000F18BF45
:10134000704703F00046520043EB030313F4801F81
:1013500008BF013DF7D043EA0603704794EA0C0F3B
:101360000CEA135518BF95EA0C0F0CD050EA410651
:1013700018BF52EA4306D1D181EA030101F00041CE
:101380004FF0000070BD50EA410606BF10461946F6
:1013900052EA430619D094EA0C0F02D150EA013602
:1013A00013D195EA0C0F05D152EA03361CBF104643
:1013B00019460AD181EA030101F0004141F0FE41E2
:1013C00041F470014FF0000070BD41F0FE4141F466
:1013D000780170BD70B54FF0FF0C4CF4E06C1CEA66
:1013E00011541DBF1CEA135594EA0C0F95EA0C0F1B
:1013F00000F0A7F8A4EB050481EA030E52EA0335D6
:101400004FEA013100F088804FEA03334FF08055F6
:1014100045EA131343EA12634FEA022245EA111523
:1014200045EA10654FEA00260EF000419D4208BFD4
:10143000964244F1FD0404F5407402D25B084FEA81
:101440003202B61A65EB03055B084FEA32024FF42D
:1014500080104FF4002CB6EB020E75EB030E22BF8A
:10146000B61A754640EA0C005B084FEA3202B6EB4A
:10147000020E75EB030E22BFB61A754640EA5C00F9
:101480005B084FEA3202B6EB020E75EB030E22BF89
:10149000B61A754640EA9C005B084FEA3202B6EB8A
:1014A000020E75EB030E22BFB61A754640EADC0049
:1014B00055EA060E18D04FEA051545EA16754FEAAB
:1014C00006164FEAC30343EA52734FEAC2025FEAC9
:1014D0001C1CC0D111F4801F0BD141EA00014FF058
:1014E00000004FF0004CB6E711F4801F04BF014329
:1014F0000020B4F1FD0C88BFBCF5E06F3FF6AFAE45
:10150000B5EB030C04BFB6EB020C5FEA500C50F1D4
:10151000000041EB045170BD0EF0004E4EEA113157
:1015200014EB5C04C2BFD4EB0C0541EA045170BD5E
:1015300041F480114FF0000E013C90E645EA060EA2
:101540008DE60CEA135594EA0C0F08BF95EA0C0FD0
:101550003FF43BAF94EA0C0F0AD150EA01347FF418
:1015600034AF95EA0C0F7FF425AF104619462CE7EF
:1015700095EA0C0F06D152EA03353FF4FDAE104652
:10158000194622E750EA410618BF52EA43067FF4A3
:10159000C5AE50EA41047FF40DAF52EA43057FF433
:1015A000EBAE12E7000000000000000000000000A9
:1015B0004FF0FF3C06E000BF4FF0010C02E000BF1F
:1015C0004FF0010C4DF804CD4FEA410C7FEA6C5C02
:1015D0004FEA430C18BF7FEA6C5C1BD001B050EAA5
:1015E000410C0CBF52EA430C91EA030F02BF90EA90
:1015F000020F0020704710F1000F91EA030F58BF4F
:10160000994208BF90422CBFD8176FEAE37040F0B0
:10161000010070474FEA410C7FEA6C5C02D150EA4E
:10162000013C07D14FEA430C7FEA6C5CD6D152EA09
:10163000033CD3D05DF8040B704700BF84461046CE
:1016400062468C461946634600E000BF01B5FFF7CD
:10165000B7FF002848BF10F1000F01BD4DF808ED9D
:10166000FFF7F4FF0CBF012000205DF808FB00BF6E
:101670004DF808EDFFF7EAFF34BF012000205DF8C8
:1016800008FB00BF4DF808EDFFF7E0FF94BF012015
:1016900000205DF808FB00BF4DF808EDFFF7CEFF16
:1016A00094BF012000205DF808FB00BF4DF808ED55
:1016B000FFF7C4FF34BF012000205DF808FB00BF26
:1016C0004FEA410212F5001215D211D56FF478736A
:1016D000B3EB625212D94FEAC12343F0004343EA0D
:1016E000505311F0004F23FA02F018BF40427047E8
:1016F0004FF00000704750EA013005D111F0004072
:1017000008BF6FF0004070474FF00000704700BF07
:10171000704700BFAFF30080AFF30080AFF30080ED
:10172000FEE700BFAFF30080AFF30080AFF30080AF
:1017300072B6374880F30988364B37491A684FF03C
:10174000404442F470021A600C600023E1EE103A4B
:1017500006228B6082F31488BFF36F8F2F4B304AC1
:1017600093420BD2D943114421F0030119444FF0A5
:101770005532043B43F8042F8B42FBD1294B834263
:101780000CD229491A1D891A21F0030119444FF07E
:101790005532043B43F8042F8B42FBD102F050FC3E
:1017A0002249234B99420BD2C843184420F003002E
:1017B000204C04300023E258CA5004338342FAD14B
:1017C0001D4B1E4A93420AD2D943114421F0030112
:1017D00019440022043B43F8042F8B42FBD1184DDF
:1017E000184CFFF795FFAC4204D254F8043B9847DD
:1017F000AC42FAD3144D154CFEF7DAFCAC4204D2DD
:1018000054F8043B9847AC42FAD3FFF789FF00BF76
:101810000008002088ED00E034EF00E00000002028
:10182000000400200004002003080020000800201D
:10183000A410002038C60108A81000209044002001
:10184000AC010008AC010008AC010008AC010008C4
:10185000FEE700BFAFF30080AFF30080AFF300807E
:1018600072B6FEE7AFF30080AFF30080AFF3008005
:1018700000F07EFB00DF00BFAFF30080AFF300801D
:10188000074B5A6822F0010200B55A60EFF3098352
:10189000683383F3098800F02BF85DF804FB00BF80
:1018A00030EF00E0AFF30080AFF30080AFF30080D3
:1018B00008B5094B094A002199600720DA60102118
:1018C00000F0B6F80A20202100F0B2F80B208021A9
:1018D000BDE8084000F0ACB800ED00E00003FA05F8
:1018E000202383F311887047AFF30080AFF30080AB
:1018F000002383F311887047AFF30080AFF30080BB
:1019000000B5FFF7EDFF184B5B681B051DD5F1EE29
:1019100010FAEFF309834FF0807243F84C2CA3F1D7
:10192000680282F3098811498A69096892F82300DC
:101930008968926868B1914294BF0022012272B115
:101940000B4A43F8502C5DF804FBFFF7D1FF5DF81C
:1019500004FB914234BF00220122002AF0D1054A43
:1019600043F8502C5DF804FB00ED00E07C160020ED
:101970007118000874180008AFF30080AFF30080FE
:1019800008B5FFF7ADFF00F0B3F8FFF7B1FFBDE812
:101990000840FFF7B5BF00BFAFF30080AFF3008092
:1019A0002DE9F04F2DED108AC1F80CD0D0F80CD0F5
:1019B000BDEC108ABDE8F08FAFF30080AFF300807C
:1019C00000B5FFF795FF2846A04700F0E9FB5DF85A
:1019D00004FB00BFAFF30080AFF30080AFF30080E3
:1019E00020F0030202F1604202F56142F0B44309C3
:1019F00000F00304D2F80053E400FF269B00A64049
:101A000003F1604325EA060503F561430127A14080
:101A100000F01F0007FA00F045EA0104C2F8004395
:101A2000C3F88001F0BC1860704700BFAFF30080BE
:101A300020F0030303F1604303F56D4300F003005E
:101A400010B4C0009A69FF24844022EA0402814055
:101A50000A439A615DF8044B704700BFAFF3008002
:101A6000024B034A9B699A61FEE700BF7C16002087
:101A700040B80008AFF30080AFF30080AFF3008000
:101A800000B583B0FFF714FF00F032F900F0D0F892
:101A900000F0D6FE00F00CFF00F05AF840210D488F
:101AA00000F076FA0C490D4BC3610122886180F881
:101AB0002020002383F3118862B689690848886171
:101AC00000934FF4B471074B074800F0E9FA03B0F4
:101AD0005DF804FBA81000207C1600200004002004
:101AE00060B90008611A0008F8100020AFF3008008
:101AF00038B5134B9B6993F8232012B1013A83F850
:101B000023205A6A0F4C01325A62E368226801337B
:101B1000A242E36012D09568013D956075B91368E3
:101B2000D1682360D5605C60FFF7E2FE10698847EA
:101B3000FFF7D6FE22689368002BF0D038BD00BFB7
:101B40007C1600206C160020AFF30080AFF30080FD
:101B5000034A1346402143F8081B5360704700BFF7
:101B600060120020AFF30080AFF30080AFF300807D
:101B70000C4A0D495368896910B40C4CE4681C6028
:101B80005960816A996090F820101973103302F53A
:101B900081618B4228BF02F1080353605DF8044B5A
:101BA000704700BF601200207C1600206C160020D9
:101BB000014B1860FFF754BE68160020AFF3008099
:101BC00010B40B4603E09C688268944202D31B6801
:101BD0008B42F8D15A68426003605DF8044B58604C
:101BE00010607047AFF30080AFF30080AFF3008068
:101BF0004B6880E80A00486018607047AFF30080C7
:101C00000346006802681A6053607047AFF30080B3
:101C100090E80600116003685A607047AFF30080D7
:101C200003681A6802601846704700BFAFF300806F
:101C3000044B4FF0FF3100225B601B609960DA605B
:101C4000704700BF6C160020AFF30080AFF3008038
:101C5000F8B505460C4616461F46C8B1C2B1B9B123
:101C60000D492F610B68EE609A68944204D91B6895
:101C7000A41A9A68A242FAD35A686A608B422B600F
:101C80005D601560AC6002D09A68141B9C60F8BD62
:101C90000248FFF78DFFE3E76C16002050B80008FC
:101CA00010B5044680B1E36893B123680A4A9342B1
:101CB00003D09968A2680A449A6062681360236836
:101CC00000215A60E16010BD0448FFF771FFEAE7A8
:101CD0000348FFF76DFFE8E76C16002060B80008C6
:101CE00070B80008AFF30080AFF30080AFF300805E
:101CF000034B00225B601B605B611B619A60704755
:101D00007C160020AFF30080AFF30080AFF30080BB
:101D100010B590F8203004468BB10E2B0FD0002266
:101D2000A168094B84F820201B689A688A42FBD27C
:101D30005A686260236020465C60146010BD0348EE
:101D4000FFF736FFEBE700BF7C16002090B80008D5
:101D500010B50446FFF7C4FD90F820300D2B0FD8C6
:101D6000DFE803F0140E0E070E0B0E0E0E0E0E0E15
:101D70000E0B836A9A6801329A602046FFF748FF8B
:101D80004FF0FF33A3622046FFF7C2FFFFF7B0FD1D
:101D900010BD00BFAFF30080AFF30080AFF3008051
:101DA00038B5104DAC69142384F8200084F8233032
:101DB0002846FFF725FF0122034680F82020204611
:101DC000AB61FFF7D5FEE369ADF16402934202D93E
:101DD0000548FFF7EDFEA8692146BDE83840FFF74A
:101DE000DFBD00BF7C160020A4B80008AFF3008060
:101DF00030B54B1C87B0054611D00C4C0C4AA3697A
:101E000001A8FFF725FF2846FFF7CAFF049B13B17F
:101E100001A8FFF745FFA369986A07B030BD034CDE
:101E2000FFF7BEFFA369986A07B030BD7C1600209B
:101E3000511D0008AFF30080AFF30080AFF30080C6
:101E400070B5154D8268AB699E688162B2420446E6
:101E500014D91846FFF75CFF0123064684F82030AA
:101E6000AC61FFF785FEF369ADF16402934209D8D6
:101E700020463146BDE87040FFF792BDBDE8704096
:101E8000FFF746BF0548FFF793FE20463146BDE801
:101E90007040FFF785BD00BF7C160020A4B8000885
:101EA00038B5104D2846AC69FFF7AAFE142201216F
:101EB000034680F8201084F823202046AB61FFF70A
:101EC00027FF2046FFF754FEE369ADF16402934219
:101ED00002D90548FFF76CFEA8692146BDE83840E5
:101EE000FFF75EBD7C160020A4B80008AFF30080A9
:101EF000F8B5144E3046B569FFF782FE0123002283
:101F0000AC6880F820303746B061334685F8202031
:101F10001B689A68A242FBD85A686A602B60284600
:101F20005D601560FFF724FEEB69ADF1640293423A
:101F300002D90548FFF73CFEB8692946BDE8F840DC
:101F4000FFF72EBD7C160020A4B80008AFF3008078
:101F5000044B1A689B6992689B689A4200D8704744
:101F6000FFF7C6BF7C160020AFF30080AFF3008000
:101F7000044B9B6993F823300BB1FFF7B9BFFFF710
:101F80008FBF00BF7C160020AFF30080AFF300804E
:101F90002DE9F007144C416465694561002200F1A8
:101FA00030064FF0020A4FF014094FF0010800F11B
:101FB0004C0700F12C0C0461816080F820A0606166
:101FC00080F8239080F8228080F821200264C26388
:101FD000426282612861C76146630663C0F82CC013
:101FE000BDE8F007704700BF7C160020AFF300800B
:101FF000884203D200F8012B8842FBD1704700BF12
:102000002DE9F04F044683B00D46174610B1B1F5E7
:10201000AC7F38D21E480193FFF7CAFD019BA5F1A2
:10202000640121441B4E0C987269E16048641A48AF
:102030000B640866002504F130034FF0020B4FF0EB
:10204000140A4FF0010904F12C0804F14C0C20464D
:10205000A76026616261676484F820B0746184F8C7
:1020600021502564E5636562A56184F823A084F8A6
:1020700022901461C4F82C8063632363C4F81CC0ED
:1020800003B0BDE8F08F7F2AC4D8002BC7D1C1E7C9
:10209000C0B800087C160020C1190008AFF300800A
:1020A000F0B583B09C46089F00F14C050446FF261E
:1020B00004F8016BA542FBD14418A54204D2552671
:1020C00005F8016BA542FBD1FFF70AFC63460097B8
:1020D000FFF796FF00210446FFF7B2FEFFF708FC6A
:1020E000204603B0F0BD00BFAFF30080AFF3008027
:1020F00010B5044610B90648FFF75AFDFFF7F0FB8C
:1021000006202146FFF774FEFFF7F2FB10BD00BF6B
:1021100000B90008AFF30080AFF30080AFF3008098
:1021200008B5FFF7DDFB064B1A689B6992689B6850
:102130009A4201D3FFF7B4FEFFF7DAFB08BD00BFF8
:102140007C160020AFF30080AFF30080AFF3008077
:1021500038B5104B9D69EB6AA86205F12C04A342C7
:1021600007D02046FFF75CFDFFF7D2FDEB6AA342E4
:10217000F7D195F821309B0704D16B692A691A6160
:102180002A6953610E20FFF70BFE0348BDE8384073
:10219000FFF70EBD7C16002010B90008AFF30080D9
:1021A00000B5FFF79DFB5DF804EBFFF7D1BF00BF63
:1021B0002DE9F04182B090461F460D4600F088FBA5
:1021C0000446F0B100F14C063146FF22FFF710FF44
:1021D000304661195522FFF70BFFFFF781FB089B83
:1021E0000093294642463B462046FFF709FF01235C
:1021F00080F8213000210446FFF722FEFFF778FB2C
:10220000204602B0BDE8F081AFF30080AFF300805C
:1022100038B504460D4628B1002903DB646024600C
:10222000A56038BD0348FFF7C3FC64602460A56067
:1022300038BD00BF80B90008AFF30080AFF3008065
:1022400038B5044608B3A3682268002B0BDBA24212
:1022500003D01048FFF7ACFCA368013B002BA36040
:1022600007DB002038BDA242F3D0013B002BA36066
:10227000F7DA094DA86921468462FFF7B9FC03200B
:10228000FFF78EFDAB69986A38BD0448FFF790FCF4
:10229000D9E700BFC4B900087C160020B4B9000813
:1022A00008B5FFF71DFBFFF7CBFFFFF721FB08BDCC
:1022B00038B504460D4610B3A3682268002B0BDB2B
:1022C000A24203D01248FFF773FCA3685A1E002AEB
:1022D000A26007DB002038BDA242F3D05A1E002ABC
:1022E000A260F7DA7DB10B4B986921468462FFF753
:1022F0007FFC29460320BDE83840FFF779BD06483A
:10230000FFF756FCD8E7A3604FF0FF3038BD00BFA1
:10231000F0B900087C160020D8B90008AFF300809F
:1023200008B5FFF7DDFAFFF7C3FFFFF7E1FA08BDD5
:1023300010B50446E8B1A3682268002B0ADBA2426C
:1023400003D00E48FFF734FCA3680133002BA360D1
:1023500006DD10BDA242F4D00133002BA360F8DCEF
:102360002046FFF74DFC00228262BDE81040FFF7D7
:10237000CFBC0348FFF71CFCDDE700BF40BA0008F4
:102380002CBA0008AFF30080AFF30080AFF30080F9
:1023900010B5044620B1002364602460A36010BD22
:1023A0000148FFF705FCF6E7D0BA0008AFF300805C
:1023B000274B70B505469E69002845D0AC6854B3DC
:1023C000B268A368934207D294F82030A260042B2D
:1023D0002DD0052B24D0ABB130462946FFF7F0FBBA
:1023E000B5620420FFF7DCFCAB68B34202D01948A9
:1023F000FFF7DEFB336CAB4211D01748BDE87040ED
:10240000FFF7D6BB012384F820302046FFF700FCFD
:10241000FFF77EFCE0E7336CEB60AE60356470BDC7
:102420002046FFF7F5FBA16AFFF7CAFBD4E7204679
:10243000FFF7EEFBA16AFFF7C3FBA36AB2689C68D3
:10244000A3689342C0D3C7E70448FFF7B1FBB5E7E1
:102450007C160020F0BA000804BB0008E0BA0008AF
:1024600008B5FFF73DFAFFF7A3FFFFF741FA08BDF4
:1024700038B51C4B9D69FFF733FA2C6C002C2CD01F
:10248000A368AB4203D01848FFF792FB2C6C22687C
:10249000E3682B64A2421AD0696C4BB11A689A4265
:1024A00003D09268914238BF1146DB68002BF5D10A
:1024B000A9602046FFF7A4FB026CA060E260002147
:1024C0000464FFF7BDFCFFF713FA204638BD002374
:1024D000A360FFF70DFA204638BD0448FFF768FBFC
:1024E0002C6CCDE77C16002040BB00082CBB0008FC
:1024F00010B5044682B0F0B1E26B94F8203011437D
:10250000082BE1630ED0092B01D002B010BDA36AE5
:1025100019408B42F9D12046FFF7FAFB0023836272
:1025200002B010BDA36A1942EFD02046FFF7F0FBBE
:1025300000238362F4E703480191FFF739FB019917
:10254000DAE700BFACBB0008AFF30080AFF3008058
:1025500070B505460E4660B12C68A54208D0201D16
:102560000BC83343E360FFF7C3FF2468A542F6D1ED
:1025700070BD0248FFF71CFBEEE700BFC0BB0008C0
:1025800010B50C4661B1084B9B690146986218462C
:10259000FFF72EFB21460D20BDE81040FFF728BCB9
:1025A0004FF0FF3010BD00BF7C160020AFF300805D
:1025B00030B4029C046200250A44856002614060D8
:1025C000006041618161C160C36130BC704700BF80
:1025D00082694369934210B582681AD001325C1C4B
:1025E000826044611970426903699A420AD20368A1
:1025F00083420CD0FFF704FBFFF78AFB00238362C2
:10260000184610BDC368436103688342F2D10020BD
:1026100010BD002AE2D06FF0030010BDAFF30080C0
:1026200038B50D460446FFF75BF9C3692BB19847EF
:1026300003E0FFF7A5FF002810DBA368204629462A
:10264000002BF6D0A16925694A1C013BAA42A36070
:10265000A26128BFE368087828BFA361FFF748F9A3
:1026600038BD00BFAFF30080AFF30080AFF3008050
:102670002DE9F047044615460F461E46D0F81C804B
:10268000002A31D0FFF72CF94FF0000907EB050ABB
:102690000137B8F1000F05D02046C04702E0FFF730
:1026A0006FFFE0B9A56820463146002DF7D0A36939
:1026B000013D5A1CA261A5601B7807F8013C236903
:1026C000A2699A4224BFE368A361FFF711F9574555
:1026D00009F1010905D0FFF703F90137D9E7FFF741
:1026E00007F94846BDE8F0870148FFF761FAC9E7F6
:1026F00010BC0008AFF30080AFF30080AFF30080A0
:1027000030B4029C04628D180561406000608260F4
:1027100041618161C160C36130BC7047AFF300802B
:1027200070B504460E461546FFF7DAF803E0FFF7EA
:1027300027FF002818DBA36820462946002BF6D087
:102740006269013B511C6161A36016702369626973
:102750009A4224BFE3686361E3690BB1204698475E
:10276000FFF7C6F8002070BDFFF7C2F870BD00BFCC
:10277000426983699A4210B5826815D00169541C78
:102780005A1C846082618A421C780AD203688342A0
:1027900005D0FFF735FAFFF7BBFA00238362204626
:1027A00010BDC3688361F1E7002AE7D06FF0020033
:1027B00010BD00BFAFF30080AFF30080AFF3008027
:1027C0002DE9F84F044617460E469A46D0F81C905D
:1027D000002A2ED0FFF784F84FF00008A56806F114
:1027E000010B20466B1ECDB16269A360531C63616F
:1027F00033781370236962699A4224BFE368636186
:10280000B9F1000F00D0C847FFF772F8013F08F197
:1028100001080BD0FFF764F85E46DFE7204651461B
:10282000FFF7AEFE0028D9D0FFF762F84046BDE8BA
:10283000F88F0248FFF7BCF9CCE700BF24BC0008C2
:102840000548064A0649074B20F0070022F0070218
:1028500008601A60704700BF9744002000C0012044
:102860009C16002098160020AFF30080AFF3008084
:1028700000B5FFF735F8094A0949136809680730B8
:1028800020F00700C91A88429BBFC01810600020C2
:102890001846FFF72DF85DF804FB00BF9C160020DA
:1028A00098160020AFF30080AFF30080AFF30080F4
:1028B000044B054A1A6003F1100000229A60DA60A6
:1028C000FFF766BDA016002071280008AFF3008056
:1028D000F8B51E4E002818BF0646073106F1100055
:1028E00021F0070506F10804FFF7BAFD03E05A6876
:1028F000954211D91C462368002BF8D1FFF7B8FD8B
:1029000033680BB305F108009847E8B106604560ED
:1029100000F108042046F8BD05F10801914208D9EC
:102920001A6822601C4644F8086BFFF7A1FD204698
:10293000F8BD6FF00700401B5F180244186858503C
:102940007A6027605D60EDE70024E3E7A0160020D1
:10295000F8B50746002857D057F8086C06F1100064
:10296000FFF77EFD08363446A7F10805AC4204D8CF
:102970006368083323449D420BD3B4420ED0AC426B
:102980000CD32468AC42F8D86368083323449D42D2
:10299000F3D21F48FFF70CF9B442F0D123681BB102
:1029A0009D4201D31C46E1E757F8042C47F8083C48
:1029B000256002F1080357F8080CE918814209D094
:1029C000636803F108022244954211D0BDE8F84043
:1029D000FFF74EBD4968EB5847F8083C53180833D9
:1029E00047F8043C636803F1080222449542EDD1A4
:1029F00057F8041C57F8082C22600B440833636016
:102A0000BDE8F840FFF734BD0248FFF7D1F8A3E76F
:102A100060BC000850BC0008AFF30080AFF300803A
:102A200008B500F035FC084800F0B2FE00F010F8E0
:102A300000F0A6F800F00CF900F0A2F900F010FA8E
:102A4000BDE8084001F004BB10C10008AFF30080EE
:102A500000F0D6BCAFF30080AFF30080AFF300808E
:102A600000230122027043608360C36003614361FD
:102A70001830FFF78DBC00BFAFF30080AFF30080CC
:102A800038B504460D4688B1FEF72AFF2378013B8E
:102A9000012B02D90748FFF78BF86560204600F04C
:102AA000DFFC02232370FEF723FF38BD0248FFF747
:102AB0007FF8E9E790BC000880BC0008AFF3008015
:102AC000F8B504460E4617461D46C0B1B9B1B2B1BD
:102AD000012B01D0EB0712D42378022B05D0043B45
:102AE000012B02D90848FFF763F80323A760E560CC
:102AF000266123702046BDE8F84000F009BD034878
:102B0000FFF756F8E8E700BFD4BC0008BCBC0008DB
:102B100010B51C46FEF7E4FE2346FFF7D1FFFEF793
:102B2000E7FE10BDAFF30080AFF30080AFF300808D
:102B30002DE9F0410446884617461E46FEF7D0FEB2
:102B4000406910B10A48FFF733F80A4D41463A464A
:102B500033462046FFF7B4FFAB6963610220FFF7FD
:102B60001FF9AB69986AFEF7C3FEBDE8F08100BFAC
:102B700054BD00087C160020AFF30080AFF3008046
:102B800000F0BEBFAFF30080AFF30080AFF3008072
:102B90000122002302704360704700BFAFF3008042
:102BA00038B504460D4690B189B1FEF799FE2378F9
:102BB000013B012B02D90848FEF7FAFF6560204669
:102BC00000F0AEFF02232370FEF792FE38BD0348EB
:102BD000FEF7EEFFE9E700BFA0BD000890BD0008CA
:102BE00010B5044678B1FEF77BFE2378022B02D0A5
:102BF0000748FEF7DDFF204601F00AF803232370A3
:102C0000FEF776FE10BD0348FEF7D2FFEBE700BFEC
:102C1000DCBD0008CCBD0008AFF30080AFF300803E
:102C200070B504460E4610B181680F2903D90648D5
:102C3000FEF7BEFFA16894E82100324605FA01F1D3
:102C4000BDE8704000F084BE30BE0008AFF30080E5
:102C500001F046B8AFF30080AFF30080AFF300801F
:102C60000122002302704360704700BFAFF3008071
:102C700038B504460D46A0B199B1FEF731FE237870
:102C8000013B012B02D90948FEF792FFAB88238153
:102C90006560204601F034F802232370FEF728FE19
:102CA00038BD0348FEF784FFE7E700BF60BE0008B9
:102CB00050BE0008AFF30080AFF30080AFF3008098
:102CC00070B504460D46164688B103290FD8FEF7A5
:102CD00007FE2378022B02D00748FEF769FF204643
:102CE0002946324601F09CF8FEF702FE70BD03480B
:102CF000FEF75EFFEBE700BFD0BE0008B8BE0008DD
:102D00000C30FFF7B5BC00BFAFF30080AFF300801D
:102D10000C304FF0FF33FFF7ABBC00BFAFF30080C8
:102D20003030FFF74DBD00BFAFF30080AFF3008040
:102D300030304FF0FF33FFF743BD00BFAFF30080EB
:102D40000C30FFF76DBC00BFAFF30080AFF3008025
:102D50000C304FF0FF31FFF763BC00BFAFF30080D2
:102D60003030FFF7DDBC00BFAFF30080AFF3008071
:102D700030304FF0FF32FFF7D3BC00BFAFF300801D
:102D800001F0FEB8AFF30080AFF30080AFF3008036
:102D900070B50E4B044682B040F8043B0126009407
:102DA0000B461546606004F1540104F10C002672D4
:102DB0001022FFF7FDFB00942B4604F1300004F1D4
:102DC00064011022FFF79CFC02B070BD60BF0008D8
:102DD00038B504460D4688B1FEF782FD237A013BE3
:102DE000012B02D90748FEF7E3FE2946204601F0F1
:102DF000D7F802232372FEF77BFD38BD0248FEF7A9
:102E0000D7FEE9E70CBF000800BF0008AFF3008061
:102E100038B504460D46D0B163693BB1294604F18B
:102E20000C00FFF7D5FB00280BDB38BD201D04216B
:102E3000FFF78EFB294604F10C00FFF7C9FB0028C1
:102E4000F3DA201D8021BDE83840FFF781BB02483E
:102E5000FEF7AEFEE0E700BF38BF0008AFF300802A
:102E600000F0DEBDAFF30080AFF30080AFF3008071
:102E7000002301220270436083600C30FFF788BAA0
:102E800008B5074B074A196801F03D0199601368BE
:102E90000BB150689847BDE80840FEF731BD00BF50
:102EA00000600240C0160020AFF30080AFF3008046
:102EB000084B094819688268890901F03D0110B57D
:102EC0008C019C600AB1C0689047BDE81040FEF7D5
:102ED00017BD00BF00600240C0160020AFF30080A5
:102EE000084B094819680269090C01F03D0110B549
:102EF0000C049C600AB140699047BDE81040FEF7A1
:102F0000FFBC00BF00600240C0160020AFF300808D
:102F1000084B094819688269890D01F03D0110B517
:102F20008C059C600AB1C0699047BDE81040FEF76F
:102F3000E7BC00BF00600240C0160020AFF3008075
:102F400008B5074B07485968026A01F03D01D9608E
:102F50000AB1406A9047BDE80840FEF7D1BC00BF07
:102F600000600240C0160020AFF30080AFF3008085
:102F7000084B09485968826A890901F03D0110B57A
:102F80008C01DC600AB1C06A9047BDE81040FEF7D2
:102F9000B7BC00BF00600240C0160020AFF3008045
:102FA000084B09485968026B090C01F03D0110B546
:102FB0000C04DC600AB1406B9047BDE81040FEF79E
:102FC0009FBC00BF00600240C0160020AFF300802D
:102FD000084B09485968826B890D01F03D0110B515
:102FE0008C05DC600AB1C06B9047BDE81040FEF76D
:102FF00087BC00BF00600240C0160020AFF3008015
:1030000008B5074B07481968026C01F03D0199604B
:103010000AB1406C9047BDE80840FEF771BC00BFA4
:1030200000640240C0160020AFF30080AFF30080C0
:10303000084B09481968826C890901F03D0110B5F7
:103040008C019C600AB1C06C9047BDE81040FEF74F
:1030500057BC00BF00640240C0160020AFF30080E0
:10306000084B09481968026D090C01F03D0110B5C3
:103070000C049C600AB1406D9047BDE81040FEF71B
:103080003FBC00BF00640240C0160020AFF30080C8
:10309000084B09481968826D890D01F03D0110B592
:1030A0008C059C600AB1C06D9047BDE81040FEF7EA
:1030B00027BC00BF00640240C0160020AFF30080B0
:1030C00008B5074B07485968026E01F03D01D96009
:1030D0000AB1406E9047BDE80840FEF711BC00BF42
:1030E00000640240C0160020AFF30080AFF3008000
:1030F000084B09485968826E890901F03D0110B5F5
:103100008C01DC600AB1C06E9047BDE81040FEF74C
:10311000F7BB00BF00640240C0160020AFF3008080
:10312000084B09485968026F090C01F03D0110B5C0
:103130000C04DC600AB1406F9047BDE81040FEF718
:10314000DFBB00BF00640240C0160020AFF3008068
:10315000084B09485968826F890D01F03D0110B58F
:103160008C05DC600AB1C06F9047BDE81040FEF7E7
:10317000C7BB00BF00640240C0160020AFF3008050
:103180000C4B30B400220C4D0C4C1A601146134607
:10319000E8580C33C02B0160A15002F10802F7D1AE
:1031A0000749084A4FF0FF338B6030BCCB60936017
:1031B000D360704740170020D0BF0008C016002021
:1031C0000060024000640240AFF30080AFF3008073
:1031D0002DE9F041064684B0002845D0274F747A87
:1031E0003868012505FA04FC1CEA000F34D1244D8F
:1031F0004CEA000005EBC40810F0FF0F45F834203E
:103200003860C8F8043004D01E4B1C6B44F4001422
:103210001C6310F47F4F19D13468236823F01F0317
:103220002360236813F00105FBD1307A73683D27D2
:10323000874021201F60256060618AB1B07A090152
:10324000FEF7CEFB284604B0BDE8F0810D4B186BAD
:1032500040F480001863DFE7284604B0BDE8F08141
:10326000104604B0BDE8F081074803910292019333
:10327000FEF79EFC019B029A0399AFE740170020DE
:10328000C01600200038024080BF0008AFF3008065
:10329000214B22491A69DFF894C000224FF0FF3019
:1032A0002DE9F00118611A615F6958615A611F6A5E
:1032B0001B4E1C4D1C4C67F080571F621A6207277B
:1032C000D3F8248058625A62C1F804C08A600F6043
:1032D000F16841F08071F160296841F001012960D5
:1032E000196C41F080511964216841F480712160AA
:1032F000196F01F44071B1F5007F03D04FF48031B4
:1033000019671A67084B5A6822F400725A60BDE8C0
:10331000F001FFF735BF00BF0038024010E000E0C9
:10332000F0ED00E0001000E0007000403F9002006F
:103330002B492C4B4FF080504FF4404208641A60E8
:103340000B6843F001030B600B68254A9807FBD517
:103350001168002301F0F9011160114693608B6838
:103360001F4A13F00C0FFAD1136843F48033136033
:1033700011460B681A4A9B03FBD5536F43F00103B8
:10338000536711464B6F164A9807FBD5164B53608F
:103390001368144943F0807313604B685A04FCD5DA
:1033A0000F490B680E4A9B01FBD5104B10499160E9
:1033B00040F205711960936843F00203936011466F
:1033C0008B68074A03F00C03082BF9D1536C43F4C4
:1033D00080435364536E43F480435366704700BF89
:1033E000003802400070004008544007003C024092
:1033F00000940838AFF30080AFF30080AFF3008093
:1034000070B50D4D0D4C0E4E2846FFF729FB0D4AA9
:103410000D4BAA6220462B63EE62FFF721FB183E9C
:103420000A4A0B4BE662A262236312206021BDE8C8
:103430007040FEF7D5BA00BF44170020781700206F
:1034400060C0000800200140162C0200002101404D
:10345000162C0202AFF30080AFF30080AFF30080C0
:1034600038B50378012B044600D038BD1E4DA84264
:1034700010D01E4DA8421ED01D49A36A4C6804F40A
:103480004004002244F4803401204C605A609A6069
:10349000986038BDC06A174A06212346FFF798FE98
:1034A000D0B9EB6A14491A68144B91605A6C42F413
:1034B00080725A64E0E7C06A0E4A06212346FFF78D
:1034C00087FE68B9EB6A0E491A680C4B91605A6C1A
:1034D00042F400725A64CFE70A48FEF769FBE0E75E
:1034E0000948FEF765FBEDE7441700207817002038
:1034F00000230140B13600084C2001400038024052
:103500004C21014090C00008A4C00008AFF3008027
:103510000369026B19782DE9F003C46829B1012C05
:1035200094BF42F4807242F48472C16A5E88096872
:103530008568CD6006FB04F44C60D3F80C800A600B
:10354000826A1869D1F800909F69DE691D6A5C6A19
:10355000D3F814C010F0804F48F0806340F44070FE
:1035600049F001094FF0000843F4807314BF40F0A4
:10357000030040F00100C1F80090C2F80080C2F8DA
:103580000CC01761D662156354635360BDE8F00345
:1035900090607047AFF30080AFF30080AFF300801E
:1035A000C16A0A68136823F01F0310B4136013681C
:1035B00013F00103FBD10C7A826A48683D2101FABD
:1035C00004F40121046053605DF8044B9360916042
:1035D000704700BFAFF30080AFF30080AFF300800F
:1035E0002F4B1A680021920610B5196005D52D4C95
:1035F000E36A1B685B68002B2FD12B4B1A680021F4
:103600001960930625D5294CE36A1B685B6803B3F0
:103610002369F3B12046FFF7C3FF23699B684BB1D1
:10362000052222702046012198472378052B04BFEC
:1036300002232370002222611C49FEF751F96069C0
:1036400028B14FF0FF3383624A61FEF761FBFEF75A
:103650004FF9BDE81040FEF753B92369002BCCD0D9
:103660002046FFF79DFF23699B684BB1052222701E
:103670002046012198472378052B04BF022323709D
:10368000002222610749FEF72BF9606928B14FF04B
:10369000FF3383624A61FEF73BFBFEF729F9ACE793
:1036A000002001404417002000210140781700202D
:1036B00011F00C0F38B504461DD10369D3B18D0646
:1036C00010D51D78002D38D05D689DB1C268012AE3
:1036D00030D959888368520801FB02F103EB41019C
:1036E000A84738BDCA0605D55B681BB1C2688168AA
:1036F0005208984738BDFFF753FF23699B684BB1C9
:10370000052222702046002198472378052B04BF0C
:103710000223237000222261FEF7E2F8636933B1CD
:103720004FF0FF31626118469962FEF7F1FAFEF739
:10373000DFF838BD8168A84738BDFFF731FF23693E
:103740005B68C3B1042222702046A168E2689847F2
:103750002378042B0BD0FEF7C3F86369002BE6D067
:103760000022626118469A62FEF7D2FADFE702236E
:1037700025612370EFE7022223612270EBE700BF8F
:10378000024B5A6842F400025A607047002301401D
:103790002DE9F00FDFF8AC91DFF8AC81D9F830B04B
:1037A000DFF8A8C1604F614E614D624C6249634AC7
:1037B00040F2FF1A4BEA0A0BC9F830B0D9F850B002
:1037C0004BEA0A0AC9F850A04368C8F80430836875
:1037D000C8F80830C368C8F80C300369C8F814305A
:1037E0004369C8F820308369C8F824300368C8F8F2
:1037F0000030036ACCF80430436ACCF80830836A9E
:10380000CCF80C30C36ACCF81430036BCCF8203001
:10381000436BCCF82430C369CCF80030C36B7B60B9
:10382000036CBB60436CFB60836C7B61C36C3B626D
:10383000036D7B62836B3B60876D7760C76DB7609C
:10384000076EF760476E7761876E3762C76E776283
:10385000476D3760466F6E60866FAE60C66FEE6014
:10386000D0F880606E61D0F884602E62D0F88860F5
:103870006E62066F2E60D0F890506560D0F894505C
:10388000A560D0F89850E560D0F89C506561D0F8FC
:10389000A0502562D0F8A4506562D0F88C50256005
:1038A000D0F8AC404C60D0F8B0408C60D0F8B44058
:1038B000CC60D0F8B8404C61D0F8BC400C62D0F875
:1038C000C0404C62D0F8A8400C60D0F8C8105160DD
:1038D000D0F8CC109160D0F8D010D160D0F8D410CE
:1038E0005161D0F8D8101162D0F8DC105162D0F8D4
:1038F000C4101160124BD0F8E4205A60D0F8E820D0
:103900009A60D0F8EC20DA60D0F8F0205A61D0F854
:10391000F4201A62D0F8F8205A62D0F8E0201A6039
:10392000BDE8F00F704700BF00080240000C0240E5
:10393000001002400014024000180240001C024027
:103940000020024000380240000002400004024013
:103950002DE9F00F002302F00307C2F38006C2F343
:10396000C105C2F341144FF00F09C2F3C3124FF067
:10397000010A38E0D0F820B02BEA0C0C4CEA080819
:10398000C0F82080D0F804C00AFA03F82CEA080C2A
:103990004CEA060CC0F804C04FF0030B4FEA430C8E
:1039A000D0F808800BFA0CFC6FEA0C0C0CEA080843
:1039B00048EA0508C0F80880D0F80C800CEA08082E
:1039C00048EA0408C0F80C80D0F800800CEA080C23
:1039D0004CEA070CC0F800C049081AD07600AD00C8
:1039E000A400BF00013303F0070C4FEA8C0C11F068
:1039F000010F02FA0CF809FA0CFCEDD0072BB9D92B
:103A0000D0F824B02BEA0C0C4CEA0808C0F824804B
:103A1000B8E7BDE8F00F7047AFF30080AFF3008068
:103A200010B50A4C0A4B4FF6FF7220461A80FFF77A
:103A30001FFA084B08480949094AE06103F10C00E4
:103A400023626062A162E26210BD00BFB017002075
:103A5000AC170020F4BF0008003800401600010039
:103A600046000100AFF30080AFF30080AFF30080A9
:103A700038B5214CE36862681869DD68117D05403E
:103A8000ADB2E8B2C0431861A9B9AB0707D5237836
:103A90000421032B217002D0D36820469847680781
:103AA0001FD4EB0703D5636813481B699847BDE82B
:103AB0003840FDF725BFA90707D52378032B04D08D
:103AC000052193682170204698476A07E9D5237835
:103AD00009480422032B2270E3D04368DB6898472F
:103AE000DFE723780448032BDBD0436805229B687B
:103AF00002709847D5E700BFE0170020AFF30080C1
:103B000010B5034C2046FFF743F8024BE36010BDAD
:103B1000E0170020000C0040AFF30080AFF30080FE
:103B200038B543681B7D012B044602D93148FEF7A6
:103B30003FF82378012B46D06268E3689069002142
:103B400020F0FF001960D8601961596399635962C8
:103B5000A3685068B3FBF0F14D1EB5F5803F03D26A
:103B600000FB01F18B4203D02248FEF721F8626886
:103B7000117DE3681278ADB24FF6FF709D62D86296
:103B800069B940F20120542198619960C2B11322B1
:103B90001A6203F1380234332261636138BD4FF495
:103BA00081706421986199603AB131221A6203F1FF
:103BB000340238332261636138BD13221A62F6E79A
:103BC00031221A62E5E70C4B9C4201D06268BFE7E4
:103BD0000A4B1A6C42F008021A64196A002241F07A
:103BE0000801196232201A627021FDF7F9FE044BB8
:103BF000A360EBE7C0C00008E017002000380240D7
:103C000000BD0105AFF30080AFF30080AFF300808B
:103C1000C36842685869117D10B440F00100002467
:103C200058611C61B1B9D16819B1D96841F002017C
:103C3000D960916819B1D96841F00401D96012695D
:103C40001AB1DA6842F00102DA6005221A605DF802
:103C5000044B7047916819B1D96841F00201D960ED
:103C6000D1680029E7D1EAE7AFF30080AFF3008025
:103C700038B5174D2B691A69DC681440A4B2E2B25A
:103C8000D2431A61A3071ED4600717D4210710D4AA
:103C9000E20609D4E30703D56B680D489B68984793
:103CA000BDE83840FDF72CBE6B6809489B6A984711
:103CB000F0E76B6806481B6A9847E9E76B680448B9
:103CC0009B699847E2E76B6828461B699847DBE7E2
:103CD000F8170020AFF30080AFF30080AFF300804F
:103CE00010B5034C2046FEF7BBFF024B236110BD0D
:103CF000F817002000040040AFF30080AFF300800D
:103D00000378012B70B5044662D042680369106BDA
:103D1000002120F0FF001960D86019615963996390
:103D2000D96319645962E1681668B1FBF6F0451E63
:103D3000B5F5803F03D206FB00F0814204D0324843
:103D4000FDF736FF626823692489D168D06A013C97
:103D500001F00F01A4B2ADB201299D62DC6258608E
:103D600003D002290CBF03210021506900F00F008D
:103D700001282AD0022826D0D06900F00F0001289F
:103D80001ED002281AD0506A00F00F00012803D07C
:103D9000022803D141F4005141F4805101201962FD
:103DA00058619068DA68002188420CBF104642F0E2
:103DB00001008522D86019611A6070BD41F400715C
:103DC00041F48071DFE741F0200141F01001D3E7B9
:103DD0000E4B984206D02369626846F668019961E5
:103DE000D961A0E70A4B1A6C42F002021A64196A00
:103DF000002241F0020119621D201A627021FDF7B4
:103E0000EFFD044BE360E6E7E0C00008F817002090
:103E10000038024000BD0105AFF30080AFF3008021
:103E200010B44468036904EBC10001F10C0400699B
:103E300003EB8404626048B10220DA6800FA01F101
:103E4000114203D10A43C943DA6019615DF8044B9A
:103E5000704700BFAFF30080AFF30080AFF3008086
:103E6000034B9A8992B242F080029A81704700BF58
:103E700000440040AFF30080AFF30080AFF3008058
:103E8000F8B53A4E756FAF892C88A4B2E005BFB281
:103E900041D4FDF725FDA10621D508E0A9883348C6
:103EA000C9B2FEF7B5FF2C88A4B2A00617D5220729
:103EB000F4D014F0080F14BF8021002114F0010F7A
:103EC00018BF41F02001A30748BF41F0400164073B
:103ED000274848BF41F48071FEF73AFBDEE7FDF763
:103EE00007FD390601D5220622D463060FD5FDF75A
:103EF000F7FC726CB36C1D489A4225D027F040073E
:103F0000BFB24FF6BF73AF812B80FDF7F1FCBDE868
:103F1000F840FDF7F5BCFDF7E3FC4FF40071301DF0
:103F2000FEF716FBFDF7E4FC4FF6FF632B80B0E7CE
:103F3000FDF7D6FC0F48FEF71BFC00280CDB80B217
:103F4000A880FDF7D5FCD0E7836B002BD6D00430DA
:103F50001021FEF7FDFAD1E705480821FEF7F8FA2F
:103F600027F0C00343F04003AB81EAE70C180020C0
:103F7000101800203C180020AFF30080AFF3008041
:103F800010B5044C044A20460021FEF701FF034B04
:103F9000636710BD0C180020613E0008004400401B
:103FA00038B5204C037A002918BF0C46012B054672
:103FB00023D06B6F1C4A93422CD002F5806293424F
:103FC00028D022681949B1FBF2F292B21A81A28874
:103FD000E188208942F4045241F0400442F02C026E
:103FE00040F0010092B2A4B280B200211C829882FB
:103FF0009A8119801A889B8838BD0D4B9842D8D178
:104000000C4B1A6C42F400321A642620C021FDF7D2
:10401000E7FCCEE722680849B1FBF2F292B21A81BE
:10402000D5E700BF00C100080010014080DE80021B
:104030000C1800200038024000BD0105AFF30080DD
:10404000FFF776B9AFF30080AFF30080AFF30080E5
:10405000704700BFAFF30080AFF30080AFF3008084
:1040600008B50B4B1A7802B108BD01221A7000F096
:1040700017F800F0A5F801F02BFC01F059FD00F055
:1040800017FC01F0F5FDBDE8084002F049BD00BF96
:1040900084180020AFF30080AFF30080AFF30080FE
:1040A00008B5054B9B6903B108BDFEF7B9FCBDE837
:1040B0000840FDF7E5BC00BF7C160020AFF3008090
:1040C000034678B1421C01D1FEF712B84FF47A7062
:1040D00000FB03F0044A0138A2FB003080090130E4
:1040E000FEF706B8FEF71CB8D34D6210AFF30080A0
:1040F000034678B1421C01D1FDF7FABF4FF47A7044
:1041000000FB03F0044A0138A2FB0030800C0130B0
:10411000FDF7EEBF704700BF83DE1B43AFF30080A7
:10412000C2609142A8BF1146FEF772B8AFF300809B
:1041300008B50B4679B14A1C03D1FEF7B1F801204E
:1041400008BD4FF47A7101FB03F1064A0139A2FB65
:10415000013189090131FEF7E3F8013018BF012070
:1041600008BD00BFD34D6210AFF30080AFF30080F5
:1041700008B5FDF7B5FB8168C368994201DAFEF71F
:10418000D7F8FDF7E5FEFDF7B3FB08BDAFF3008000
:1041900030B4029D38B119B1029530BCFDF780BF33
:1041A000084630BC7047002908BF4FF4807130BC0E
:1041B000FDF7FEBFAFF30080AFF30080AFF30080E8
:1041C000704700BFAFF30080AFF30080AFF3008013
:1041D0000023436003607047AFF30080AFF30080BB
:1041E00000B5FDF77DFB31B1036800220A6033B1F1
:1041F000436819604160FDF77BFB5DF804FB41609B
:104200000160F8E7AFF30080AFF30080AFF3008008
:1042100010B451B1026842B1914203D114E0994205
:1042200006D01A461368002BF9D15DF8044B70478D
:1042300044680B6813608C424FF0000308BF426073
:104240005DF8044B0B6070470B68036000230B6044
:10425000EBE700BFAFF30080AFF30080AFF3008067
:1042600008B5FDF73DFBFFF7D3FFFDF741FB08BDA8
:1042700070B582B006460D46054C986C01933146E8
:10428000134600942A4600F083FE02B070BD00BFC2
:1042900081430008AFF30080AFF30080AFF30080EC
:1042A00070B582B006460D46054C986C01933146B8
:1042B000134600942A4600F06BFE02B070BD00BFAA
:1042C00081430008AFF30080AFF30080AFF30080BC
:1042D000F8B5028F038E044619B210B2884202DA92
:1042E000A38622862387658EB4F92A202BB29A42B0
:1042F00020DCB4F92E209A421CDD268E238D31B2AB
:104300001AB2914202DA1E46238619B2238FA08D7B
:104310001AB207B2BA420EDA91420BDC10D0C6F1E3
:10432000010633440122A386E2862046BDE8F84018
:1043300003F04EB8F8BD431E9BB223871AB2EBE7D9
:10434000E38A03F002039BB273B921886288638613
:104350002386A186E286204603F01AF8E38A2686A1
:1043600043F002036586E382204603F029F82046E5
:10437000BDE8F84003F014B8AFF30080AFF300805D
:10438000F0B4049CB4F952508D422ADCB4F9565072
:104390008D4226DDB4F950508618AE4221DDB4F8C6
:1043A00054C00FFA8CF7B8421BDAA84205DA521B48
:1043B00050FA82F2D2B2AE182846B742BCBFC0EB68
:1043C0000C02D2B2802B0CD9431E1A44B4F84C30E4
:1043D000208622876186A4F840302046F0BCFFF793
:1043E00077BFF0BC704700BFAFF30080AFF3008031
:1043F000F8B5428F438E044619B210B2884202DAF1
:10440000E38662866387258EB4F928202BB29A4210
:1044100020DCB4F92C209A421CDD668E638D31B20B
:104420001AB2914202DA1E46638619B2638FE08D9A
:104430001AB207B2BA420EDA91420BDC10D0C6F1C2
:10444000010633440122E386A2862046BDE8F840F7
:1044500002F0BEBFF8BD431E9BB263871AB2EBE702
:10446000E38A03F002039BB273B9218862886386F2
:104470002386A186E286204602F08AFFE38A25860B
:1044800043F002036686E382204602F099FF20464D
:10449000BDE8F84002F084BFAFF30080AFF30080C6
:1044A0002DE9F04F83B00446BDF93060BDF834907B
:1044B000174618300D469846FDF7D2FFB742A4F8CC
:1044C000409025866786A4F83880668700F0F580DE
:1044D000454500F0F6805ADDC8EB0508B7421FFAE3
:1044E00088F34FF6FF795ADCF61BB6B20FFA83F861
:1044F0000FFA86FBD8454FF0010A5ADB4FEA4B0B07
:104500001FFA8BF29BB2D61AB6B2F31AB8F1000FAB
:104510001FFA83FBB6B22BDB00270BE0638E01375B
:10452000534463863BB25E444D449845B6B22586FB
:104530001EDB258EB4F928102BB299420EDCB4F99B
:104540002C1099420ADD618EB4F92A000BB2984210
:1045500004DCB4F92E00984200F38B803004DDD5E2
:1045600001373BB216444D449845B6B22586E0DA91
:10457000E38A9B0706D5204602F01AFFE38A23F060
:104580000203E38203B0BDE8F04FFDF771BFC5EB56
:104590000808B7421FFA88F34FF00109A4DDBE1BDB
:1045A000B6B20FFA83F80FFA86FBD8454FF6FF7ABA
:1045B000A4DA4FEA4802B6B292B2931B9BB29E1B9A
:1045C000BBF1000F1FFA86FC9EB2D1DBB846002774
:1045D0000EE0238E6644D0444B44B6B2A4F8328039
:1045E000238601373BB29B45C2DB258EB4F832806F
:1045F000B4F928102BB299420DDCB4F92C10994271
:1046000009DDB4F92A100FFA88F3994203DCB4F9F2
:104610002E10994207DC3104DBD51644D044B6B2E3
:10462000A4F83280DDE7E38A03F002039BB29BB972
:104630002088618863862386A086E18620468DE8EF
:10464000041002F0A5FEE38A25869DE8041043F0DD
:104650000203A4F83280E38220468DE8041002F0C1
:10466000AFFE204602F09CFEB4F832809DE80410B4
:10467000D1E7E38A03F002039BB2A3B96088B4F8E0
:1046800000E063862386E086A4F834E020460191AA
:10469000009202F07DFEE38A0199009A258643F09C
:1046A00002036186E3822046009202F089FE2046E2
:1046B00002F076FE258E009A50E72046FFF708FEAE
:1046C00056E72046FFF794FE52E700BFAFF30080A5
:1046D00038B5044618300D46FDF7C2FE0023218888
:1046E0006288A4F84050A186E2866386238620462D
:1046F00002F06EFEBDE83840FDF7BABEAFF30080B1
:104700002DE9F047044618300E4617469946BDF984
:104710002080BDF824A0FDF7A3FE258DA4F840A0BD
:1047200029B28E4226866786A4F83490A4F8368093
:1047300034DAC5EB09094E44B3B2A3862586608DF1
:1047400002B2974227DAC0EB0808B8441FFA88F88B
:10475000A4F836806086A68D1BB2194437B2B942E0
:1047600003DD751BABB2A3861BB2E18D02FA88F89C
:104770000DB2A845C4BFC0EB0100E086002B06DDEA
:10478000B4F93630002B02DD204602F021FEBDE8F0
:10479000F047FDF76DBE38463AB2DCE735464B468A
:1047A00031B2CCE7AFF30080AFF30080AFF300800D
:1047B0002DE9F8430D460446183016461F46BDF94C
:1047C0002080FDF74DFE002D2ADB002E23DB002F7D
:1047D0001DDDB8F1000F1ADD23881AB2954216DAF2
:1047E000618808B2864212DA2F44B044BFB21FFA81
:1047F00088F80FFA87F90FFA88FC4A45A8BF3B46AC
:104800006045A8BF414625856685A385E185BDE84D
:10481000F843FDF72DBEB0440FFA88F80026D6E71E
:104820002F443FB20025D0E7AFF30080AFF3008004
:1048300070B504460D4618301646FDF711FE012DE1
:104840002586666406D0204602F002FEBDE8704070
:10485000FDF70EBEB6B2B6F57A7F1AD040F2E93354
:104860009E4208D1B4F90020B4F902309A42B4BF94
:104870005A2300236364204602F0EAFD00232188C6
:10488000628823856385A185E285BDE87040FDF7D8
:10489000EFBDB4F90020B4F902309A42ACBF5A23FC
:1048A00000236364E7E700BFAFF30080AFF300804D
:1048B0002DE9F043394C002583B004F1180025752B
:1048C0006575FDF765FD04F11800FDF7C9FDE5828A
:1048D000204602F0A5FBFDF7CBFD204601215A2220
:1048E000FFF7A6FFB4F90220B4F900300092294680
:1048F0002A462046FFF75CFF29462046FFF7E8FEE0
:10490000B4F90080B8F1000F4546B8BF08F13F0583
:10491000C5F38F15002D37D101256FF00F096FF00A
:104920001F01B4F902201E4C9144884409EBD97947
:1049300008EBD878C9F34F09C8F34F0804F1800792
:104940001F26E08821886288A388019600FB05F075
:1049500000B205FB018105FB029203FB05F3009009
:1049600009B212B21BB208340C48FFF7C9FEBC42B0
:10497000E7D34FF47A70FFF7A3FB0848002103B098
:10498000BDE8F043FFF7A4BE2BB2C3EBC361C3EB9A
:104990000373ADB249014FEA0319C2E7881800203A
:1049A00010C20008AFF30080AFF30080AFF30080C7
:1049B0002DE9F84F002B164604460D46BDF9282078
:1049C000BDF82C804BDD002A49DD4F1E1F441FFA25
:1049D00086F94A443FB218301FFA82FAFDF740FDCB
:1049E0007B1B0AF1FF3B022B0FFA8BFBA4F84080E4
:1049F0002586668617DD27872046FFF769FC5E451A
:104A00000AD02586A4F832B027872046C6EB0B06CD
:104A1000FFF75EFC022E24DCE38A9B0714D4BDE87A
:104A2000F84FFDF725BDA4F83AB02046FFF7E0FCAB
:104A3000BD42F1D027866686A4F83AB02046FFF73B
:104A4000D7FCE38A9B07EAD5204602F0B1FCE38A53
:104A500023F00203E382BDE8F84FFDF709BDBDE88E
:104A6000F88F09F10109AAF1020A0FFA89F90FFA80
:104A70008AFA2046A4F83290A4F83AA02586FFF7D7
:104A8000B7FCA4F83290A4F83AA027862046FFF796
:104A9000AFFCC1E7AFF30080AFF30080AFF300805D
:104AA0002DE9F04383B004460A9DBDF82C901746CB
:104AB0000E4698461830FDF7D3FC4146A564A4F88D
:104AC0005060A4F85270284600F07AFA2A7B0194CC
:104AD00032441044A4F854006A7A0E4B00933A44CE
:104AE0004346A4F856203146A4F84C9028463A464E
:104AF00000F04EFAE38A9B0706D5204602F058FCE8
:104B0000E38A23F00203E38203B0BDE8F043FDF73C
:104B1000AFBC00BF81430008AFF30080AFF300805B
:104B20002DE9F04F87B004460F4618309B46119B85
:104B3000BDF94090129DBDF84CA09DF850600593C2
:104B40009046FDF78DFCB8B21FFA88F200EB0B011E
:104B500002EB090E09B2012EA564A4F85070A4F866
:104B60005280A4F84CA0A4F856E0A4F854102BD01E
:104B7000022E25D16B7A0598174F009009F1010993
:104B8000C3EB090909EBD9794FF0000E02EB69027A
:104B90003346039412B22846CDF804E0029700F0A1
:104BA000A7FAE38A9B0706D5204602F001FCE38AB8
:104BB00023F00203E38207B0BDE8F04FFDF758BCD5
:104BC000297B014409B2D5E70BF1010B0BEBDB7B31
:104BD00000EB6B0109B2CDE771420008AFF3008032
:104BE0002DE9F04F8BB09A46169E159B099304460B
:104BF0000D46BDF86030BDF85C10069618309DF883
:104C00006460BDF9508008960591164604931FFA1A
:104C100085F9FDF725FC1FFA8AFC0CEB090212B29C
:104C2000278D0792069A0599049BA2641FFA86FBBA
:104C30001FFA88F03AB2A4F84C10A4F8403000EB08
:104C40000B01A4F84E309542079BA4F834A0A4F8B9
:104C500036802586A4F850506686A4F85260A4F8E1
:104C60005610A4F854305BDAC7EB09056544ADB2C1
:104C70002786A586618D0BB29E424DDAC1EB0B06ED
:104C8000304480B26186E086A68D2DB22A440FFAA8
:104C900086FC624503DDF71BBDB2A5862DB2E28D11
:104CA00003FA80F316B2B342C4BFC1EB0201E1863E
:104CB000002D22DDB4F93630002B1EDD204602F037
:104CC00087FB089E012E35D0022E2DD1069E1F4D4A
:104CD000737A099E009608F10108C3EB080808EBF7
:104CE000D8780BEB6802002603940799089B069876
:104CF000019612B2029500F0FBF9E38A9B0706D5F4
:104D0000204602F055FBE38A23F00203E3820BB056
:104D1000BDE8F04FFDF7ACBB314633B24046B3E7D8
:104D20002F462AB25546A5E7069E337B4B441BB25D
:104D30000793CBE70AF1010A0AEBDA7A09EB6A0A70
:104D40000FFA8AFACDF81CA0C0E700BFA142000804
:104D5000052904D8DFE801F0090C1203061500202C
:104D600000B27047807A00B27047407A00B2704754
:104D7000427A437BD01A80B200B27047807B00B287
:104D80007047C07A00B27047AFF30080AFF3008085
:104D900008B503460846194600F012F900B208BDEE
:104DA00010B4002204461346084621465DF8044B21
:104DB00000F06EB9AFF30080AFF30080AFF3008076
:104DC000F0B400F4FC67531C01F4FC6C00F478456B
:104DD000FF10C2F5807207FB03F792B2C60001F420
:104DE00078444FEAEC0C2D120CFB027005FB03F526
:104DF000F6B22412C90004FB025406FB03F3400977
:104E0000C9B204F4784400F4FC6001FB0232204390
:104E1000C2F3C4221043F0BC704700BFAFF3008060
:104E200003780A7883B12A2B06D1AAB1437893423A
:104E30000FD04A780131F8E7934213D143784A788A
:104E400001300131002BEED1D2F1010038BF00203A
:104E5000704701301346E5E74078D0F1010038BFD4
:104E60000020704700207047AFF30080AFF3008050
:104E700070B5064600F0B4F8044610B90AE024689C
:104E800044B1656830462968FFF7CAFF0028F6D0AC
:104E9000284670BD00F0A4F8044638B900F0A0F828
:104EA0004568284670BD2468002CF7D065683046F8
:104EB0006968FFF7B5FF0028F5D0284670BD00BF30
:104EC000F0B401680B7802461BB14C1C0460180654
:104ED00002D41846F0BC704703F0C0008028F8D018
:104EE0004F7807F0C001C029F3D003F0200101F092
:104EF000FF0079B300260220202507F03F076D0848
:104F000047EA86160130611C2B42B6B2C0B211606E
:104F100016D0052802D00F780C46EEE7B00167786E
:104F200080B2013D4FF0180C07F03F072B4038438B
:104F300003FA0CF31843013180B21160F0BC7047E2
:104F4000013800EB4000B6014FEA400C6778B0B280
:104F5000013DE9E721464FF0060C1F25E4E700BFBD
:104F600003685A1E026013F8012C11060ED502F0D8
:104F7000C002C02A0AD0023B01E0C02906D003606B
:104F800013F8012902F0C0011206F6D4704700BFE1
:104F90002DE9F04383B087690A9E0B9D0096019529
:104FA000044689469046B84738B9238A0096019549
:104FB00049464246A5692046A84703B0BDE8F083AC
:104FC00010B543690446984718B920466369218A99
:104FD000984710BDAFF30080AFF30080AFF30080BF
:104FE0000048704770C70008AFF30080AFF300803F
:104FF000F8B50E466D2117460546FFF7E1FF202163
:10500000C4002846FFF7DCFF2B7B384482B29B1B91
:105010001344A4B21BB293FBF4F0224404FB1034FB
:10502000101B00B2F8BD00BFAFF30080AFF30080EB
:105030002DE9F04F83B0057BDDF83490DDF8388042
:10504000BDF8304002AE4D1B83468A461746ADB2CE
:1050500046F8043D04E0C847284485B2013CA4B2A8
:10506000304684B1FFF72CFF8646BEF1090F394662
:1050700028B272464346EED1024651465846FFF7E3
:10508000B7FF0546EAE703B0BDE8F08FAFF3008055
:10509000F0B583B002AF4FF6FF74064647F8041D23
:1050A000002A18BF1446002506E0FFF789FF013CDF
:1050B0002844A4B285B29CB1019B1B7838467BB1D1
:1050C000FFF7FEFE0346092B01463046EDD12AB21A
:1050D0000021FFF78DFF013CA4B20546002CEBD167
:1050E00028B203B0F0BD00BFAFF30080AFF3008083
:1050F0002DE9F04F89B008ADBDF84C409846129BA1
:1051000045F80C3D00264FF6FF7C07468B4691463E
:10511000B44208BF6446B246059A12780AF1010308
:1051200028461FFA83FA7AB1FFF7CAFE20F0800200
:1051300092B2202A06D00D2804D0093880B2012866
:1051400088BF5646A245E7D1B8F1000F08D0B8F1A4
:10515000010F63D0B8F1020F10D009B0BDE8F08F95
:10516000149D0195159D00960295384659464A466C
:10517000129BFFF75DFF09B0BDE8F08F129D069509
:10518000002EEAD00024013406A8FFF799FEA3B24E
:105190009E42F8D83D7B1FFA8BFBC5EB0B051FFA2F
:1051A00085FA002410E0FFF70BFFC0EB0A001FFA9E
:1051B00080FA42460FFA8AF04946159B149DA8478B
:1051C0000134A3B29E42C8D906A8FFF7C9FE069BC8
:1051D000079307A8FFF774FE8046B8F1090F014650
:1051E0003846E0D16D21FFF7EBFE20214FEAC008E1
:1051F0003846FFF7E5FE3B7BC0EB0A0085B25B4417
:105200005B1B1FFA88F81BB293FBF8F2C8EB05058D
:1052100008FB12331D441FFA85FAD1E71299324672
:1052200038460023FFF734FF149D019500EBD07042
:10523000ABEB6001159D009609B2029538464A46CF
:10524000129BFFF7F5FE88E7AFF30080AFF3008015
:105250002DE9F04385884788044628B20E463BB2C4
:105260004118994283B0904619DBE1887D1B236980
:1052700000935FFA85F909B24A464346E568A847B4
:105280002588E1886788A580C9EB0606B6B228B2F2
:10529000013182193BB289B29A42E180E6DA56B115
:1052A0002369B4F906100093F2B24346E568A847B3
:1052B000A3881E44A68003B0BDE8F083AFF300804E
:1052C00030B480B10B6800211C88A24201F10101B9
:1052D000C4EB020502D35C88A54206D3814203F1E8
:1052E0000C03F1D3002030BC70475A68986832F83C
:1052F000153030BC18447047AFF30080AFF3008026
:105300000F2A2DE9F04107460D463FD9102A56D005
:10531000172A39D990F828301733934253DAFB2AE9
:105320003DD90127043AD6B2002106E001317B1EA7
:10533000C9B27608DBB207B31F46F307F6D40029DB
:1053400038D1AB88688801339BB21AB201B28A4265
:10535000AB800CDB2C88EA88201A80B203449BB215
:105360001CB201328C4292B2F8DAAB80EA807B1E2A
:1053700000217608DBB2002FDED129B12846FF22BA
:10538000BDE8F041FFF764BFBDE8F08102EB021217
:105390000846D2B20121BDE8F041FFF759BFF32A18
:1053A00074D8E32A74D8C32A74D8842A34BF062751
:1053B0000527B7E72846FF22FFF74AFFC1E70B8919
:1053C000CB80BDE8F081436A183AD2B203EB4201C8
:1053D00033F812604B889B1B9BB2002BD4D0013B4F
:1053E000721C12FA83F83B6A9B5D13F0C0021AD15B
:1053F000AA88698813449BB21AB20CB2A242AB804D
:105400000CDB2888EA88411A88B203449BB219B29F
:1054100001328C4292B2F8DDAB80EA80013646451B
:10542000E1D1BDE8F081402A0FD0802A26D0C02AE1
:10543000F4D103F00F02C3F3011102EB0212D2B256
:1054400001312846FFF704FFE8E7AA88698803F0DE
:105450003F03013302EB83139BB21AB208B28242BC
:10546000AB80DBDB2C88EA88611A8CB223449BB2C8
:1054700019B20132884292B2F8DDCDE703F03F0164
:1054800001312846FF22FFF7E3FEC7E7022749E77D
:10549000032747E7042745E7AFF30080AFF3008019
:1054A0002DE9F04390F8098090F808E087B00446B1
:1054B00090440D468E4491460E9F0F9EADF80A20F3
:1054C0001FFA88F890F82A00ADF804501A4604F143
:1054D0002C01ADF80850ADF806E0ADF80C8004974B
:1054E0000596FFF7EDFE00283CD00FFA88F30FFA7F
:1054F00089F190F800800646022707E0204601A9BE
:10550000FFF7FEFEBDF90A10BDF90C30994228DA0A
:1055100094F8280016F8012F17309042EEDA94F82C
:10552000290017308242E9DC183AD2B217FB027523
:10553000606A30F805C030F81250C5EB0C0292B228
:10554000002AE3D002F1FF396B1C13FA89F9236AB0
:1055500020465A5D01A90135FFF7D2FE4D45F6D12F
:10556000D0E7404607B0BDE8F08300BFAFF300804E
:1055700008B503460A4690F82A0003F12C01FFF70C
:105580009FFE00B1007808BDAFF30080AFF300804C
:105590002DE9F04F467F8DB0002E00F0C680D0F888
:1055A00020A00020BAF80040A34200F10100C4EBA3
:1055B000030503D3BAF80240A54207D3B0420AF16B
:1055C000180AEFD300200DB0BDE8F08F9AF808005C
:1055D000002840F08880DAF810409AF80690DAF84F
:1055E0001430ADB20A950A9E04EB450534F8164016
:1055F000AF7809FB04333F1BFFB208939AF80440CD
:105600009AF805509AF8073021442A4489B292B298
:105610000791002B5FD0013BDBB201331344002420
:105620009BB2CDF82CA0059409934FF0000B924645
:10563000012505FA0BF8059E089D5FFA88F83544A8
:10564000002F2ED000240FFA8AF622462346069613
:10565000BC4609E00BB1002A52D101220134E3B269
:1056600063454D440FD23346297818EA010F0CBF29
:10567000002601269E42EDD10134E3B2013263459A
:10568000D2B24D44EFD367465EB152B10798179C32
:1056900000946044801A00B20FFA8AF1FF23169D2D
:1056A000A8470BF1010B5FFA8BFBBBF1070F05D984
:1056B000059E731CDBB205934FF0000B0AF1010C41
:1056C000099C1FFA8CFAA245B2D1DDF82CA09AF8F9
:1056D00004409AF8080018BBDAF80C300A9D585DAF
:1056E0000DB0BDE8F08FADB29AF80690DAF814303C
:1056F0000A9505FB00F409FB0433089307467DE790
:105700000798179F00972044801ACDF80CC000B26C
:105710000699169FFF23B8470122DDF80CC09DE7CC
:105720002044C0B20DB0BDE8F08F30464BE700BF5B
:1057300070B4467FF6B1036A00221C88A14202F1D0
:105740000102C4EB010502D35888854206D3B24258
:1057500003F11803F1D3002070BC70471A7A18794E
:105760001AB10244D0B270BC7047ADB2DB68585D6C
:1057700070BC70473046EFE7AFF30080AFF30080B6
:105780002DE9F04782B09A460A9D2E7AB5F80A8034
:10579000B5F80C906C7A06FB02F200FB068001FB68
:1057A0000491D7B20FFA80F81FFA81F97CB1002476
:1057B0006E68009604EB0901534609B22E68404614
:1057C0003A46B04701346B7AE4B2A342F0D802B053
:1057D000BDE8F087AFF30080AFF30080AFF3008047
:1057E00010B50446C0694369984794F8203003FB1C
:1057F00000F0C0B210BD00BFAFF30080AFF3008077
:10580000F0B587B00446ADF812100F4DC069009591
:1058100002A9019194F820C094F821E00C9E0D9DFE
:10582000ADF81420002187698DF810C08DF811E0C3
:10583000029603950A46B84794F8203003FB00F01F
:10584000C0B207B0F0BD00BF81570008AFF30080C1
:105850002DE9F8431C4C05460F4604F5F8764FF049
:1058600000084FF0010955B154F8103CAB4206D086
:10587000B44204F1100312D21C46002DF4D11FB122
:1058800054F80C3CBB42F3D154F8100C8368002B45
:1058900007DBB44244F8108C04F11003ECD3BDE8EC
:1058A000F8834FF0FF311030FEF742FC54F8103C03
:1058B000A3F8289054F8100CFEF75AFC54F8100C7A
:1058C0001030FEF755FCE4E7F0180020AFF300803D
:1058D0000148FCF75DBD00BFE01A0020AFF3008077
:1058E00010B500216FF000420446FEF719FC0121BB
:1058F00004F110000A46FEF713FC002323852362FF
:1059000010BD00BFAFF30080AFF30080AFF30080A5
:10591000F8B504460E461746A8B1114804F1100523
:10592000FCF79EFD28464FF0FF31FEF701FCA3680F
:105930006762002B266207DB2846FEF719FCBDE8EC
:10594000F840FCF795BDF8BD012323852046FEF7FE
:105950000FFC2846FEF70CFCBDE8F840FCF788BDBC
:10596000E01A0020AFF30080AFF30080AFF30080B7
:1059700038B505460C46C0B11348FCF771FD04B3B9
:1059800054F8100B1030FEF7F3FB104A94420AD281
:105990006368AB420BD00D4A02E06368AB4206D0AD
:1059A00010349442F9D3FCF763FD002038BD206821
:1059B0004FF0FF311030FEF7BBFBFCF759FD2046DE
:1059C00038BD034CE4E700BFE01A0020E01A0020D5
:1059D000E0180020AFF30080AFF30080AFF3008049
:1059E000006810F1200301D0283070478268002A37
:1059F000FADB1846704700BFAFF30080AFF30080BA
:105A000010B504460B48FCF72BFD2068036A3BB138
:105A1000FCF72EFD21680B6A486A2831984710BDB3
:105A20008368002B03DDBDE81040FCF721BDFEF7C5
:105A30009FFBF8E7E01A0020AFF30080AFF300808F
:105A400010B504460548FCF70BFD21460020FFF782
:105A5000FFFEBDE81040FCF70BBD00BFE01A0020C0
:105A60002DE9F0472E4F2F4E4FF0000A4FF0FF392F
:105A7000FCF756FB49462C48FEF75AFB4FF000084E
:105A80002A48FC68FCF7ECFC3568002D3ED02B461C
:105A90004FF0FF390AE0824501D8844210D2001B42
:105AA000814528BF81465B699D4231D01A8A5107E2
:105AB00006D49107F7D4A2459868ECD98245ECD872
:105AC000D00715D5D96899B1900707D498680C44C8
:105AD000241AB4FBF1F401FB0401996022F00402E2
