:020000040800F2
:100000000004002091020008B1030008B1030008B9
:10001000B1030008B1030008B1030008B1030008F0
:10002000B1030008B1030008B1030008E1030008B0
:10003000B1030008B1030008B1030008B1040008CF
:10004000B1030008B1030008B1030008B1030008C0
:10005000B1030008B1030008B1030008B1030008B0
:10006000B1030008B1030008B1030008716C000877
:10007000A16C0008E16C0008216D0008616D0008AA
:10008000916D0008D16D0008B1030008B1030008AC
:10009000B1030008B1030008B1030008B103000870
:1000A000B1030008B1030008B1030008B103000860
:1000B000B103000891750008B1030008B1030008FE
:1000C000B1030008B1030008B1030008B103000840
:1000D000B1030008B1030008A1770008B1030008CC
:1000E000B1030008B1030008B1030008B103000820
:1000F000B1030008B1030008B1030008116E000845
:10010000B1030008B1030008B1030008B1030008FF
:10011000B1030008B1030008B1030008B1030008EF
:10012000516E0008816E0008C16E0008016F000862
:10013000416F0008B1030008B1030008B1030008D3
:10014000B1030008B1030008B1030008B1030008BF
:10015000716F0008B16F0008F16F0008B10300086B
:10016000B1030008B1030008B1030008B10300089F
:10017000B1030008B1030008B1030008B10300088F
:10018000B1030008B1030008B1030008B10300087F
:10019000B1030008B1030008B1030008B10300086F
:0C01A000B1030008B1030008B10300081F
:1001B00010B582B006F004FC00F002FA4FF47A7039
:1001C00000F09EFE07F0FCFB1E4B1F4918681F4BFA
:1001D000048842880C8000211A8007F041FC1C48EA
:1001E0001C4C07F0A5FD1C4B002118601B4806F0B5
:1001F000DFFC2046042140F2823207F039F940F258
:1002000082322046082107F033F92369DA0715D432
:10021000002300934FF4EC71114B12480D4C402217
:1002200000F0D6FD03E04FF4FA7000F069FE236998
:10023000DB07F8D5094802F073FEF4E7074802F03F
:100240006FFEE5E7B8080020981C00209A1C0020EB
:10025000D8A50008000002409C1C0020FC190020CA
:1002600081880008C01A0020AFF30080AFF300803F
:10027000704700BFAFF30080AFF30080AFF30080A2
:10028000FEE700BFAFF30080AFF30080AFF3008064
:1002900072B6374880F30988364B37491A684FF0F1
:1002A000404442F470021A600C600023E1EE103A00
:1002B00006228B6082F31488BFF36F8F2F4B304A76
:1002C00093420BD2D943114421F0030119444FF05A
:1002D0005532043B43F8042F8B42FBD1294B834218
:1002E0000CD229491A1D891A21F0030119444FF033
:1002F0005532043B43F8042F8B42FBD107F050FBEF
:100300002249234B99420BD2C843184420F00300E2
:10031000204C04300023E258CA5004338342FAD1FF
:100320001D4B1E4A93420AD2D943114421F00301C6
:1003300019440022043B43F8042F8B42FBD1184D93
:10034000184CFFF795FFAC4204D254F8043B984791
:10035000AC42FAD3144D154CFFF72AFFAC4204D23D
:1003600054F8043B9847AC42FAD3FFF789FF00BF2B
:100370000008002088ED00E034EF00E000000020DD
:1003800000040020000400200308002000080020D2
:10039000BC080020B8A60008C0080020A01C00204F
:1003A000AC010008AC010008AC010008AC01000879
:1003B000FEE700BFAFF30080AFF30080AFF3008033
:1003C00072B6FEE7AFF30080AFF30080AFF30080BA
:1003D00000F07EF900F05CFC00F092F900DF00BF55
:1003E000064B5A6822F001025A60EFF30983683322
:1003F00083F30988002383F31188704730EF00E00E
:1004000008B5094B094A002199600720DA601021DC
:1004100000F0AEF80A20202100F0AAF80B2080217D
:10042000BDE8084000F0A4B800ED00E00003FA05C4
:10043000202383F31188174B5B6813F400631CD0EF
:10044000F1EE10FAEFF309834FF0807243F84C2C71
:10045000A3F1680282F309880F498A69096892F852
:1004600023008968926858B1914294BF002201220A
:1004700062B10A4A43F8502C704783F311887047E1
:10048000914234BF00220122002AF2D1044A43F8EB
:10049000502C704700ED00E09C0E0020D1030008B6
:1004A000DC030008AFF30080AFF30080AFF30080FF
:1004B00008B500F07DF9202383F3118800F040F99E
:1004C00000F0B6F800F054F9002383F3118800F02F
:1004D0008FF9BDE80840FFF7ABBF00BFAFF3008066
:1004E0002DE9F04F2DED108AC1F80CD0D0F80CD0CA
:1004F000BDEC108ABDE8F08FAFF30080AFF3008051
:1005000008B500F0FDF8002383F311882846A047C2
:1005100000F066FD08BD00BFAFF30080AFF30080C0
:1005200020F0030202F1604202F56142F0B4430997
:1005300000F00304D2F80053E400FF269B00A6401D
:1005400003F1604325EA060503F561430127A14055
:1005500000F01F0007FA00F045EA0104C2F800436A
:10056000C3F88001F0BC1860704700BFAFF3008093
:1005700020F0030303F1604303F56D4300F0030033
:1005800010B4C0009A69FF24844022EA040281402A
:100590000A439A615DF8044B704700BFAFF30080D7
:1005A000024B034A9B699A61FEE700BF9C0E002044
:1005B000E0880008AFF30080AFF30080AFF3008065
:1005C00030B583B0FFF71CFF00F002FA00F098F995
:1005D00002F03EF902F094F900F05AF940210E4879
:1005E0000E4C00F065FB01250D4BC36180F82050D7
:1005F000A06100F055F8002383F3118862B6A26968
:1006000008499161084800932A46084B4FF4B47199
:1006100000F0DEFB03B030BDC00800209C0E0020BF
:1006200000040020B08A000810090020A10500087D
:10063000F8B500F0FDF8164B9B6993F8232012B132
:10064000013A83F823205A6A124D01325A62EB684C
:100650002C680133AC42EB6018D0A768013FA7605B
:10066000A7B92368E668E7605D602B6000F080F85A
:10067000002383F311882069B047202383F3118876
:1006800000F05EF82C68A368002BEAD0F8BD00BF2C
:100690009C0E00208C0E0020AFF30080AFF3008092
:1006A000054B1B6813B9054B1B6823B1044B054A66
:1006B0001A60FFF785BE7047780A0020840E00207C
:1006C000880E002000890008AFF30080AFF300809F
:1006D000074B1B6810B5074C0BB9236823B1064BB9
:1006E000064A1A60FFF76CFE0123236010BD00BFAD
:1006F000780A0020840E0020880E00200889000857
:10070000094B1B6810B5094C2BB92368002B02DD7F
:100710000023236010BD064B064A1A60FFF750FE07
:100720000023236010BD00BF780A0020840E002043
:10073000880E002010890008AFF30080AFF300801E
:10074000074B1B68002B10B5064C01DD236823B155
:10075000054B064A1A60FFF733FE0123236010BDE4
:10076000780A0020840E0020880E002018890008D6
:10077000094B1B68002B10B5084C05DD2368002BC6
:1007800002DD0023236010BD054B064A1A60FFF707
:1007900017FE0023236010BD780A0020840E00207D
:1007A000880E002020890008AFF30080AFF300809E
:1007B00010B5202383F31188094C2368002B02DB3A
:1007C000084A12682AB1084B084A1A60FFF7F8FD78
:1007D000236801332360002383F3118810BD00BF19
:1007E000780A0020840E0020880E00202889000846
:1007F00010B5202383F31188094C2368002B02DDF8
:10080000084A12682AB1084B084A1A60FFF7D8FD57
:100810002368013B2360002383F3118810BD00BFD0
:10082000780A0020840E0020880E002030890008FD
:10083000064B1B68002B04DB054B1B68002B00DDFF
:100840007047044B044A1A60FFF7BABD780A0020CB
:10085000840E0020880E002038890008AFF3008045
:10086000064B1B6823B9064B1B68002B00DD704745
:10087000044B054A1A60FFF7A3BD00BF780A0020A9
:10088000840E0020880E002040890008AFF300800D
:10089000034A1346402143F8081B5360704700BFCA
:1008A0007C0A0020AFF30080AFF30080AFF300803C
:1008B0000C4A0D495368896910B40C4CE4681C60FB
:1008C0005960816A996090F820101973103302F50D
:1008D00081618B4228BF02F1080353605DF8044B2D
:1008E000704700BF7C0A00209C0E00208C0E002068
:1008F000014B1860FFF764BD880E0020AFF3008045
:10090000044B4FF0FF3100225B601B609960DA609E
:10091000704700BF8C0E0020AFF30080AFF3008063
:10092000F8B505460C4616461F46FFF781FFCDB1C8
:10093000C6B1BCB10D492F610B68EE609A68944254
:1009400004D91B68A41A9A68A242FAD35A686A604A
:100950008B422B605D601560AC6002D09A68141BFE
:100960009C60F8BD0248FFF7C3FFE3E78C0E002050
:1009700050890008AFF30080AFF30080AFF3008030
:1009800010B50446FFF754FF84B1E36893B12368C0
:100990000A4A934203D09968A2680A449A6062683E
:1009A0001360236800215A60E16010BD0448FFF71E
:1009B0009FFFEAE70348FFF79BFFE8E78C0E002064
:1009C0006089000870890008AFF30080AFF30080F1
:1009D000034B00225B601B605B611B619A60704788
:1009E0009C0E0020AFF30080AFF30080AFF30080D7
:1009F00010B50446FFF71CFF94F820308BB10E2B86
:100A00000FD00022A168094B84F820201B689A6847
:100A10008A42FBD25A686260236020465C601460A0
:100A200010BD0348FFF764FFEBE700BF9C0E0020FA
:100A300090890008AFF30080AFF30080AFF300802F
:100A400010B52023044683F31188FFF779FE94F84C
:100A500020300D2B11D8DFE803F016101007100B13
:100A6000101010101010100BA36A9A6801329A60CF
:100A700094E80C001A60226853604FF0FF33A362C1
:100A80002046FFF7B5FFFFF773FE002383F31188BD
:100A900010BD00BFAFF30080AFF30080AFF3008064
:100AA00070B5114C0646FFF7DBFE2368A5691A688E
:100AB00085F820601420012185F823005460284621
:100AC00083F820102260A361FFF7F2FEEB69ADF11D
:100AD0006402934202D90548FFF70AFFA06929463C
:100AE000BDE87040FFF7FCBC9C0E0020A489000804
:100AF00070B50C4686B00646FFF7B2FE631C12D0F6
:100B00000D4D0E4AAB69214601A8FFF709FF30469B
:100B1000FFF7C6FF049B13B101A8FFF731FFAB69D4
:100B2000986A06B070BD044D3046FFF7B9FFAB6957
:100B3000986A06B070BD00BF9C0E0020410A0008F4
:100B400070B5164D04460E46FFF78AFEA869A368E5
:100B50008268A662934213D9FFF74AFF0123064633
:100B600084F82030AC61FFF7A3FEF369ADF16402B5
:100B700093420AD820463146BDE87040FFF7B0BC2A
:100B80002046BDE87040FFF733BF0548FFF7B0FED1
:100B900020463146BDE87040FFF7A2BC9C0E002005
:100BA000A4890008AFF30080AFF30080AFF30080AA
:100BB00070B5104C2368A5691A68226014210126BB
:100BC0005460284683F8206085F82310A361FFF75E
:100BD0000FFF2846FFF76CFEEB69ADF1640293420C
:100BE00002D90548FFF784FEA0692946BDE8704098
:100BF000FFF776BC9C0E0020A4890008AFF30080AC
:100C000070B5154E3268B5691368AC683360012061
:100C100000215E6082F820001346B26185F8201042
:100C200000E01B689A68A242FBD85A686A602B6091
:100C300028465D601560FFF73BFEEB69ADF164028D
:100C4000934202D90548FFF753FEB0692946BDE833
:100C50007040FFF745BC00BF9C0E0020A48900082F
:100C600008B5FFF7FDFD064B1A689B6992689B6803
:100C70009A4200D808BDBDE80840FFF7C1BF00BFD9
:100C80009C0E0020AFF30080AFF30080AFF3008034
:100C9000044B9B6993F823300BB1FFF7B1BFFFF70B
:100CA00087BF00BF9C0E0020AFF30080AFF3008031
:100CB0002DE9F007144C416465694561002200F19B
:100CC00030064FF0020A4FF014094FF0010800F10E
:100CD0004C0700F12C0C0461816080F820A0606159
:100CE00080F8239080F8228080F821200264C2637B
:100CF000426282612861C76146630663C0F82CC006
:100D0000BDE8F007704700BF9C0E0020AFF30080E5
:100D1000884203D200F8012B8842FBD1704700BF04
:100D20002DE9F04F044683B00D4617469846FFF76D
:100D30007FFD14B1B5F5AC7F38D21F48FFF7D8FD61
:100D40001E4E0C987369A5F16401214404F12C0234
:100D50000025E160019248644FF0020B4FF0140A45
:100D60004FF0010916480866C1F840806361A7602A
:100D70002661676484F820B0746184F8215025648A
:100D8000E5636562A56184F823A084F822901C6164
:100D9000019BE36204F1300204F14C0C20466263D3
:100DA0002263C4F81CC003B0BDE8F08F7F2FC4D805
:100DB000B8F1000FC4D1C0E7C08900089C0E002024
:100DC00001050008AFF30080AFF30080AFF30080AF
:100DD0002DE9F04F83B080460C9F894693469A4692
:100DE00000F14C050446FF2604F8016BA542FBD137
:100DF00008EB0904A54204D2552605F8016BA5426B
:100E0000FBD1202383F31188FFF762FC53465A4637
:100E1000494600974046FFF783FF00210446FFF74D
:100E20008FFEFFF76DFC002383F31188204603B08B
:100E3000BDE8F08FAFF30080AFF30080AFF3008028
:100E40007F2838B5044617D8202383F31188FFF78D
:100E50003FFC0B4B9B695D6C9A68954201D09442B4
:100E600000D99C605C64FFF7FBFEFFF749FC0023A0
:100E700083F31188284638BD0248FFF739FDE3E7C0
:100E80009C0E0020D4890008AFF30080AFF30080EF
:100E900010B52023044683F31188FFF719FC94F85A
:100EA0002030022B02D00748FFF722FD2046002108
:100EB000FFF746FEFFF724FC002383F3118820464A
:100EC00010BD00BFEC890008AFF30080AFF30080D5
:100ED00010B52023044683F31188FFF7F9FB94F83B
:100EE000213043F0040384F82130FFF709FC00238C
:100EF00083F3118810BD00BFAFF30080AFF3008013
:100F000010B5044610B90948FFF7F2FC202383F31B
:100F10001188FFF7DDFB21460620FFF7E9FDFFF70B
:100F2000EFFB002383F3118810BD00BF008A000887
:100F300010B52023044683F31188FFF7C9FB064B45
:100F4000D968611A02D00620FFF7D2FDFFF7D8FB5F
:100F5000002383F3118810BD8C0E0020AFF30080B6
:100F600008B5202383F31188FFF7B2FB074B1A68FB
:100F70009B6992689B689A4201D3FFF719FEFFF7BD
:100F8000BFFB002383F3118808BD00BF9C0E002027
:100F900038B5104B9C692546A06255F82C0FA84225
:100FA00006D00368E362FFF723FDE06AA842F8D1A8
:100FB00094F821309B0704D1636922691A61226980
:100FC00053610E20FFF76CFD0348BDE83840FFF782
:100FD0008FBC00BF9C0E0020108A0008AFF3008079
:100FE00010B52023044683F31188FFF771FB2046D8
:100FF000BDE81040FFF7CCBFAFF30080AFF3008037
:1010000038B5044648B3202383F31188154DFFF704
:101010005FFBAB69A3421CD094F82230ABB194F8CB
:1010200020300E2B06D0AB69E26A1A600720E3621B
:10103000FFF736FDA56AFFF763FB002383F31188F2
:10104000204600F03DF8284638BD0748FFF750FC21
:10105000E5E70648FFF74CFCDEE70548FFF748FCEC
:10106000D1E700BF9C0E0020448A0008348A0008A3
:10107000248A0008AFF30080AFF30080AFF3008054
:1010800010B52023044683F31188FFF721FB94F861
:101090002230FF2B09D0013384F82230FFF730FBD8
:1010A000002383F31188204610BD0348FFF720FC7E
:1010B00094F82230EFE700BF608A0008AFF30080A9
:1010C00038B50446202383F31188FFF701FB94F819
:1010D0002230BBB1013BDDB284F82250FFF710FB98
:1010E000002383F311881DB994F820300E2B00D013
:1010F00038BD94F8213003F00303012B08D0022BF4
:1011000010D038BD0D48FFF7F3FB94F82230E1E72B
:10111000636922691A61226920465361BDE838403B
:1011200001F05EBC636922691A612269A06C536197
:101130002146BDE8384001F033BD00BF748A000885
:101140002DE9F04182B090461F460D4601F008FCA3
:10115000044620B300F14C063146FF22FFF7D8FDCC
:10116000304661195522FFF7D3FD202383F3118800
:10117000FFF7AEFA089B0093424629463B462046BD
:10118000FFF7CEFD012380F8213000210446FFF750
:10119000D7FCFFF7B5FA002383F31188204602B08D
:1011A000BDE8F081AFF30080AFF30080AFF30080C3
:1011B0002DE9F043044683B088461746994670B33C
:1011C000204601F0BDFC054630B300F14C06314627
:1011D000FF22FFF79DFD6168304629445522FFF745
:1011E00097FD202383F31188FFF772FA6168CDF829
:1011F000009042463B462846FFF792FD022380F8C6
:101200002130846400210546FFF79AFCFFF778FA45
:10121000002383F31188284603B0BDE8F083024819
:10122000FFF766FBCCE700BF888A0008AFF30080B9
:1012300010B5202383F31188FFF74AFA064B1C6987
:1012400094F82230013384F82230FFF759FA002352
:1012500083F31188204610BD9C0E0020AFF3008060
:1012600038B50546202383F31188FFF731FA2C693E
:101270000D4B9C4216D094F82230FF2B0CD001333A
:1012800084F82230FFF73CFA002383F311882846C4
:10129000FFF716FF204638BD0448FFF729FB94F8F6
:1012A0002230ECE70024EDE79C0E0020D08A0008F5
:1012B00038B504460D4628B1002903DB646024607C
:1012C000A56038BD0348FFF713FB64602460A56088
:1012D00038BD00BFF08A0008AFF30080AFF3008094
:1012E00070B504460E46FFF7A3FAFCB1002E1DDBD5
:1012F000A5682368002D16DBA34203D00D48FFF735
:10130000F7FAA5680135002DA6600BDC6FF0010629
:101310006068436863601C60FFF76AFB0135012D5C
:101320008662F5D170BDA342ECD1E7E70248FFF732
:10133000DFFADDE7108B0008008B0008AFF30080B8
:1013400038B505460C46202383F31188FFF7C0F912
:1013500028462146FFF7C4FFFFF782FCFFF7D0F9CC
:10136000002383F3118838BDAFF30080AFF3008012
:1013700038B50446FFF774FA1CB3A3682268002B43
:101380000BDBA24203D01148FFF7B2FAA368013B7E
:10139000002BA36007DB002038BDA242F3D0013B45
:1013A000002BA360F7DA0A4DAB699C6262685A6051
:1013B0001C60032063601360FFF772FBAB69986ADF
:1013C00038BD0448FFF794FAD7E700BF348B000814
:1013D0009C0E0020248B0008AFF30080AFF3008048
:1013E00010B52023044683F31188FFF771F92046D6
:1013F000FFF7BEFF0446FFF783F9002383F311884C
:10140000204610BDAFF30080AFF30080AFF3008043
:1014100038B504460D46FFF723FA24B3A3682268C3
:10142000002B0BDBA24203D01348FFF761FAA3683D
:101430005A1E002AA26007DB002038BDA242F3D06A
:101440005A1E002AA260F7DA8DB10C4B9B699C6290
:1014500062685A601C602946636003201360BDE81F
:101460003840FFF745BB0648FFF742FAD6E7A360CE
:101470004FF0FF3038BD00BF608B00089C0E00208D
:10148000488B0008AFF30080AFF30080AFF300801B
:1014900038B505460C46202383F31188FFF718F969
:1014A00021462846FFF7B4FF0446FFF729F9002339
:1014B00083F31188204638BDAFF30080AFF300807E
:1014C00010B5044640B3A368002B236814DBA34285
:1014D00002D01348FFF70CFA202383F31188FFF79B
:1014E000F7F8A3680133002BA36008DDFFF708F9C4
:1014F000002383F3118810BDA342EDD1E9E72068F2
:101500000368236000215C60FFF71AFBFFF7F8F81F
:10151000002383F3118810BD0248FFF7E9F9D2E7F1
:10152000888B0008788B0008AFF30080AFF3008051
:1015300010B50446FFF77CF9FCB1A3682268002BC4
:101540000ADBA24203D00F48FFF7D2F9A3680133A8
:10155000002BA36006DD10BDA242F4D00133002BA6
:10156000A360F8DC23681A68226000215460996245
:101570001846BDE81040FFF73BBA0348FFF7B8F93B
:10158000DBE700BFB08B00089C8B0008AFF3008046
:1015900070B505460C46FFF74BF915B3002C20DD5E
:1015A000AB68002B2B6819DBAB4202D00F48FFF76A
:1015B0009FF9002C11DD002601E0013C0DD0AB6845
:1015C0000133002BAB60F8DC286803682B605D609A
:1015D000FFF70EFA013C8662F1D170BDAB42E8D153
:1015E000E4E70348FFF784F9DAE700BFDC8B000883
:1015F000C48B0008AFF30080AFF30080AFF300802E
:1016000038B505460C46002835D0002933D0AB68E4
:10161000002B2B6826DBAB4202D02448FFF768F989
:10162000A368002B236823DBA34202D02048FFF7E6
:101630005FF9202383F31188FFF74AF8AB68013381
:10164000002BAB6028DDA368013B002BA36016DBF9
:10165000FFF706FB0024FFF753F8002383F31188FC
:10166000204638BDAB42D8D0A368002B2368DBDA14
:10167000A342DED1DAE70F48FFF73AF9C7E70E4A8F
:101680006368956903202C606B6065601D60AC62C7
:10169000FFF706FAAC6ADEE7286803682B605D6036
:1016A000FFF7A6F900238362CDE700BF088C00088E
:1016B000208C0008F48B00089C0E0020AFF3008003
:1016C00010B5044620B1002364602460A36010BDFF
:1016D0000148FFF70DF9F6E7408C0008AFF30080F2
:1016E0003B4B70B505469C69FFF7BAF8002D6BD0EF
:1016F000A868002836D0A2688368934207D290F881
:1017000020308260042B46D0052B30D0FBB12B4615
:1017100003E09968A268914202D31B689D42F8D108
:101720005A686260236004205C601460A562FFF761
:10173000B7F9AB68A34202D02648FFF7D9F8236C6B
:10174000AB4213D02448BDE87040FFF7D1B890E811
:101750000C00012180F820101A6002685360FFF726
:1017600047F9D4E7236CEB60AC60256470BD90E86A
:101770000A001960866A01684B60334602E0996886
:101780008A4202D81B689E42F9D15A6842600360BF
:1017900058601060BBE790E80A001960866A01682B
:1017A0004B60334602E09968914202D31B689E4227
:1017B000F9D15A684260036058601060B068A2684E
:1017C000836893429BD3A2E70448FFF791F88FE721
:1017D0009C0E0020608C0008748C0008508C00085F
:1017E00010B52023044683F31188FEF771FF2046CD
:1017F000FFF776FFFEF784FF002383F3118810BD07
:1018000010B50446FFF72CF85CB1A3680BB10020BB
:1018100010BD064B9B69A3601A6CE26001201C643A
:1018200010BD0348FFF764F8EFE700BF9C0E0020EF
:10183000888C0008AFF30080AFF30080AFF3008026
:1018400010B52023044683F31188FEF741FF20469C
:10185000FFF7D6FF0446FEF753FF002383F31188FA
:10186000204610BDAFF30080AFF30080AFF30080DF
:101870001E4A70B52023956983F31188FEF728FF6F
:101880002C6C002C2DD0A368AB4203D01848FFF776
:101890002FF82C6C2668E3682B64A6421ED0696C76
:1018A0004BB11A689A4203D09268914238BF1146F0
:1018B000DB68002BF5D13368326CA96030462360B9
:1018C00000215C60A660E2603464FFF739F9FEF73E
:1018D00017FF002383F31188204670BD0023A36007
:1018E000F5E70448FFF704F82C6CCCE79C0E0020C9
:1018F000B08C00089C8C0008AFF30080AFF3008030
:101900001A4B70B59D69FEF7ABFF2C6C002C28D0EC
:10191000A368AB4203D01648FEF7EAFF2C6C26689A
:10192000E3682B64A64218D0696C4BB11A689A42DE
:1019300003D09268914238BF1146DB68002BF5D185
:101940003368326CA960304623605C60A660E26058
:101950003464FFF74DF8204670BD0023A360204695
:1019600070BD0448FEF7C4FF2C6CD1E79C0E00202C
:10197000D88C0008C48C0008AFF30080AFF300805F
:10198000154A70B52023946983F31188FEF7A0FEF1
:10199000236CD3B100260BE01168156C196010465A
:1019A0004B609A60DD601364FFF722F8236C43B14B
:1019B0001A68D96821649A42EED19E60236C002B8C
:1019C000F6D1636CA360FFF74BF9FEF799FE002395
:1019D00083F3118870BD00BF9C0E0020AFF3008020
:1019E00010B5044610B16460246010BD0248FEF7D3
:1019F0007FFF6460246010BDF08C0008AFF30080AE
:101A000010B5044698B1202383F31188FEF760FED9
:101A10002068A04205D00368236000215C60FFF7C6
:101A20008FF8FEF76DFE002383F3118810BD024886
:101A3000FEF75EFFE7E700BF008D0008AFF3008010
:101A400010B50446FEF7F4FE54B12068A04206D05B
:101A5000036823605C60FEF7CBFF0023836210BD48
:101A60000148FEF745FFF0E7148D0008AFF3008052
:101A700038B50446FEF7DCFE74B12068A0420AD0F7
:101A80006FF00105036823605C60FEF7B1FF8562BB
:101A90002068A042F6D138BD0148FEF729FFECE7E7
:101AA000288D0008AFF30080AFF30080AFF3008013
:101AB00010B52023044683F31188FEF709FE204663
:101AC000FFF7D6FFFFF7CCF8FEF71AFE002383F3EB
:101AD000118810BDAFF30080AFF30080AFF300803A
:101AE000154B70B505469C69FEF7BAFEE5B1236C4F
:101AF000F3B1FFF705FFA56206462B4603E09968A0
:101B0000A268914202D31B689D42F8D15A68626074
:101B1000236005205C601460FEF7C2FFA46A3046B3
:101B2000FFF7DEFD204670BD0448FEF7E1FEDEE76C
:101B30000348FEF7DDFEDCE79C0E0020408D000828
:101B4000508D0008AFF30080AFF30080AFF300804A
:101B500010B52023044683F31188FEF7B9FD204613
:101B6000FFF7BEFF0446FEF7CBFD002383F3118889
:101B7000204610BDAFF30080AFF30080AFF30080CC
:101B80002DE9F04106468846FEF76AFE36B3B8F105
:101B9000000F23D0154CA3691B6C1BB3FFF7B0FEDD
:101BA000A56907463346AE6203E09C68AA68944282
:101BB00002D31B689E42F8D15A686A602B60414686
:101BC0005D6005201560FEF793FF431C044602D0BC
:101BD0003846FFF785FD2046BDE8F0810448FEF752
:101BE00087FED7E70348FEF783FED7E79C0E002069
:101BF000648D00087C8D0008AFF30080AFF3008097
:101C000038B505460C46202383F31188FEF760FDA6
:101C100021462846FFF7B4FF0446FEF771FD002376
:101C200083F31188204638BDAFF30080AFF3008006
:101C3000F8B505460C461746A0B199B1202383F3A9
:101C40001188FEF745FD094A2B689269236000263A
:101C50002C606260A760E660FEF752FD334683F3B6
:101C60001188F8BD0248FEF743FEE7E79C0E00200E
:101C7000A08D0008AFF30080AFF30080AFF30080C9
:101C800038B504460D46D8B1D1B1202383F311886D
:101C9000FEF71EFD224602E09D4209D01A46136857
:101CA000A342F9D1FEF72CFD002383F3118838BD40
:101CB0002B681360FEF724FD002383F3118838BDE1
:101CC0000148FEF715FEE0E7B88D0008AFF300808D
:101CD00010B52023044683F31188FEF7F9FC074B67
:101CE0009B69D86B20EA0402DA630440FEF708FD22
:101CF000002383F31188204610BD00BF9C0E0020F6
:101D000010B52023044683F31188FEF7E1FC064B4F
:101D10009B69DA6B1443DC63FEF7F2FC002383F368
:101D20001188204610BD00BF9C0E0020AFF300803C
:101D300038B504460D46FEF77BFDC4B1E26B94F85E
:101D4000203045EA0201082BE1630CD0092B00D0BA
:101D500038BDA36A19408B42FAD12046FEF748FEEF
:101D60000023836238BDA36A1942F6D138BD024808
:101D7000FEF7BEFDE2E700BFCC8D0008AFF30080A8
:101D800070B505460E46FEF753FD65B12C68A542B9
:101D900008D0201D0BC83343E360FFF7C9FF246858
:101DA000A542F6D170BD0248FEF7A2FDEEE700BFE6
:101DB000E08D0008AFF30080AFF30080AFF3008048
:101DC00038B504460D4680B1202383F31188FEF711
:101DD0007FFC20462946FFF7ABFFFEF741FFFEF7E9
:101DE0008FFC002383F3118838BD0248FEF780FD85
:101DF000EAE700BFF88D0008AFF30080AFF3008082
:101E000038B505460C46202383F31188FEF760FCA5
:101E100028462146FFF7B4FFFEF722FFFEF770FCCD
:101E2000002383F3118838BDAFF30080AFF3008047
:101E30002DE9F84381460D46D8B195B100263446C8
:101E40004FF0010808FA04F72F4206D059F806307F
:101E50004BB1204625EA0705984701340436002D8A
:101E6000F0D1BDE8F8830548FEF742FD59F8063089
:101E7000EFE70348FEF73CFDDFE700BF1C8E0008DC
:101E8000088E0008AFF30080AFF30080AFF300804E
:101E900038B50F4B04469D69202383F31188FEF764
:101EA00017FCEB6B14EA030206D1AC620820FEF7C4
:101EB000F7FDEB6B04EA03025442144023EA0403E7
:101EC000EB63FEF71DFC002383F31188204638BD29
:101ED0009C0E0020AFF30080AFF30080AFF30080D2
:101EE0000E4B70B59D690446202383F31188FEF7DD
:101EF000EFFBEB6B14EA030606D1AC620820FEF799
:101F0000CFFDEB6B04EA030623EA0603EB63FEF75F
:101F1000F7FB002383F31188304670BD9C0E002030
:101F200038B50E4B04469D69202383F31188FEF7D4
:101F3000CFFBEB6B04EA0302A24204D0AC6209209F
:101F4000FEF7AEFDEB6B23EA0403EB63FEF7D8FB71
:101F5000002383F31188204638BD00BF9C0E00206B
:101F6000F8B5194B04469D690F46202383F3118869
:101F7000FEF7AEFBEA6B14EA02060AD1AFB1AC621F
:101F800039460820FEF7B4FD002815DBEA6B04EAA9
:101F9000020673421E4022EA0602EA63FEF7B0FB25
:101FA000002383F311883046F8BDFEF7A9FB3B46BA
:101FB00083F311883846F8BDFEF7A2FB334683F35E
:101FC00011883046F8BD00BF9C0E0020AFF30080A2
:101FD000F8B5184B04469D690F46202383F31188FA
:101FE000FEF776FBEA6B14EA02060AD19FB1AC62F7
:101FF00039460820FEF77CFD002813DBEA6B04EA73
:10200000020622EA0602EA63FEF77AFB002383F364
:1020100011883046F8BDFEF773FB3B4683F3118809
:102020003846F8BDFEF76CFB334683F31188304623
:10203000F8BD00BF9C0E0020AFF30080AFF300801E
:10204000174B70B59D6904460E46202383F3118813
:10205000FEF73EFBEA6B04EA0203A34208D08EB10E
:10206000AC6231460920FEF743FD002811DBEA6B24
:1020700022EA0402EA63FEF743FB002383F311889C
:10208000204670BDFEF73CFB334683F31188304693
:1020900070BDFEF735FB002383F31188184670BD31
:1020A0009C0E0020AFF30080AFF30080AFF3008000
:1020B000154B70B505460E469C6900B3202383F38B
:1020C0001188FEF705FB05F1300295F82010A26299
:1020D0006B6BA6630C2984E80C006C631C600AD04F
:1020E0000A20FEF7DDFCA46AFEF70AFB002383F357
:1020F0001188204670BD2846FEF77AFCF0E70348B9
:10210000FEF7F6FBDAE700BF9C0E0020308E0008D9
:1021100038B5202383F311880E4DFEF7D9FAAA694A
:10212000134653F8304F9C420CD0216811630B22A8
:102130004B6084F82020FEF7E3FA002383F3118834
:10214000204638BD0C20FEF7ABFCAA69146B02F1E7
:102150003003EAE79C0E0020AFF30080AFF300806D
:1021600038B504460D46202383F31188FEF7B0FAF4
:1021700094F820300B2B02D00648FEF7B9FB20461E
:102180002946FEF7DDFCFEF7BBFA002383F3118836
:1021900038BD00BF408E0008AFF30080AFF3008071
:1021A00070B504460D461646A0B199B1002A11DD5E
:1021B00005EB8603314604F11C00E560A56025604F
:1021C0006360FFF775F804F110000021BDE870406E
:1021D000FFF76EB80148FEF78BFBE9E7608E000859
:1021E00010B50446D8B1202383F31188FEF770FAA6
:1021F00023686168E360C91AA36004F11C008910B8
:10220000FFF76EF804F110000021FFF769F8FEF700
:1022100027FDFEF775FA002383F3118810BD0248ED
:10222000FEF766FBDFE700BF708E0008AFF30080AB
:1022300070B504460E461546FEF712FBC4B129469A
:1022400004F11C00FFF7E4F8054678B9A26861685C
:10225000131D8B42A36028BF2368166004F1100091
:1022600028BFA360FFF764F9FEF7FAFC284670BDAB
:102270000148FEF73DFBE2E7808E0008AFF30080E7
:1022800070B5202306460D46144683F31188FEF7E9
:102290001FFA224629463046FFF7CAFF0446FEF7DA
:1022A0002FFA002383F31188204670BDAFF300801E
:1022B00038B504460D46FEF7BBFAA4B1636A002B9D
:1022C00015DDA0686168021D013B8A42636228BF78
:1022D0002368A260056004F1100028BFA360FFF727
:1022E00027F9002038BD0348FEF702FBE6E74FF070
:1022F000FF3038BD908E0008AFF30080AFF3008050
:1023000070B504460E461546FEF7AAFACCB129462A
:1023100004F11C00FFF77CF8054660B9E368226809
:10232000043B9342E36008D31E6004F11000FFF702
:10233000FFF8FEF795FC284670BD6368043BE36038
:10234000F2E70248FEF7D4FAE1E700BFA08E0008EA
:1023500070B5202306460D46144683F31188FEF718
:10236000B7F9224629463046FFF7CAFF0446FEF772
:10237000C7F9002383F31188204670BDAFF30080B6
:1023800038B504460D46FEF753FAA4B1626A002A36
:1023900015DDE3682168043B013A8B426262E36029
:1023A00002D26368043BE36004F110001D60FFF794
:1023B000BFF8002038BD0348FEF79AFAE6E74FF071
:1023C000FF3038BDB48E0008AFF30080AFF300805B
:1023D00070B504460E461546FEF742FAD4B1CEB1AA
:1023E000294604F11000FFF713F8054680B9E368A9
:1023F0006268196804339342E36028BF2368316040
:1024000004F11C0028BFE360FFF792F8FEF728FCF8
:10241000284670BD0148FEF76BFAE1E7C88E000858
:1024200070B5202306460D46144683F31188FEF747
:102430004FF9224629463046FFF7CAFF0446FEF709
:102440005FF9002383F31188204670BDAFF300804D
:1024500038B504460D46FEF7EBF9B4B1ADB1A3694A
:10246000002B16DD5A1EE368A26162681968043306
:102470009342E36028BF2368296004F11C0028BF51
:10248000E360FFF755F8002038BD0348FEF730FA47
:10249000E5E74FF0FF3038BDD88E0008AFF300807D
:1024A00010B4024661B1094B9B69986244680D20E3
:1024B00083E81400536023605DF8044BFEF718BBFB
:1024C0004FF0FF305DF8044B704700BF9C0E0020BA
:1024D00030B4029C046200250A44856002614060B9
:1024E000006041618161C160C36130BC704700BF61
:1024F00038B50446FEF79CF92068E3686361002262
:10250000A042A260A3610AD06FF0010503682360B6
:102510005C60FEF76DFA85622068A042F6D138BD96
:1025200038B504460D46FEF783F9A2696369934204
:10253000A2681BD00132591CA26061611D706269E2
:1025400023699A420BD22068A0420DD00368236011
:102550005C60FEF74DFA00238362184638BD2068A0
:10256000E3686361A042F1D1002038BD002AE1D0C8
:102570006FF0030038BD00BFAFF30080AFF3008001
:10258000F8B504460E46202383F31188FEF7A0F821
:10259000E36933B12046984703E0FFF781FF071E48
:1025A00018DBA56820463146002DF6D0A2692169C6
:1025B000531C8B4205F1FF35A361A56028BFE3687A
:1025C000177828BFA361FEF79BF8002383F31188D7
:1025D0003846F8BDFEF794F82B4683F31188384649
:1025E000F8BD00BFAFF30080AFF30080AFF3008011
:1025F0002DE9F047044615460F461E46D0F81C80CC
:10260000002A3DD0202383F31188FEF761F807EB01
:10261000050A4FF000090137B8F1000F05D0204638
:10262000C04702E0FFF73CFF10BBA56820463146DB
:10263000002DF7D0A369013D5A1CA261A5601B784B
:1026400007F8013C2369A2699A4224BFE368A361A9
:10265000FEF756F8002383F31188574509F1010965
:102660000BD0202383F31188FEF732F80137D3E72C
:10267000FEF746F82B4683F311884846BDE8F087FD
:102680000148FEF735F9BDE7F08E0008AFF3008092
:1026900030B4029C04628D18056140600060826065
:1026A00041618161C160C36130BC7047AFF300809C
:1026B00038B50446FEF7BCF8E36822692068636118
:1026C000D21AA042A361A2600AD06FF0010503688C
:1026D00023605C60FEF78CF985622068A042F6D129
:1026E00038BD00BFAFF30080AFF30080AFF30080D0
:1026F0002DE9F041202304468846164683F31188CD
:10270000FDF7E6FF03E0FFF7CBFE071E1DDBA56824
:1027100020463146002DF6D06369013D5A1C6261A6
:10272000A56083F80080236962699A4224BFE36848
:102730006361E3690BB120469847FDF7E1FF002391
:1027400083F311881846BDE8F081FDF7D9FF2B46C9
:1027500083F311883846BDE8F08100BFAFF30080F5
:1027600038B50446FEF764F86269A3699A42A26824
:1027700016D02169501C5A1CA060A2618A421D78A3
:102780000BD22068A04206D0036823605C60FEF78D
:102790002FF900238362284638BDE368A361F0E780
:1027A000002AE6D06FF0020038BD00BFAFF3008012
:1027B0002DE9F84F044617460E469B46D0F81CA05C
:1027C000002A3AD0202383F31188FDF781FF4FF0D0
:1027D0000009A56806F1010820466A1EFDB163697B
:1027E000A2605A1C626132781A70236962699A4247
:1027F00024BFE3686361BAF1000F00D0D047FDF752
:102800007FFF002383F31188013F09F1010911D0F3
:10281000202383F31188FDF75BFF4646D9E7204666
:102820005946FFF73DFE0028D3D0FDF769FF2B4640
:1028300083F311884846BDE8F88F0248FEF758F840
:10284000C0E700BF048F0008AFF30080AFF3008043
:102850000548064A0649074B20F0070022F0070208
:1028600008601A60704700BFA71C002000C001204C
:10287000BC0E0020B80E0020AFF30080AFF3008044
:1028800010B50446FDF7D4FF074A084913680968E4
:10289000E01D20F00700C91A88429DBFC0181060D3
:1028A0001846002010BD00BFBC0E0020B80E00204E
:1028B00010B52023044683F31188FDF709FF204655
:1028C000FFF7DEFF0446FDF71BFF002383F31188AB
:1028D000204610BDAFF30080AFF30080AFF300805F
:1028E000024A034B10681B68C01A7047B80E0020DC
:1028F000BC0E0020AFF30080AFF30080AFF3008088
:10290000044B054A1A6003F1100000229A60DA6055
:10291000FEF7D6BEC00E0020B1280008AFF300803D
:1029200070B516464A070C46054601D1730702D01A
:102930000748FDF7DDFF0023083EAC602B60EB602D
:1029400084E8480005F11000BDE87040FEF7B8BE0D
:10295000208F0008AFF30080AFF30080AFF300805A
:10296000F8B51E4E002818BF0646073106F11000C4
:1029700021F0070506F10804FEF732FF03E05A686C
:10298000954211D91C462368002BF8D1FEF770FF41
:1029900033680BB305F108009847E8B1066045605D
:1029A00000F108042046F8BD05F10801914208D95C
:1029B0001A6822601C4644F8086BFEF759FF20464F
:1029C000F8BD6FF00700401B5F18024418685850AC
:1029D0007A6027605D60EDE70024E3E7C00E002029
:1029E000F8B50746002857D057F8086C06F11000D4
:1029F000FEF7F6FE08363446A7F10805AC4204D8C7
:102A00006368083323449D420BD3B4420ED0AC42DA
:102A10000CD32468AC42F8D86368083323449D4241
:102A2000F3D21F48FDF764FFB442F0D123681BB115
:102A30009D4201D31C46E1E757F8042C47F8083CB7
:102A4000256002F1080357F8080CE918814209D003
:102A5000636803F108022244954211D0BDE8F840B2
:102A6000FEF706BF4968EB5847F8083C531808338F
:102A700047F8043C636803F1080222449542EDD113
:102A800057F8041C57F8082C22600B440833636085
:102A9000BDE8F840FEF7ECBE0248FDF729FFA3E7CA
:102AA000408F0008308F0008AFF30080AFF3008044
:102AB00038B50E4C002818BF044604F110000D462E
:102AC000FEF78EFEA3686BB10022144658681B689F
:102AD00001340244002BF9D105B12A60FEF7C8FE8B
:102AE000204638BD1A461C46F6E700BFC00E00203F
:102AF00070B504460D46164608B1032902D80348AE
:102B0000FDF7F6FE002384E8680070BD608F0008C2
:102B100010B50446FDF78CFE4CB1206810B1036877
:102B2000236010BDA3680BB16068984710BD0248D0
:102B3000FDF7DEFEF1E700BF708F0008AFF3008005
:102B400010B52023044683F31188FDF7C1FD20460C
:102B5000FFF7DEFF0446FDF7D3FD002383F3118862
:102B6000204610BDAFF30080AFF30080AFF30080CC
:102B700038B504460D46FDF75BFE24B11DB1236850
:102B80002B60256038BD0348FDF7B2FE23682B603B
:102B9000256038BD848F0008AFF30080AFF300805C
:102BA00038B505460C46202383F31188FDF790FDC8
:102BB00028462146FFF7DCFFFDF7A2FD002383F343
:102BC000118838BDAFF30080AFF30080AFF3008011
:102BD00070B506460D46144628B142B90948BDE80D
:102BE0007040FDF785BE0748FDF782FE44B12946D7
:102BF0003046FFF7D5FF7368013C1D44F7D170BD27
:102C000070BD00BF948F0008AFF30080AFF3008069
:102C1000014B01221A7070471D180020AFF300808D
:102C200070B5084E4C243068064D03682D219B6812
:102C30009847013CF7D128680349036802221B68C2
:102C4000984770BD50180020D08F0008AFF3008067
:102C500070B584B018B30DF10105154E2B46A6FBD7
:102C60000012D20802EB8201A0EB41013031C9B25F
:102C700003F8011C1C4610460133002AEFD16B46B5
:102C80009C420AD90B4E02E014F8021C013C306849
:102C900003689B689847AC42F6D104B070BD054B01
:102CA0001868036830219B68984704B070BD00BF66
:102CB000CDCCCCCC50180020AFF30080AFF3008017
:102CC00038B5017849B1054D0446286803689B680A
:102CD000984714F8011F0029F7D138BD501800207B
:102CE00038B50178084D044639B1286803689B68F7
:102CF000984714F8011F0029F7D128680349036891
:102D000002221B68984738BD50180020D08F000859
:102D100010B52023044683F31188FDF7D9FC054B39
:102D20001A68147001321A60FDF7EAFC002383F37D
:102D3000118810BD20180020AFF30080AFF3008091
:102D400010B451B9074C0849084A01232370106098
:102D50000B7018465DF8044B7047002318465DF869
:102D6000044B70471C18002024180020181800205D
:102D7000F0B40E4E0E4F35683B4605E013F8014B9C
:102D800011F8012B944207D1AB42F7D30B781BB952
:102D900037601846F0BC7047064C0749074A0123C4
:102DA000237010600B701846F0BC7047201800208C
:102DB000541800201C180020241800201818002087
:102DC0000B4BDB68521A591A914210B40AD3094CC2
:102DD00009490A4A0123237010600B7018465DF8F8
:102DE000044B7047002318465DF8044B704700BF42
:102DF0008C0E00201C180020241800201818002019
:102E000038B5064C04F1140554F8043F18460BB1CC
:102E1000FEF75EF8AC42F7D138BD00BF381800208D
:102E200070B5074C002604F1140554F8043B18460D
:102E30001BB1FEF7E5F844F8046CAC42F5D170BD67
:102E40003C180020AFF30080AFF30080AFF30080A8
:102E5000124A134B30B494694FF47A7101FB00F0BD
:102E6000626A411EA3FB0151501C00EB91118A4282
:102E7000636A0DD29A4204D90023002BF7D130BCEB
:102E80007047994294BF00230123002BEFD1F6E74E
:102E90009A42F6D80123002BE9D1F0E79C0E0020DE
:102EA000D34D6210AFF30080AFF30080AFF300802A
:102EB00008B50120FEF724F8014BD86808BD00BF13
:102EC0008C0E0020AFF30080AFF30080AFF30080E2
:102ED00038B50F4B00241C700546202383F311885E
:102EE000FDF7F6FB4FF47A7101FB05F1094B0A4837
:102EF0000A4A0139A3FB0151890923460131FDF733
:102F00000FFDFDF7FDFB234683F3118838BD00BF9D
:102F10001D180020D34D621028180020112C000825
:102F20002DE9F04F9E4C9F4D206085B09E48FFF7E5
:102F3000D7FE9E48FFF7D4FE9D48FFF7D1FE2A2119
:102F4000206803689B68984715F8011F0029F7D18E
:102F50009848994DFFF7C4FE2A21206803689B68B2
:102F6000984715F8011F0029F7D19448944DFFF7B1
:102F7000B7FE2A21206803689B68984715F8011F4F
:102F80000029F7D18F48904DFFF7AAFE2A2120682B
:102F900003689B68984715F8011F0029F7D18B48F3
:102FA0008B4DFFF79DFE2A21206803689B68984798
:102FB00015F8011F0029F7D18648874DFFF790FECD
:102FC0002A21206803689B68984715F8011F00298B
:102FD000F7D18248824DFFF783FE2A2120680368DB
:102FE0009B68984715F8011F0029F7D17D487E4D51
:102FF000FFF776FE2A21206803689B68984715F83A
:10300000011F0029F7D1794A794801910392FFF70E
:1030100067FE6548DFF888B1764FFFF761FE764BB3
:10302000019902911970029B013302934FF000083D
:1030300057F8043B002B00F08680704DFFF7F0FD41
:103040002D21206803689B68984715F8011F002907
:10305000F7D102986A4DFFF7FBFDDBF8000003682B
:103060002E219B6808F1010898474046FFF7F0FDC4
:103070002021206803689B68984715F8011F0029E4
:10308000F7D157F8043C1D68297839B120680368E6
:103090009B68984715F8011F0029F7D159485A4DE8
:1030A0005A4EDFF89491FFF71BFEC820FDF728FF6A
:1030B000574A57F804ACC6F80090002313605360D9
:1030C0009360D3601361DAF804202B7002B190474B
:1030D000DAF80C309847DAF8083003B19847FFF770
:1030E0009FFE2B78002B4FD04A4D2D21206803687E
:1030F0009B68984715F8011F0029F7D1464B474DAB
:103100001868FFF7A5FD2021206803689B68984791
:1031100015F8011F0029F7D133684B450BD9404DF5
:10312000206815F8011C03689B68984733689D4226
:1031300005F10105F4D33B48FFF7D2FD57F8043BF6
:10314000002B7FF47AAF039A52F8047F0392002F8A
:103150007FF469AFFFF764FD334D1348FFF7C0FDFF
:103160004621206803689B68984715F8011F0029CD
:10317000F7D1214A13785BB92C48FFF7B1FD1E4BFC
:10318000187805B0BDE8F08F2948FFF7A9FD4FE793
:103190002848FFF7A5FD184B187805B0BDE8F08F5B
:1031A00050180020F48F0008EC990008D48F000814
:1031B000F08F000850900008589000086C900008AC
:1031C0008490000898900008E0900008F4900008AF
:1031D0000091000814910008209100083491000823
:1031E0004C9100086091000894910008F09100084B
:1031F000A891000860920008241800200890000898
:10320000D0910008248D00081C18002020180020F0
:103210003C1800201890000818180020D4910008CD
:103220005518002030900008D89100084090000800
:10323000349000084890000854180020AFF3008034
:10324000F0B5274F274EBB69274D9A68274B30684A
:10325000274C83B0053A00934FF4EC712B46FDF7F1
:10326000B7FDBB6923499A68736820600091043AEE
:1032700018464FF4EC712B46FDF7AAFDBA69B36806
:1032800092681D4960600091033A18464FF4EC7152
:103290002B46FDF79DFDBA69F36892681749A06057
:1032A0000091023A18464FF4EC712B46FDF790FD61
:1032B000BA69336992681249E060013A0091184690
:1032C0004FF4EC712B46FDF783FD2061FFF7A8FD5D
:1032D0000C49012003B0BDE8F040FFF749BD00BF35
:1032E0009C0E0020B08F0008113300089492000853
:1032F0003C18002080920008849200088892000800
:103300008C92000890920008AFF30080AFF3008029
:1033100008B50078FFF7FCFC002008BDAFF3008083
:10332000F0B52D4F2D4EBB692D4D9A682D4B706811
:103330002D4C83B0043A00934FF4EC712B46FDF70B
:1033400047FDBB6929499A68336860600091053A76
:1033500018464FF4EC712B46FDF73AFDBA69336914
:103360009268234920600091013A18464FF4EC71AD
:103370002B46FDF72DFDBA69F36892681D4920615F
:103380000091023A18464FF4EC712B46FDF720FDF0
:103390002023E06083F31188FDF79AF9BB69B068D8
:1033A0009A68154B0093033A2B464FF4EC71FDF7E6
:1033B000B7FCA060FDF7A4F9002383F31188A0688F
:1033C000FDF766FDFFF72CFD0C49012003B0BDE8B9
:1033D000F040FFF7CDBC00BF9C0E0020B08F00086E
:1033E00011330008809200083C18002094920008D5
:1033F0008C9200088892000884920008909200083D
:10340000F8B5534EB3699C68651C2846FDF718FD56
:10341000B0EB040CDCF10001074651EB0C0101207C
:10342000FFF78EFC00B1F8BDB3699968B5EB010EEA
:10343000DEF1000151EB0E010220FFF781FC0028B4
:10344000F1D13846FDF7FCFC281A414241410320E6
:10345000FFF776FC0028E6D1B36999680A1B514250
:103460004FF004005141FFF76BFC07460028DAD10A
:10347000202383F31188FDF72BF9B3699A68023290
:103480009A60FDF73DF93B4683F31188B36999686B
:10349000A71CCB1B594259410520FFF751FC0028BE
:1034A000C1D12846FDF7CCFCB0EB040CDCF10001E7
:1034B00051EB0C010620FFF743FC0028B3D1B369A0
:1034C0009968B7EB010EDEF1000151EB0E01072008
:1034D000FFF736FC0028A6D1B369596C6F1A794200
:1034E00079410820FFF72CFC00289CD1E71C3846C6
:1034F000FDF7A6FC281A414241410920FFF720FCB4
:10350000002890D1B36999687A1A514251410A2032
:10351000FFF716FC002886D1B369596C7B1A594213
:103520004FF00B005941FFF70BFC054600287FF4D4
:103530007AAF202383F31188FDF7CAF8B3699C6042
:103540005C64FDF7DDF82B4683F311886BE700BF61
:103550009C0E0020AFF30080AFF30080AFF300803B
:1035600038B51C4DFFF7A4FCEC686420FDF7C8FCDF
:1035700004F1640104F165020120FFF721FC00B1B0
:1035800038BDEC686420FDF7BBFC04F1640104F174
:1035900065020220FFF714FC0028F1D1EC684FF41B
:1035A0007A70FDF7ADFC04F57A7104F2E93203207C
:1035B000FFF706FC0028E3D1EC6804F16405284617
:1035C000FDF7B6FC294604F165020420BDE8384049
:1035D000FFF7F6BB8C0E0020AFF30080AFF3008046
:1035E0002DE9F043454E464FB369D7F800809A68FD
:1035F000DFF83091434B444D444C83B005324FF4D7
:10360000EC71CDF800904046FDF7E2FBB2697B68B3
:1036100092683F492860013218460091394B4FF4B7
:10362000EC71FDF7D5FBB269BB68926839496860F7
:10363000033218460091334B4FF4EC71FDF7C8FB91
:10364000B269FB6892683449A86004321846009158
:103650002C4B4FF4EC71FDF7BBFBB2693B699268F0
:103660002E49E860023218460091264B4FF4EC7167
:10367000FDF7AEFB28612046FDF722FF2046FDF74F
:103680001FFF2046FDF71CFF2046FDF719FF2046CF
:10369000FDF716FFFFF7C4FB01202149FFF768FB88
:1036A000074610B103B0BDE8F083B269154B9268CC
:1036B000CDF80090053240464FF4EC71FDF788FBE1
:1036C0002023286083F31188FDF702F820460221A9
:1036D000FDF75EFFFDF7C4FAFDF712F83B4683F3F2
:1036E0001188FFF79DFBA1684B1E59424FF0020065
:1036F000594103B0BDE8F043FFF722BB9C0E002008
:10370000B08F0008513700083C1800200008002046
:103710008892000884920008809200089492000821
:10372000909200088C920008AFF30080AFF3008005
:1037300010B5044C2046FDF753FE2046FDF7C0FEB1
:10374000002010BD00080020AFF30080AFF3008020
:1037500010B504460348FDF743FE2078FFF7D8FA7A
:10376000002010BD00080020AFF30080AFF3008000
:1037700001480021FDF79CBD00080020AFF3008048
:1037800001480021FDF794BD00080020AFF3008040
:1037900001480021FDF78CBD00080020AFF3008038
:1037A00008B53220FDF7ACFB202383F31188FCF72A
:1037B0008FFF0648FDF7BCFEFDF752FAFCF7A0FFAD
:1037C000002383F31188184608BD00BF00080020BD
:1037D00010B52023044683F31188FCF779FFA36812
:1037E000002B08DDFDF73CFAFCF78AFF002383F38A
:1037F0001188184610BD2046FDF79AFEF2E700BF7B
:1038000000B587B003A80021FDF752FD03A80021F1
:10381000FDF796FD05990029CCBF0021012101206B
:10382000FFF78EFA10B107B05DF804FB334B344A52
:103830009B6910689A68334B03A90091013A4FF4D1
:10384000EC71FDF7C5FA304B186003A8FDF7C8FD11
:1038500005990029CCBF002101210220FFF770FA51
:103860000028E0D1202383F31188FCF731FF059B6A
:10387000002B3ADDFDF7F4F9FCF742FF002383F358
:10388000118805999942D4BF002101210320FFF737
:1038900057FA0028C7D105994A1E514251410420C8
:1038A000FFF74EFA0028BED1202383F31188FCF7DE
:1038B0000FFF059B002B1CDDFDF7D2F9FCF720FF65
:1038C000002383F3118805999942D4BF0021012177
:1038D0000320FFF735FA0028A5D105994B1E594260
:1038E00059410520FFF72CFA9DE703A8FDF720FEBC
:1038F000C0E703A8FDF71CFEDEE700BF9C0E00201A
:10390000B08F0008D13700083C180020AFF30080CA
:1039100070B54B4C82B000212046FDF7B9FDB0F1E7
:10392000FF3EDEF1000151EB0E010120FFF708FA26
:1039300008B102B070BD21680E1B714271410220B6
:10394000FFF7FEF90028F4D1A168D1F1010138BFD9
:1039500000210320FFF7F4F90028EAD1394B3A4A55
:103960009B6911689A68394B0090013A08464FF4F8
:10397000EC71FDF72DFA364B4FF4FA7118602046C2
:10398000FDF786FD0546FFF74BFAD5F1010138BF7B
:1039900000210420FFF7D4F90028CAD121680D1BAB
:1039A000694269410520FFF7CBF90028C1D1A16820
:1039B000D1F1010138BF00210620FFF7C1F900282D
:1039C000B7D1FFF775FA234BDE6841252846FFF78C
:1039D0009FF94FF4FA711A48FDF75AFDB0F1FF3222
:1039E000514251410720FFF7ABF90028A1D12168CE
:1039F0000B1B594259410820FFF7A2F9002898D122
:103A0000A168D1F101014FF0090038BF0021FFF793
:103A100097F90135EDB200288BD1462DD6D10A2079
:103A20000D49FFF7A5F9002883D10B2006F6C41134
:103A300006F6C91202B0BDE87040FFF7C1B900BF79
:103A4000000800209C0E0020B08F0008A13700085D
:103A50003C1800208C0E002090920008AFF30080EC
:103A600010B5214B214A9B6910689A68204B214C64
:103A700082B00021013200914FF4EC71FDF7A8F9FA
:103A80001D4B214618602046FDF7BAFD21680A1B30
:103A9000514251410120FFF753F908B102B010BD66
:103AA000A168D1F1010138BF00210220FFF748F9D8
:103AB0000028F3D121462046FDF7A2FD21680B1B0B
:103AC000594259410320FFF73BF90028E6D1A1688C
:103AD000D1F101014FF0040038BF002102B0BDE870
:103AE0001040FFF72DB900BF9C0E0020B08F0008DA
:103AF00031370008000800203C180020AFF3008098
:103B0000F0B52A4F2A4EBB692A489C682A4D83B0DB
:103B1000FDF766FE294B0093621C4FF4EC71284BB5
:103B20003068FDF755F9736826492860A21C1846CD
:103B30000091234B4FF4EC71FDF74AF9B368224929
:103B40006860E21C184600911D4B4FF4EC71FDF7C4
:103B50003FF9F3681D49A860221D18460091184BD3
:103B60004FF4EC71FDF734F933691949E860621DCF
:103B700018460091124B4FF4EC71FDF729F92861BA
:103B8000FDF776FEFFF74CF9BB6999680B1B5942AC
:103B900059410120FFF7D4F808B103B0F0BD0D4939
:103BA000022003B0BDE8F040FFF7E2B89C0E002011
:103BB000B08F00080C0800203C18002094920008E8
:103BC000E13B000880920008849200088892000877
:103BD0008C92000890920008AFF30080AFF3008051
:103BE00010B504460448FDF7FBFD2078FFF790F878
:103BF000FDF73EFE002010BD0C080020AFF3008052
:103C000010B504460448FDF7EBFD2078FFF780F877
:103C1000FDF72EFE002010BD1C080020AFF3008031
:103C20000148FDF74DBD00BF0C080020AFF3008038
:103C30000148FDF745BD00BF0C080020AFF3008030
:103C400008B50448FDF73CFD0348BDE80840FDF712
:103C500037BD00BF0C0800201C080020AFF3008017
:103C600008B50448FDF72CFD0348BDE80840FDF702
:103C700027BD00BF0C0800201C080020AFF3008007
:103C80000148FDF71DBD00BF0C080020AFF3008008
:103C90002DE9F041204E214F214C82B0FFF708F969
:103CA000B36920499A68D1F80C801F4B3868002509
:103CB000013A4FF4EC710095FDF78AF8B2697B6820
:103CC00092682060023A18464FF4EC71174B009549
:103CD000FDF77EF8B269BB68926860604FF4EC71E2
:103CE000033A18460095124BFDF772F8A060FFF7F3
:103CF00097F801200F49FFF73BF810B102B0BDE87B
:103D0000F081022008F1640108F1690202B0BDE807
:103D1000F041FFF755B800BF9C0E0020B08F00089F
:103D20003C1800208C0E0020913E0008713E0008D7
:103D3000213E000810940008AFF30080AFF300802C
:103D40002DE9F0412C4E2D4F2D4C82B0FFF7B0F8ED
:103D5000B3692C499A68D1F80C802B4B3868002540
:103D6000053A4FF4EC710095FDF732F8B2697B68C3
:103D700092682060043A18464FF4EC71234B00958A
:103D8000FDF726F8B269BB6892686060033A18468E
:103D90004FF4EC711E4B0095FDF71AF8B269FB6801
:103DA0009268A060023A18464FF4EC71194B0095E6
:103DB000FDF70EF8B2693B699268E0604FF4EC7170
:103DC000013A18460095144BFDF702F82061FFF701
:103DD00027F801201149FEF7CBFF10B102B0BDE872
:103DE000F081022008F16E0108F1730202B0BDE813
:103DF000F041FEF7E5BF00BF9C0E0020B08F000829
:103E00003C1800208C0E0020513E0008413F000865
:103E1000113F0008F13E0008C13E000890920008E2
:103E200008B50848FDF7DCFC2820FFF711F8FDF77E
:103E30001FFD0A20FFF70CF84320FEF769FF002062
:103E400008BD00BF0C080020AFF30080AFF3008076
:103E500008B50648FDF7C4FC1E20FEF7F9FFFDF784
:103E600007FD4520FEF754FF002008BD0C08002088
:103E700008B51420FDF744F82820FEF7E9FF42209A
:103E8000FEF746FF002008BDAFF30080AFF30080CF
:103E900008B52820FDF734F80648FDF7A1FC0A20F4
:103EA000FEF7D6FFFDF7E4FC4120FEF731FF0020CE
:103EB00008BD00BF0C080020AFF30080AFF3008006
:103EC00008B53220FDF71CF80648FDF789FC0A20EA
:103ED000FEF7BEFFFDF7CCFC4120FEF719FF0020E6
:103EE00008BD00BF1C080020AFF30080AFF30080C6
:103EF00008B52820FDF704F81420FEF7A9FF42209A
:103F0000FEF706FF002008BDAFF30080AFF300808E
:103F100008B51420FCF7F4FF0648FDF761FC0A2001
:103F2000FEF796FFFDF7A4FC4320FEF7F1FE00200C
:103F300008BD00BF1C080020AFF30080AFF3008075
:103F400008B50A20FCF7DCFF0B48FDF749FC1420FC
:103F5000FEF77EFF0948FDF743FC0A20FEF778FFD5
:103F6000FDF786FC0A20FEF773FFFDF781FC442075
:103F7000FEF7CEFE002008BD1C0800200C08002023
:103F800008B59620FCF7BCFF0348FDF729FCFDF7B8
:103F90006FFC002008BD00BF0C080020AFF30080BC
:103FA00008B53220FCF7ACFF0348FDF719FCFDF71C
:103FB0005FFC002008BD00BF1C080020AFF300809C
:103FC0002DE9F0468D4D8E4EAB6932689C688D4B65
:103FD0008D4F85B004F10109039200934A464FF4D6
:103FE000EC718A4B0398FCF7F3FE7668884B3860D7
:103FF00004F1020A4FF4EC71524600933046854BAF
:10400000FCF7E6FE78608448FDF7EAFBAB69996847
:10401000B1EB040CDCF1000151EB0C010120FEF7C7
:104020008FFE10B105B0BDE8F0866420FCF768FF94
:10403000AB699968B1EB090EDEF1000151EB0E019D
:104040000220FEF77DFE0028ECD17448FDF7C8FB86
:10405000AB699968B1EB0902514251410320FEF767
:104060006FFE0028DED16420FCF74AFFAB69996837
:10407000B1EB0A03594259410420FEF761FE0028C2
:10408000D0D1FDF7F5FBAB699968B1EB090CDCF118
:10409000000151EB0C010520FEF752FE0028C1D1B2
:1040A0006420FCF72DFFAB699968B1EB090EDEF1D6
:1040B000000151EB0E010620FEF742FE0028B1D1AF
:1040C000FDF75EFCAB6999680A1B5142514107201C
:1040D000FEF736FE0028A5D1FEF7A2FE504B009356
:1040E0004FF4EC714A46494B0398FCF771FE4D4B77
:1040F00038604FF4EC7100935246464B3046FCF763
:1041000067FE78604448FDF76BFBAB6999680B1B51
:10411000594259410820FEF713FE002882D164203D
:10412000FCF7EEFEAB699968B1EB090CDCF100011C
:1041300051EB0C010920FEF703FE00287FF472AF5B
:104140003648FDF74DFBAB699968B1EB090EDEF11E
:10415000000151EB0E010A20FEF7F2FD00287FF46A
:1041600061AF6420FCF7CCFEAB699968B1EB0A073C
:1041700079424FF00B007941FEF7E2FD0646002838
:104180007FF450AF202383F31188FCF7A1FAFDF7E9
:10419000B7FBFCF765FDFCF7B3FA334683F31188F0
:1041A000AB699968B1EB0906714271410C20FEF7C9
:1041B000C7FD00287FF436AF6420FCF7A1FEAB6991
:1041C0009968B1EB0902514251410D20FEF7B8FD4B
:1041D00000287FF427AFFDF7D3FBAB6999680B1B71
:1041E000594259410E20FEF7ABFD00287FF41AAF6B
:1041F00005B0BDE8F046FEF713BE00BF9C0E0020E0
:10420000B08F0008889200083C180020A13F0008E9
:104210008C920008813F00081C0800200C08002038
:104220008092000884920008AFF30080AFF3008012
:10423000F8B52D4D2D4CAB6920469E68FDF700FB6F
:1042400001460120FEF77CFD00B1F8BD2046FDF7D8
:10425000F7FA80F00101C9B20220FEF771FD0746AE
:104260000028F2D1202383F31188FCF731FAFDF7FF
:1042700047FBFCF745FA3B4683F3118821680F1B87
:10428000794279410320FEF75BFD0028DDD1A1686A
:10429000D1F1010138BF00210420FEF751FD0028B3
:1042A000D3D1AB6999688A1B514251410520FEF771
:1042B00047FD0028C9D12046FDF792FAFDF760FBC3
:1042C00021680B1B594259410620FEF739FD002891
:1042D000BBD1A168D1F101014FF0070038BF002127
:1042E000BDE8F840FEF72CBD9C0E00200C08002015
:1042F000F0B5314B314F9B69314D9E68314B386879
:10430000314C83B0721C00934FF4EC712B46FCF7D8
:104310005FFD7B682D492060B21C009118464FF468
:10432000EC712B46FCF754FDBB6829496060F21C18
:10433000009118464FF4EC712B46FCF749FDFB68E1
:104340002449A060321D009118464FF4EC712B46B1
:10435000FCF73EFD3B692049E060721D0091184664
:104360004FF4EC712B46FCF733FD2023206183F3DF
:1043700011881A4CFCF7ACF92046FDF761FB20468A
:10438000FDF75EFB2046FDF75BFB2046FDF758FB83
:104390002046FDF755FBFCF763FCFCF7B1F9002361
:1043A00083F31188FEF73CFD0D49012003B0BDE801
:1043B000F040FEF7DDBC00BF9C0E0020B08F00086F
:1043C000F1430008949200083C18002080920008F5
:1043D00084920008889200088C9200082C08002023
:1043E00090920008AFF30080AFF30080AFF300803D
:1043F00010B504460648FDF7F3F90648FDF7A8FB9B
:104400002078FEF785FCFDF733FA002010BD00BFD1
:104410000C0800202C080020AFF30080AFF30080D0
:1044200008B50448FDF7DCFA0348BDE80840FDF78D
:1044300047B900BF2C0800200C080020AFF3008013
:1044400008B50448FDF7CCFA0348BDE80840FDF77D
:1044500037B900BF2C0800200C080020AFF3008003
:1044600008B50548FDF7BCFA0448FDF729F90448EA
:10447000BDE80840FDF724B92C0800200C080020F6
:104480001C080020AFF30080AFF30080AFF3008082
:10449000F0B5244B244F9B69244D9E68244B38680B
:1044A000244C83B0721C00934FF4EC712B46FCF744
:1044B0008FFC7B6820492060B21C009118464FF4A5
:1044C000EC712B46FCF784FCBB681C496060F21C55
:1044D000009118464FF4EC712B46FCF779FCFB6811
:1044E0001749A060321D009118464FF4EC712B461D
:1044F000FCF76EFC3B691349E060721D00911846A1
:104500004FF4EC712B46FCF763FC20610E48FDF77D
:10451000CFFAFEF785FC0D49012003B0BDE8F0405D
:10452000FEF726BC9C0E0020B08F0008F143000867
:10453000949200083C1800208092000884920008A1
:10454000889200088C9200082C08002090920008A5
:10455000F0B51B4B1B4E9B6930689D681A4B1B4C7A
:104560001B4F83B06A1C00934FF4EC71194BFCF79E
:104570002FFC736818492060AA1C009118464FF45C
:10458000EC71164BFCF724FCB168154B6060EA1C1B
:1045900000930846134B4FF4EC71FCF719FCA06034
:1045A0003846FDF72DFA3846FDF72AFAFEF738FCB3
:1045B0000D49012003B0BDE8F040FEF7D9BB00BFB4
:1045C0009C0E0020B08F00088C9200083C18002040
:1045D0002C080020F145000884920008F1430008EF
:1045E00088920008013C000810940008AFF3008096
:1045F00010B504460948FDF7F3F80948FDF7F0F84F
:104600004FF0FF310748FDF7FBFA2078FEF780FBFB
:10461000FDF72EF9FDF72CF9002010BD1C08002035
:104620000C0800202C080020AFF30080AFF30080BE
:1046300010B5184A184B916918688A68174B82B0F0
:10464000013200914FF4EC71FCF7C2FB144B18607F
:10465000FDF75EFD846B2146FDF782FDE0B2FEF7BB
:1046600057FBFDF755FD846B2146FDF779FDE0B260
:10467000FEF74EFBFDF74CFD846B2146FDF770FD08
:10468000E0B2FEF745FB0749012002B0BDE810404B
:10469000FEF76EBB9C0E0020B08F0008B1460008EC
:1046A0003C18002010940008AFF30080AFF30080A6
:1046B00010B541210446FDF7FBFC20464221FDF7E1
:1046C000F7FC20464321FDF7F3FC002010BD00BF9E
:1046D000F0B54B4E716AB1F1050EDEF1000183B009
:1046E00051EB0E010120FEF72BFB00BB4224444D91
:1046F000214628464FF0FF32FDF7C2FDD0F10101FF
:1047000038BF002102200134FEF71AFB78B9462C8D
:10471000EDD1412128464FF0FF32FDF719FED0F1CF
:10472000010138BF00210320FEF70AFB08B103B0E6
:10473000F0BD582101222846FDF7A2FDB0F1FF3758
:10474000794279410420FEF7FBFA04460028EED1B5
:10475000202383F31188FBF7BBFF58212846FDF780
:10476000A7FD0746FBF7CCFF234683F31188B7F17B
:10477000FF34614261410520FEF7E2FA0028D6D1FC
:10478000582101222846FDF7E3FDB0F1FF304142F8
:1047900041410620FEF7D4FA04460028C7D1202361
:1047A00083F31188FBF794FF58212846FDF7E8FDB5
:1047B0000746FBF7A5FF234683F31188B7F1FF32C5
:1047C00051424FF007005141FEF7BAFA0746002860
:1047D000ADD1202383F31188FBF77AFF696AD1F109
:1047E00001014FF0080038BF0021FEF7A9FA044686
:1047F00040B1FBF785FF3B4683F3118897E700BF85
:1048000034080020FBF77CFF234683F31188202324
:1048100083F31188FBF75CFFA9694B1F59424FF0E6
:1048200009005941FEF78CFA0746002840F0AF8294
:10483000FBF766FF3B4683F31188202383F311883F
:10484000FBF746FFE968AB68B1EB030CDCF1000154
:1048500051EB0C010A20FEF773FA002840F0918218
:10486000FBF74EFF002383F311880525B84C01A9FF
:1048700020464FF0FF32FDF7D3FDD0F1010138BFE4
:1048800000210B20FEF75CFA00287FF450AF9DF862
:104890000400FEF73DFA013DE8D10C20AD49FEF7DA
:1048A00067FA00287FF443AF472120464FF0FF32DC
:1048B000FDF7E6FCD0F1010138BF00210D20FEF725
:1048C0003FFA00287FF433AF01A920464FF0FF32B2
:1048D000FDF7A6FDD0F1010138BF00210E20FEF743
:1048E0002FFA00287FF423AF2168A368B1EB030EF1
:1048F000DEF1000151EB0E010F20FEF721FA002836
:104900007FF415AF2168E368CF1A7942794110200E
:10491000FEF716FA00287FF40AAF01A9204601220B
:10492000FDF77EFDB0F1FF30414241411120FEF71D
:1049300007FA00287FF4FBAE202383F31188FBF7EE
:10494000C7FE01A92046FDF783FD0746FBF7D8FE09
:104950002B4683F31188B7F1FF32514251411220A7
:10496000FEF7EEF900287FF4E2AE202383F31188EE
:10497000FBF7AEFE616A4B1F594259411320FEF707
:10498000DFF9002840F0FD81FBF7BAFE002383F336
:104990001188202383F31188FBF79AFEB1696C4CD0
:1049A000D1F1010138BF00211420FEF7C9F90546F5
:1049B000002840F0E681FBF7A3FE2B4683F3118825
:1049C000202383F31188FBF783FEE168A368B1EB32
:1049D000030CDCF100014FF0150051EB0C01FEF768
:1049E000AFF90646002840F0AC80FBF789FE33465D
:1049F00083F31188202383F31188FBF769FE41219B
:104A00002046FDF755FCD0F1010138BF00211620EA
:104A1000FEF796F900287FF48AAE42212046FDF782
:104A200047FCD0F1010138BF00211720FEF788F9BB
:104A300000287FF47CAE43212046FDF739FCD0F1FD
:104A4000010138BF00211820FEF77AF900287FF411
:104A50006EAE44212046FDF72BFCD0F1010138BF9A
:104A600000211920FEF76CF9054600287FF45FAE9F
:104A700045212046FDF71CFC0646FBF741FE2B4670
:104A800083F31188D6F1010138BF00211A20FEF707
:104A900057F900287FF44BAEE168A368B1EB030E31
:104AA000DEF1000151EB0E011B20FEF749F9002851
:104AB0007FF43DAE0525202383F31188244CFBF7BA
:104AC00007FE01A92046FDF7C3FC0646FBF718FECA
:104AD000002383F31188F71A794279411C20FEF7ED
:104AE0002FF900287FF423AE9DF80400FEF710F99B
:104AF000013DE0D11D201749FEF73AF900287FF467
:104B000016AE202383F31188FBF7E2FD616A4E1F86
:104B1000714271411E20FEF713F990B9FBF7F0FDC9
:104B20002B4683F31188202383F31188FBF7D0FDF4
:104B3000A169D1F1010138BF00211F20FEF700F962
:104B400050B1FBF7DDFD2B4683F31188EFE500BF85
:104B50003408002090920008FBF7D2FD2B4683F327
:104B60001188E168A368CD1A694269412020FEF7E7
:104B7000E7F800287FF4DBAD202383F31188FBF7EF
:104B8000A7FD45212046FDF7FBFBD0F1010138BF11
:104B900000212120FEF7D4F800287FF4C8AD44217D
:104BA0002046FDF7EDFBD0F1010138BF00212220A6
:104BB000FEF7C6F800287FF4BAAD43212046FDF782
:104BC000DFFBD0F1010138BF00212320FEF7B8F848
:104BD00000287FF4ACAD42212046FDF7D1FBD0F197
:104BE000010138BF00212420FEF7AAF800287FF435
:104BF0009EAD6A4C41212046FDF7C2FB0546FBF7FE
:104C00007FFD002383F31188EA1A51425141252088
:104C1000FEF796F800287FF48AADE168A368CB1A06
:104C2000594259412620FEF78BF800287FF47FADCA
:104C30000524202383F31188584DFBF749FD01A972
:104C40002846FDF705FC0646FBF75AFD002383F3D3
:104C50001188B6EB030CDCF1000151EB0C012720AD
:104C6000FEF76EF800287FF462AD9DF80400FEF7B1
:104C70004FF8013CDDD128204949FEF779F800289A
:104C80007FF455AD202383F31188FBF721FD696A7A
:104C9000B1F1050EDEF1000151EB0E012920FEF706
:104CA0004FF8002873D1FBF72BFD234683F31188BF
:104CB000202383F31188FBF70BFDA969D1F10101D2
:104CC00038BF00212A20FEF73BF800285FD1FBF710
:104CD00017FD234683F31188E968AB68CF1A794240
:104CE00079412B20FEF72CF800287FF420AD2846D0
:104CF000FDF776FA202383F31188FBF7E9FC696A54
:104D00004E1F714271412C20FEF71AF800283ED147
:104D1000FBF7F6FC234683F31188202383F31188E5
:104D2000FBF7D6FCA969D1F1010138BF00212D2084
:104D3000FEF706F858BBFBF7E3FC234683F3118824
:104D4000202383F31188FBF7C3FC2968AB68CA1AD8
:104D5000514251412E20FDF7F3FFC0B9FBF7D0FCC3
:104D6000234683F31188202383F31188FBF7B0FCDB
:104D70002968EB68CB1A59424FF02F005941FDF7D3
:104D8000DFFFFBF7BDFC002383F31188CFE4FBF7C3
:104D9000B7FC234683F31188C9E400BF3408002020
:104DA00090920008AFF30080AFF30080AFF3008073
:104DB000024803490522FDF7F3B900BF340800207B
:104DC000E00E0020AFF30080AFF30080AFF300806F
:104DD00010B51D4C88B02046694601222460FCF7BE
:104DE00027FF204604A90222FCF722FF2168091BA5
:104DF00018BF01210120FDF7A3FF08B108B010BDC5
:104E000069462046FCF73CFF2168091B18BF0121B9
:104E10000220FDF795FF0028F0D104A92046FCF7F9
:104E20002FFF21680B1B594259410320FDF788FFD2
:104E30000028E3D105480721FCF7FAFF04490420C4
:104E4000FDF796FFDAE700BF5C08002070960008C7
:104E500010940008AFF30080AFF30080AFF3008040
:104E60004320FDF755BF00BFAFF30080AFF30080D4
:104E70004220FDF74DBF00BFAFF30080AFF30080CD
:104E80004120FDF745BF00BFAFF30080AFF30080C6
:104E90004FF0FF30FCF71CBFAFF30080AFF3008092
:104EA0004FF0FF30FCF714BFAFF30080AFF300808A
:104EB0004FF0FF30FCF70CBFAFF30080AFF3008082
:104EC0002DE9F04205208CB0FCF71AFF4FF0FF30BF
:104ED000FCF7DEFFB0F10109D9F1000151EB090146
:104EE0000120FDF72DFF10B10CB0BDE8F0824FF0AE
:104EF000FF30FCF7CDFFB0F1040CDCF1000151EB09
:104F00000C010220FDF71CFF0028EDD14FF0FF300F
:104F1000FCF7DEFED0F1010138BF00210320FDF7D0
:104F20000FFF0028E0D1734D734F744EFDF7C0FFA3
:104F3000AB6973499A6809680093013A039108467E
:104F4000704BFC684FF4EC71FBF742FF30604FF0A0
:104F5000FF30FCF79DFF04F13201814604F1370276
:104F60000420FDF72DFF0028BED1B9F1010EDEF1BE
:104F7000000151EB0E010520FDF7E2FE0028B3D140
:104F80004FF0FF30FCF7A4FED0F1010138BF002143
:104F90000620FDF7D5FE0028A6D1FDF741FF05202C
:104FA000FCF7AEFE4FF0FF30FCF79AFF441F614262
:104FB00061410720FDF7C4FE002895D14FF0FF3076
:104FC000FCF786FED0F1010138BF00210820FDF773
:104FD000B7FE002888D1FDF76BFFA969494B8A68A5
:104FE00003980091013A4FF4EC71FC68FBF7F0FE76
:104FF00030604FF0FF30FCF773FF04F1320181465F
:1050000004F137020920FDF7DBFE00287FF46CAFC6
:10501000B9F10100414241410A20FDF791FE00280B
:105020007FF462AF4FF0FF30FCF752FED0F1010188
:1050300038BF00210B20FDF783FE00287FF454AF1A
:10504000DFF8D090304CFDF7EBFE484604A9012272
:10505000C9F800902460FCF7EBFD08A90422204663
:10506000FCF7E6FDFDF724FFAB6928499A68039831
:105070000091013A4FF4EC71254BFD68FBF7A8FE57
:1050800030600520FCF74CFF05F1320105F13702D5
:105090000C20FDF795FE00287FF426AF4FF0FF307F
:1050A000FCF716FED0F1010138BF00210D20FDF7FD
:1050B00047FE00287FF418AFFDF7B2FE484604A96A
:1050C000FCF7DEFD204608A9FCF7DAFDD9F8001050
:1050D000B1EB0902514251410E20FDF731FE00288B
:1050E0007FF402AF21680B1B594259410F20FDF795
:1050F00027FEF9E69C0E00208C0E00203C180020B4
:10510000B08F000851510008600800208C92000800
:10511000215100085C080020AFF30080AFF300804D
:1051200008B500210548FCF76BFE3220FBF7E8FECE
:1051300003480021FCF764FE002008BD5C08002045
:1051400060080020AFF30080AFF30080AFF3008071
:1051500010B504463220FBF7D3FE20460121FCF7B0
:105160002FFE002010BD00BFAFF30080AFF3008022
:1051700008B500214FF0FF30FCF7F2FED0F101013D
:1051800038BF00210120FDF7DBFD00B108BD01465D
:105190004FF0FF30FCF71CFFD0F1010138BF0021B8
:1051A0000220FDF7CDFD0028F0D101464FF0FF3081
:1051B000FCF746FFD0F1010138BF00210320FDF7C5
:1051C000BFFD0028E2D10A214FF0FF30FCF7C8FEF6
:1051D000D0F1010138BF00210420FDF7B1FD002806
:1051E000D4D10A214FF0FF30FCF7F2FED0F10101DB
:1051F00038BF00210520FDF7A3FD0028C6D10A21F4
:105200004FF0FF30FCF71CFFD0F1010138BF002147
:105210000620BDE80840FDF793BD00BFAFF3008056
:1052200070B582B0FDF75CFB01A90020FDF740FCE2
:1052300010210020FDF794FB011C044618BF01213A
:105240000120FDF77DFD054608B102B070BD204686
:10525000FDF7C6FB6FF0FF012846FDF781FBD0F19B
:10526000010138BF00210220FDF76AFD0028ECD1C2
:1052700001A97B48FDF71CFC10217948FDF770FB64
:10528000102105467648FDF76BFB10210446744853
:10529000FDF766FB06462846FDF7A2FB2046FDF714
:1052A0009FFB3046FDF79CFB69466D48FDF700FC0F
:1052B000421E514251410320FDF742FD0028C4D156
:1052C00010216748FDF74CFB102104466448FDF7A8
:1052D00047FB102105466248FDF742FBFDF780FBC6
:1052E0002846FDF77DFB2046FDF77AFB69465C48C2
:1052F000FDF7DEFB431E594259410420FDF720FD16
:105300000028A2D111215648FDF72AFB102104469E
:105310005348FDF725FB05462046FDF761FB69462E
:105320004F48FDF7C5FBB0F1020CDCF1000151EB79
:105330000C010520FDF704FD002886D11021484806
:10534000FDF70EFB694604464548FDF7B1FB012811
:1053500000F0838069464248FDF7AAFBB0F1020ED7
:10536000DEF1000151EB0E010620FDF7E9FC0028FB
:105370007FF46BAF2846FDF733FB2046FDF730FB8B
:1053800069463748FDF794FB461E7142714107207C
:10539000FDF7D6FC00287FF458AF10213048FDF708
:1053A000DFFA102105462E48FDF7DAFA04462846B2
:1053B000FDF716FB69462A48FDF77AFB851E694210
:1053C00069410820FDF7BCFC00287FF43EAF202196
:1053D0002348FDF7C5FAFDF703FB2046FDF700FB68
:1053E00069461F48FDF764FB0138414241410920ED
:1053F000FDF7A6FC00287FF428AF69461848FDF7A2
:1054000057FB00991648FDF7ABFA69460446144865
:10541000FDF74EFBD0F1010138BF00210A20FDF756
:105420008FFC00287FF411AF2046FDF7D9FA6946BA
:105430000B48FDF73DFB421E514251410B20FDF749
:105440007FFC00287FF401AF9DE80A00CB1A594287
:1054500059410C20FDF774FCF7E6014684E700BFD4
:1054600068180020AFF30080AFF30080AFF3008036
:105470000248034940F63812FDF752BA6818002076
:10548000E00E0020AFF30080AFF30080AFF30080A8
:1054900000207047AFF30080AFF30080AFF30080CF
:1054A00002484FF4EC710022FDF722BB6408002093
:1054B00038B52C4B2C481D6805222946FDF788FB82
:1054C00005242948FDF73CFB011C18BF01210120E0
:1054D000FDF736FCA0BB013CF3D12348FDF730FBC0
:1054E000D0F1010138BF00210220FDF729FC38BBB3
:1054F0001C4C1D48294604F11005FDF751FBAC4238
:1055000006D054F8041F1848FDF74AFBAC42F8D106
:1055100005241548FDF714FB011C18BF01210320C9
:10552000FDF70EFC60B9013CF3D10F48FDF708FB15
:10553000D0F1010138BF00210420FDF701FC00B1CA
:1055400038BD10210848094AFDF7D2FA0648FDF790
:10555000F7FAD0F1010138BF00210520BDE838403D
:10556000FDF7EEBBB08F00086408002091540008DE
:1055700070B5334B33489B69334C9D6884B003A9A5
:10558000FDF796FA314B00936A1E314B2D484FF4CC
:10559000EC71FBF7D5FD2F4B2060AA1E00934FF452
:1055A000EC712B4B2748FBF7CBFD02A96060254827
:1055B000FDF77EFA02992348FDF7D2F9264B0093B6
:1055C0004FF4EC710646EA1E214B1E48FBF7B8FD6E
:1055D000A0603046FDF704FA216821B1616811B17D
:1055E000A16819B300210120FDF7AAFB08B104B09E
:1055F00070BDFDF715FC02201849FDF7B9FB002826
:10560000F5D102A90F48FDF753FA421E514251410C
:105610000320FDF795FB0028E9D10299039BCB1AE3
:10562000594259410420FDF78BFBE0E7E368002B6A
:10563000D9D12169D1F1010138BF0021D3E700BFE1
:105640009C0E0020981800203C1800208C92000826
:10565000615600088892000884920008509700085C
:1056600008B50078FDF754FB002008BDAFF30080BB
:105670000248034940F63812FDF752B99818002045
:10568000E00E0020AFF30080AFF30080AFF30080A6
:105690000248034940F63812FDF742B99818002035
:1056A000E00E0020AFF30080AFF30080AFF3008086
:1056B000324B9B6970B5324C9D6804F1100654F86A
:1056C000041F3048FDF76CFAB442F8D12E4A2F4B34
:1056D0002C482F4C691EFBF76BFDA91E20602A4A3F
:1056E0002C4B2848FBF764FDE91E6060264A2A4BD4
:1056F0002448FBF75DFD291FA060234A274B214862
:10570000FBF756FD691FE0601F4A1E48244BFBF75C
:105710004FFD2168206149B1616839B1A16829B1A3
:10572000E16819B1D0F1010138BF00210120FDF776
:1057300007FB00B170BDFDF773FB02201949FDF7AF
:1057400017FB0028F6D104240E48FDF7F9F9011CD7
:1057500018BF01210320FDF7F3FA0028EAD1013C2C
:10576000F2D10848FDF7ECF9D0F1010138BF002172
:105770000420BDE87040FDF7E3BA00BF9C0E002096
:10578000AC8F000888180020615600088C92000831
:105790003C1800208892000884920008809200083B
:1057A0009492000854970008AFF30080AFF3008094
:1057B00002484FF4EC710022FDF79AB988180020D6
:1057C00038B50546FBF734FD002403461846AB42C6
:1057D00008BF44F00104FBF743FD03460028F5D160
:1057E000204638BDAFF30080AFF30080AFF30080F8
:1057F00010B54C4B4C499B694C489A684C4B82B055
:10580000013A00914FF4EC71FBF79AFC0446012039
:1058100094F82210B1EB000CDCF1000151EB0C010B
:10582000FDF78EFA08B102B010BD2046FBF728FC48
:1058300094F822100220B1EB000EDEF1000151EBD2
:105840000E01FDF77DFA0028EDD12046FBF738FC6C
:1058500094F822104A1E514251410320FDF770FA7C
:105860000028E0D12046FFF7ABFF01460420FDF7FA
:1058700067FA0028D7D12046FFF7A2FF014605208E
:10588000FDF75EFA0028CED12046FBF719FC94F80C
:105890002210D1F1010138BF00210620FDF750FA96
:1058A0000028C0D194F82010D1F1010138BF0021A7
:1058B0000720FDF745FA0028B5D12046FFF780FF05
:1058C00001460820FDF73CFA0028ACD12046FFF73E
:1058D00077FF01460920FDF733FA0028A3D13220D3
:1058E000FBF70EFB94F82010B1F10E035942594119
:1058F0000A20FDF725FA002895D12046FFF760FF22
:1059000001460B20FDF71CFA00288CD12046FFF73A
:1059100057FF80F00101C9B20C2002B0BDE8104071
:10592000FDF70EBA9C0E00208C92000898180020FB
:1059300061560008AFF30080AFF30080AFF3008042
:10594000704700BFAFF30080AFF30080AFF300807B
:1059500008B5C8210248FCF713FE002008BD00BFAF
:1059600094080020AFF30080AFF30080AFF3008015
:1059700000B5064B06481968064B83B0002200921A
:105980000422FCF7A5FD03B05DF804FBB08F00080E
:105990009408002041590008AFF30080AFF3008065
:1059A00008B50021C8220248FCF7A2FE002008BD6D
:1059B00070080020AFF30080AFF30080AFF30080E9
:1059C00000B5064B06481968064B83B000220092CA
:1059D0000422FCF75DFE03B05DF804FBB08F000805
:1059E0007008002041590008AFF30080AFF3008039
:1059F000F0B5202383B083F31188FAF769FEBA4B20
:105A00009968D1F101014FF0010038BF0021FDF785
:105A100097F90646002840F04E81FAF771FE3346AA
:105A200083F31188202383F31188FAF751FE412470
:105A3000AD4D214601342846E4B2FCF771FD452CFA
:105A4000F6D1FAF75DFE002383F31188202383F358
:105A50001188FAF73DFE6A69AB699A4200F0398114
:105A600031460220FDF76CF90446002840F02381FE
:105A7000FAF746FE234683F31188202383F3118827
:105A8000FAF726FE21469848FCF74AFD043014BF79
:105A9000002101210320FDF753F90546002840F0BD
:105AA0001181FAF72DFE2B4683F3118804248E4DC5
:105AB0004FF0FF312846FCF763FDC0B2FDF728F92F
:105AC000013CF4D1202383F31188FAF701FEA96881
:105AD000D1F1010138BF00210420FDF731F9002880
