:020000040800F2
:100000000004002001120008011300080113000879
:100010000113000801130008011300080113000870
:100020000113000801130008011300084113000820
:100030000113000801130008011300082113000830
:100040000113000801130008011300080113000840
:100050000113000801130008011300080113000830
:10006000011300080113000801130008C13400083F
:10007000013500084135000881350008C135000808
:100080000136000841360008F13D00080113000860
:1000900001130008011300080113000801130008F0
:1000A00001130008011300080113000801130008E0
:1000B00061480008114C00080113000801130008F2
:1000C00001130008011300080113000801130008C0
:1000D0000113000801130008415100080113000832
:1000E00001130008011300080113000801130008A0
:1000F00001130008011300080113000881360008ED
:1001000001130008011300088148000801130008CA
:10011000011300080113000801130008011300086F
:10012000C136000801370008413700088137000850
:10013000C13700080113000801130008011300086B
:10014000011300080113000801130008011300083F
:100150000138000841380008813800080113000800
:10016000011300080113000801130008011300081F
:10017000011300080113000801130008011300080F
:1001800001130008011300080113000801130008FF
:1001900001130008011300080113000801130008EF
:0C01A000011300080113000801130008FF
:1001B0007BB972B90029BEBF00204FF0004106E0B4
:1001C00008BF00281CBF6FF000414FF0FF3000F067
:1001D00057B882B0EC462DE9005000F021F8DDF868
:1001E00004E002B00CBC70470000000000000000FA
:1001F00053B94AB9002908BF00281CBF4FF0FF318E
:100200004FF0FF3000F03CB882B0EC462DE90050D2
:1002100000F01EF8DDF804E002B00CBC704700BF2F
:100220002DE9F041069C154606460F46984600F01B
:100230002FF805FB01F300FB0838A5FB0023B21AD9
:10024000434467EB0303C4E90023BDE8F08100BF2A
:100250002DE9F041069C904606460F461D4600F0EB
:1002600067F900FB05F5A0FB082308FB0155B21A4E
:100270002B4467EB0303C4E90023BDE8F08100BF12
:10028000704700BF000000000000000000000000F8
:1002900000292DE9F043C0F2A6800026002BC0F211
:1002A0009C80884694469E46154604460F46002B81
:1002B0003DD18A4259D9B2FA82F33BB1C3F120024F
:1002C0009F4020FA02F29D4017439C40290C220CCB
:1002D000B7FBF1FEA8B201FB1E7742EA074700FB1D
:1002E0000EF3BB420AD97F190EF1FF3280F005816F
:1002F000BB4240F20281AEF1020E2F44FF1AA4B2BB
:10030000B7FBF1F301FB137744EA074700FB03F067
:10031000B84208D97F1903F1FF3280F0F080B8426B
:1003200040F2ED80023B43EA0E43002203E08B42A1
:100330000FD900221346341C18BF012460424FF02D
:10034000000565EB45015840514000196941BDE881
:10035000F083B3FA83F2002A40F086808B4202D306
:10036000844500F2DB800123E5E712B90123B3FBEA
:10037000F2F5B5FA85F000283BD1781B4FEA154E0F
:100380001FFA85FC0122B0FBFEF8210C0EFB1807BA
:1003900041EA07470CFB08F3BB4207D97F1908F174
:1003A000FF3102D2BB4200F2BD808846FF1AA4B2E0
:1003B000B7FBFEF30EFB137744EA07470CFB03FC85
:1003C000BC4507D97F1903F1FF3102D2BC4500F2C9
:1003D000A7800B4643EA0843ADE752426FEA0606A0
:1003E00063EB43035DE7404261EB41014FF0FF36B1
:1003F00054E7C0F1200224FA02F107FA00F3854025
:100400004FEA154ED7401943B7FBFEF20B0C0EFB1B
:1004100012771FFA85FC43EA07430CFB02F79F4261
:1004200004FA00F407D95B1902F1FF3074D29F423D
:1004300072D9023A2B44DF1B89B2B7FBFEF80EFBE0
:10044000187341EA03430CFB08F79F4208D95B1974
:1004500008F1FF315CD29F425AD9A8F102082B441F
:10046000D81B48EA02428EE7C2F120032CFA03F1BE
:100470000EFA02FE20FA03F741EA0E0E08FA02F025
:1004800028FA03F14FEA1E453843B1FBF5F8030C97
:1004900005FB18111FFA8EF743EA014107FB08F329
:1004A0008B420CFA02FC09D911EB0E0108F1FF395D
:1004B00030D28B422ED9A8F102087144C91A80B2F9
:1004C000B1FBF5F305FB131140EA014107FB03F70C
:1004D0008F4208D911EB0E0103F1FF3016D28F4283
:1004E00014D9023B714443EA0843C91BA3FB0C899E
:1004F000494509D305D000221DE79646FEE613467E
:1005000011E794404445F6D2013BF4E70346EAE79D
:100510008846A5E7C846D1E702468CE713460AE7B6
:10052000023B57E7A8F102082F443FE70000000014
:100530002DE9F041002B44D18A42154604464FD99B
:10054000B2FA82F70E464FB1C7F12003B94020FA44
:1005500003F602FA07F50E4300FA07F44FEA154EC8
:10056000230CB6FBFEF0AFB20EFB106143EA014371
:1005700007FB00F1994209D95B1900F1FF3280F0C5
:10058000EC80994240F2E98002382B445A1AA4B216
:10059000B2FBFEF30EFB132244EA024207FB03F711
:1005A000974208D9521903F1FF3180F0D880974261
:1005B00040F2D580023B43EA004000263146BDE8C8
:1005C000F0818B4247D8B3FA83F6002E48D18B4294
:1005D00002D3824200F2CD8001203146BDE8F08195
:1005E00012B90125B5FBF2F5B5FA85F8B8F1000F9F
:1005F00077D14A1B4FEA154EAFB20126B2FBFEF08F
:10060000230C0EFB102143EA014107FB00F38B4250
:1006100007D9491900F1FF3202D28B4200F2BA80A9
:100620001046C91AA4B2B1FBFEF30EFB131144EA43
:10063000014407FB03F7A74208D9641903F1FF320D
:1006400080F08F80A74240F28C80023B43EA00405A
:100650003146BDE8F081002630463146BDE8F081E4
:10066000C6F1200422FA04F5B3402B4320FA04FC1F
:1006700001FA06F721FA04F54FEA134E4CEA070790
:10068000B5FBFEF8390C0EFB18551FFA83FC41EA46
:1006900005450CFB08F1A94202FA06F204D9ED184F
:1006A00008F1FF3467D3A0466D1ABFB2B5FBFEF464
:1006B0000EFB145547EA05410CFB04FC8C4504D99C
:1006C000C91804F1FF355CD32C4644EA0844CCEB4E
:1006D0000101A4FB0223994248D344D020460026BE
:1006E0006CE7C8F1200401FA08F305FA08F520FACE
:1006F00004F7E1404FEA154E1F43B1FBFEF63A0CFA
:100700000EFB16111FFA85FC42EA01430CFB06F2B0
:100710009A4200FA08F407D95B1906F1FF3137D283
:100720009A4235D9023E2B449B1ABFB2B3FBFEF06E
:100730000EFB103347EA03430CFB00F1994207D943
:100740005B1900F1FF3221D299421FD902382B44A4
:100750005A1A40EA0646674650E7104616E70B4627
:1007600029E7134672E7B0409042B7D2601E0026D8
:1007700024E7304622E7A94295D9A8F102081D4492
:1007800092E78C45A0D9023C19449EE71046DFE76A
:100790000E46C9E70238294443E700BF00000000C5
:1007A000844641EA000313F003036DD1403A41D37C
:1007B00051F8043B40F8043B51F8043B40F8043B3B
:1007C00051F8043B40F8043B51F8043B40F8043B2B
:1007D00051F8043B40F8043B51F8043B40F8043B1B
:1007E00051F8043B40F8043B51F8043B40F8043B0B
:1007F00051F8043B40F8043B51F8043B40F8043BFB
:1008000051F8043B40F8043B51F8043B40F8043BEA
:1008100051F8043B40F8043B51F8043B40F8043BDA
:1008200051F8043B40F8043B51F8043B40F8043BCA
:10083000403ABDD2303211D351F8043B40F8043B6A
:1008400051F8043B40F8043B51F8043B40F8043BAA
:1008500051F8043B40F8043B103AEDD20C3205D37A
:1008600051F8043B40F8043B043AF9D2043208D072
:10087000D2071CBF11F8013B00F8013B01D30B88E4
:1008800003806046704700BF082A13D38B078DD0C2
:1008900010F003038AD0C3F10403D21ADB071CBF94
:1008A00011F8013B00F8013B80D331F8023B20F8FE
:1008B000023B7BE7043AD9D3013A11F8013B00F837
:1008C000013BF9D20B7803704B7843708B788370BF
:1008D00060467047000000000000000000000000BB
:1008E00081F0004102E000BF83F0004330B54FEAE1
:1008F00041044FEA430594EA050F08BF90EA020F4E
:100900001FBF54EA000C55EA020C7FEA645C7FEAE0
:10091000655C00F0E2804FEA5454D4EB5555B8BF03
:100920006D420CDD2C4480EA020281EA030382EA74
:10093000000083EA010180EA020281EA0303362D06
:1009400088BF30BD11F0004F4FEA01314FF4801CD9
:100950004CEA113102D0404261EB410113F0004FEB
:100960004FEA03334CEA133302D0524263EB4303A2
:1009700094EA050F00F0A780A4F10104D5F1200E40
:100980000DDB02FA0EFC22FA05F2801841F100019B
:1009900003FA0EF2801843FA05F359410EE0A5F16F
:1009A00020050EF1200E012A03FA0EFC28BF4CF0A0
:1009B000020C43FA05F3C01851EBE37101F0004556
:1009C00007D54FF0000EDCF1000C7EEB00006EEB63
:1009D0000101B1F5801F1BD3B1F5001F0CD34908ED
:1009E0005FEA30004FEA3C0C04F101044FEA445244
:1009F00012F5800F80F09A80BCF1004F08BF5FEACB
:100A0000500C50F1000041EB045141EA050130BDAA
:100A10005FEA4C0C404141EB010111F4801FA4F14D
:100A20000104E9D191F0000F04BF01460020B1FAA2
:100A300081F308BF2033A3F10B03B3F120020CDADA
:100A40000C3208DD02F1140CC2F10C0201FA0CF0B8
:100A500021FA02F10CE002F11402D8BFC2F1200C1D
:100A600001FA02F120FA0CFCDCBF41EA0C019040D3
:100A7000E41AA2BF01EB0451294330BD6FEA04041C
:100A80001F3C1CDA0C340EDC04F11404C4F1200207
:100A900020FA04F001FA02F340EA030021FA04F319
:100AA00045EA030130BDC4F10C04C4F1200220FA70
:100AB00002F001FA04F340EA0300294630BD21FAAE
:100AC00004F0294630BD94F0000F83F4801306BF74
:100AD00081F480110134013D4EE77FEA645C18BF68
:100AE0007FEA655C29D094EA050F08BF90EA020FFF
:100AF00005D054EA000C04BF1946104630BD91EAF7
:100B0000030F1EBF0021002030BD5FEA545C05D1F9
:100B10004000494128BF41F0004130BD14F5800438
:100B20003CBF01F5801130BD01F0004545F0FE41AC
:100B300041F470014FF0000030BD7FEA645C1ABFE1
:100B4000194610467FEA655C1CBF0B46024650EA18
:100B5000013406BF52EA033591EA030F41F4002144
:100B600030BD00BF90F0000F04BF0021704730B5CA
:100B70004FF4806404F132044FF000054FF000019F
:100B800050E700BF90F0000F04BF0021704730B560
:100B90004FF4806404F1320410F0004548BF404235
:100BA0004FF000013EE700BF42004FEAE2014FEA8A
:100BB00031014FEA02701FBF12F07F4393F07F4F65
:100BC00081F06051704792F0000F14BF93F07F4F97
:100BD000704730B54FF4607401F0004521F00041DA
:100BE00020E700BF50EA010208BF704730B54FF060
:100BF00000050AE050EA010208BF704730B511F065
:100C0000004502D5404261EB41014FF4806404F19C
:100C100032045FEA915C3FF4DCAE4FF003025FEA1E
:100C2000DC0C18BF03325FEADC0C18BF033202EBA6
:100C3000DC02C2F1200300FA03FC20FA02F001FA00
:100C400003FE40EA0E0021FA02F11444C1E600BF9F
:100C500070B54FF0FF0C4CF4E06C1CEA11541DBF52
:100C60001CEA135594EA0C0F95EA0C0F00F0DEF81D
:100C70002C4481EA030621EA4C5123EA4C5350EA02
:100C8000013518BF52EA033541F4801143F4801353
:100C900038D0A0FB02CE4FF00005E1FB02E506F0E4
:100CA0000042E0FB03E54FF00006E1FB03569CF039
:100CB000000F18BF4EF0010EA4F1FF04B6F5007F3F
:100CC00064F5407404D25FEA4E0E6D4146EB0606B1
:100CD00042EAC62141EA55514FEAC52040EA5E503A
:100CE0004FEACE2EB4F1FD0C88BFBCF5E06F1ED8E4
:100CF000BEF1004F08BF5FEA500E50F1000041EB1B
:100D0000045170BD06F0004646EA010140EA0200C7
:100D100081EA0301B4EB5C04C2BFD4EB0C0541EAE9
:100D2000045170BD41F480114FF0000E013C00F3FE
:100D3000AB8014F1360FDEBF002001F0004170BD22
:100D4000C4F10004203C35DA0C341BDC04F114043B
:100D5000C4F1200500FA05F320FA04F001FA05F2C7
:100D600040EA020001F0004221F0004110EBD37094
:100D700021FA04F642EB06015EEA430E08BF20EAC0
:100D8000D37070BDC4F10C04C4F1200500FA04F363
:100D900020FA05F001FA04F240EA020001F00041F5
:100DA00010EBD37041F100015EEA430E08BF20EA68
:100DB000D37070BDC4F1200500FA05F24EEA020EB0
:100DC00020FA04F301FA05F243EA020321FA04F0DF
:100DD00001F0004121FA04F220EA020000EBD37096
:100DE0005EEA430E08BF20EAD37070BD94F0000F96
:100DF0000FD101F00046400041EB010111F4801FCA
:100E000008BF013CF7D041EA060195F0000F18BF7A
:100E1000704703F00046520043EB030313F4801FB6
:100E200008BF013DF7D043EA0603704794EA0C0F70
:100E30000CEA135518BF95EA0C0F0CD050EA410686
:100E400018BF52EA4306D1D181EA030101F0004103
:100E50004FF0000070BD50EA410606BF104619462B
:100E600052EA430619D094EA0C0F02D150EA013637
:100E700013D195EA0C0F05D152EA03361CBF104678
:100E800019460AD181EA030101F0004141F0FE4117
:100E900041F470014FF0000070BD41F0FE4141F49B
:100EA000780170BD70B54FF0FF0C4CF4E06C1CEA9B
:100EB00011541DBF1CEA135594EA0C0F95EA0C0F50
:100EC00000F0A7F8A4EB050481EA030E52EA03350B
:100ED0004FEA013100F088804FEA03334FF080552C
:100EE00045EA131343EA12634FEA022245EA111559
:100EF00045EA10654FEA00260EF000419D4208BF0A
:100F0000964244F1FD0404F5407402D25B084FEAB6
:100F10003202B61A65EB03055B084FEA32024FF462
:100F200080104FF4002CB6EB020E75EB030E22BFBF
:100F3000B61A754640EA0C005B084FEA3202B6EB7F
:100F4000020E75EB030E22BFB61A754640EA5C002E
:100F50005B084FEA3202B6EB020E75EB030E22BFBE
:100F6000B61A754640EA9C005B084FEA3202B6EBBF
:100F7000020E75EB030E22BFB61A754640EADC007E
:100F800055EA060E18D04FEA051545EA16754FEAE0
:100F900006164FEAC30343EA52734FEAC2025FEAFE
:100FA0001C1CC0D111F4801F0BD141EA00014FF08D
:100FB00000004FF0004CB6E711F4801F04BF01435E
:100FC0000020B4F1FD0C88BFBCF5E06F3FF6AFAE7A
:100FD000B5EB030C04BFB6EB020C5FEA500C50F10A
:100FE000000041EB045170BD0EF0004E4EEA11318D
:100FF00014EB5C04C2BFD4EB0C0541EA045170BD94
:1010000041F480114FF0000E013C90E645EA060ED7
:101010008DE60CEA135594EA0C0F08BF95EA0C0F05
:101020003FF43BAF94EA0C0F0AD150EA01347FF44D
:1010300034AF95EA0C0F7FF425AF104619462CE724
:1010400095EA0C0F06D152EA03353FF4FDAE104687
:10105000194622E750EA410618BF52EA43067FF4D8
:10106000C5AE50EA41047FF40DAF52EA43057FF468
:10107000EBAE12E7000000000000000000000000DE
:101080004FF0FF3C06E000BF4FF0010C02E000BF54
:101090004FF0010C4DF804CD4FEA410C7FEA6C5C37
:1010A0004FEA430C18BF7FEA6C5C1BD001B050EADA
:1010B000410C0CBF52EA430C91EA030F02BF90EAC5
:1010C000020F0020704710F1000F91EA030F58BF84
:1010D000994208BF90422CBFD8176FEAE37040F0E6
:1010E000010070474FEA410C7FEA6C5C02D150EA84
:1010F000013C07D14FEA430C7FEA6C5CD6D152EA3F
:10110000033CD3D05DF8040B704700BF8446104603
:1011100062468C461946634600E000BF01B5FFF702
:10112000B7FF002848BF10F1000F01BD4DF808EDD2
:10113000FFF7F4FF0CBF012000205DF808FB00BFA3
:101140004DF808EDFFF7EAFF34BF012000205DF8FD
:1011500008FB00BF4DF808EDFFF7E0FF94BF01204A
:1011600000205DF808FB00BF4DF808EDFFF7CEFF4B
:1011700094BF012000205DF808FB00BF4DF808ED8A
:10118000FFF7C4FF34BF012000205DF808FB00BF5B
:101190004FEA410212F5001215D211D56FF478739F
:1011A000B3EB625212D94FEAC12343F0004343EA42
:1011B000505311F0004F23FA02F018BF404270471D
:1011C0004FF00000704750EA013005D111F00040A7
:1011D00008BF6FF0004070474FF00000704700BF3D
:1011E000704700BFAFF30080AFF30080AFF3008023
:1011F000FEE700BFAFF30080AFF30080AFF30080E5
:1012000072B62C4C84F309882B4B4FF040421A6085
:101210002A4A2A4B1B6843F4700313600024E1EE52
:10122000104A274B1C60062484F31488BFF36F8F89
:10123000244C254D04E023461C1D4FF055321A6006
:10124000AC42F8D3214C1B4D04E023461C1D4FF04B
:1012500055321A60AC42F8D303F0BAFF1C4D1D4C56
:1012600005E023461C1D2A46151D12681A601A4BFC
:101270009C42F6D3194C1A4D03E023461C1D002254
:101280001A60AC42F9D3FFF7ABFF164C02E02368BB
:1012900098470434144B9C42F9D30FF0B9F8134C1F
:1012A00002E0236898470434114B9C42F9D3FFF7BE
:1012B0009FFF00BF0008002034EF00E088ED00E051
:1012C0003CEF00E0000000200004002000040020AB
:1012D000701E060800080020CC100020CC10002052
:1012E000F4440020AC010008AC010008AC01000887
:1012F000AC010008AFF30080AFF30080AFF30080D3
:10130000FEE700BFAFF30080AFF30080AFF30080D3
:1013100072B6FEE7AFF30080AFF30080AFF300805A
:1013200008B500F03DF800F083F900F041F800F056
:1013300047F808BDAFF30080AFF30080AFF3008043
:1013400000B583B0094A094B5B6823F00103536081
:10135000EFF309830193019B68330193019B83F3AE
:10136000098800F025F803B05DF804FB30EF00E0D9
:1013700008B5094B00229A60074B084ADA6007203B
:10138000102100F0DDF80A20202100F0D9F80B2010
:10139000802100F0D5F808BD00ED00E00003FA055B
:1013A000202383F311887047AFF30080AFF30080F0
:1013B000002383F311887047AFF30080AFF3008000
:1013C00000B583B0FFF7ECFF224B5B6803F40063CA
:1013D000002B3AD0F1EE10FAEFF309830193019B51
:1013E000683B0193019B4FF08072DA611A4BDB6816
:1013F0001A46019B1A66019B83F30988174B9B6968
:1014000093F82330002B0BD0144B1B689A68134BB6
:101410009B699B689A428CBF01230023DBB20AE0E0
:101420000E4B1B689A680D4B9B699B689A422CBFB8
:1014300001230023DBB2002B03D0019B084A9A61F1
:1014400005E0019B074A9A6101E0FFF7B1FF03B095
:101450005DF804FB00ED00E030EF00E0A016002096
:101460007114000874140008AFF30080AFF300801B
:1014700000F05EFC00DF00BFAFF30080AFF3008040
:1014800003460A462DE9F04F2DED108AC2F80CD024
:10149000D3F80CD0BDEC108ABDE8F08FAFF300801C
:1014A00000B5FFF785FF2846A04700F051FD5DF825
:1014B00004FB00BFAFF30080AFF30080AFF3008008
:1014C00010B485B001900091019B03F00303DB0091
:1014D0000393194C019B9B081749019A9208C0324B
:1014E00051F822200399FF2000FA01F1C94311406D
:1014F000039A009800FA02F20A43C03344F823200A
:101500000D49019B5B09019A02F01F02012000FABC
:1015100002F2603341F823200749019B5B09019ADD
:1015200002F01F02012000FA02F241F8232005B068
:101530005DF8044B704700BF00E100E0AFF30080AE
:1015400010B485B001900091019B03F00303DB0010
:1015500003930D4C019B9B080B49019A920806329C
:1015600051F822200399FF2000FA01F1C9431140EC
:10157000039A009800FA02F20A43063344F8232043
:1015800005B05DF8044B704700ED00E0AFF300805C
:1015900082B00190024B9B69024A9A61FEE700BF4C
:1015A000A016002090420108AFF30080AFF3008046
:1015B00000B583B0FFF7DCFE00F0F2F900F050F95F
:1015C00001F016FA01F064FA00F082F811484021A7
:1015D00000F0BEFB0246104B9A610F4B9B69012243
:1015E00083F820200C4B9B690C4ADA61002383F3BB
:1015F000118862B6084B9B69094A9A6100230093DF
:1016000008484FF4B4710122074B00F041FC03B0CD
:101610005DF804FB38120020A01600200004002012
:10162000704F0108D010002091150008AFF3008022
:1016300000B583B0214B9B6993F82330002B07D072
:101640001E4B9B6993F82320013AD2B283F82320E2
:101650001A4B9B695A6A01325A62194BDB68013393
:10166000174AD360164B1B68154A934223D0144B7C
:101670001B689A68013A9A6016E0019BDB68009348
:10168000019B0022DA60019B1B680D4A5A60019B96
:101690001B680B4A1360FFF78BFE019B1A69009BC6
:1016A00010469847FFF77CFE054B1B680193019B92
:1016B0009B68002BE1D003B05DF804FBA01600206E
:1016C00090160020AFF30080AFF30080AFF30080EE
:1016D000034B40221A60024B024A5A60704700BF17
:1016E000841200208C120020AFF30080AFF3008042
:1016F00082B00190114B5B68114AD2681A600F4B9F
:101700005B68104A92695A600C4B5B68019A926A56
:101710009A600A4B5B68019A92F820201A73074B73
:101720005B681033054A5360044B5B68064A93427A
:1017300002D3024B054A5A6002B07047841200205F
:1017400090160020A01600208C1600208C1200207D
:1017500000B583B00190044A019B1360FFF7D8FDE8
:1017600003B05DF804FB00BF8C160020AFF30080CF
:1017700084B001900091009B0393039B1B6803932B
:10178000039A009B9A4205D0039B9A68019B9B6831
:101790009A42F2D2019B039A1A60039B5A68019BFA
:1017A0005A60019B5B68039A01995160039A5268E1
:1017B0001A6004B0704700BFAFF30080AFF3008041
:1017C00082B001900091019B009A1A60009B5A68B8
:1017D000019B5A60019B5B68009A01995160009AD5
:1017E00052681A6002B07047AFF30080AFF3008018
:1017F00084B00190019B1B680393039B1A68019BB3
:101800001A60019B1B68019A5A60039B184604B03A
:10181000704700BFAFF30080AFF30080AFF30080EC
:1018200082B00190019B5B68019A12681A60019B6B
:101830001B68019A52685A60019B184602B07047B3
:1018400084B00190019B1B680393039B1A68019B62
:101850001A60039B184604B0704700BFAFF30080C6
:10186000074B074A5A60064B5B68054A1360044BF6
:101870004FF0FF329A60024B0022DA60704700BFDF
:1018800090160020AFF30080AFF30080AFF300802C
:1018900000B587B00390029101920093039B002B47
:1018A00005D0019B002B02D0029B002B02D11D48CA
:1018B000FFF74EFF039B009A1A61039B019ADA60BF
:1018C000194B1B68059307E0059B9B68029AD31A86
:1018D0000293059B1B680593059B9A68029B9A429D
:1018E000F2D3039B059A1A60039B1B685A68039BFB
:1018F0005A60039B5B68059A03995160059A526888
:101900001A60039B029A9A60059B074A934205D08E
:10191000059B9A68029BD21A059B9A6007B05DF8F6
:1019200004FB00BFA042010890160020AFF3008026
:1019300000B583B00190019B002B02D11348FFF743
:1019400007FF019BDB68002B02D11148FFF700FF66
:10195000019B1B680F4A934208D0019B1B68019AA8
:1019600012689168019A92680A449A60019B5B68C8
:10197000019A12681A60019B1B68019A52685A60AA
:10198000019B0022DA6003B05DF804FBB04201085D
:10199000C042010890160020AFF30080AFF3008032
:1019A000084B084A5A60074B5B68064A1360054BB0
:1019B00000229A60034B034A5A61024B5B69014A59
:1019C00013617047A0160020AFF30080AFF30080D2
:1019D00000B585B00190019B93F82030002B04D016
:1019E000019B93F820300E2B02D11348FFF7B0FE75
:1019F000019B002283F82020104B0393039B1B685C
:101A00000393039B9A68019B9B689A42F6D2019BC1
:101A1000039A1A60039B5A68019B5A60019B5B689A
:101A2000039A01995160039A52681A60019B184603
:101A300005B05DF804FB00BFE0420108A0160020DD
:101A400000B585B003468DF80730164B9B690393AC
:101A5000039B9DF8072083F82020039B142283F822
:101A600023201048FFF7C4FE02460E4B9A610D4B2F
:101A70009B69012283F820200398FFF739FE6B460B
:101A8000A3F16402039BDB699A4202D20648FFF786
:101A90005FFE044B9B6918460399FFF7F1FC05B004
:101AA0005DF804FBA0160020F4420108AFF30080AB
:101AB00000B585B00190019B0393FFF771FC039B78
:101AC00093F820300D2B2AD801A252F823F000BF42
:101AD000091B00081F1B00081F1B00080F1B000824
:101AE0001F1B0008191B00081F1B00081F1B0008F4
:101AF0001F1B00081F1B00081F1B00081F1B0008DE
:101B00001F1B0008191B0008FFF752FC10E0039B85
:101B10009B6A9A6801329A600398FFF781FE039BE3
:101B20004FF0FF329A620398FFF752FFFFF740FC35
:101B300005B05DF804FB00BFAFF30080AFF3008099
:101B400000B589B0034600918DF80730009BB3F1D2
:101B5000FF3F15D0104B9B6903AA104600990F4A0E
:101B6000FFF796FE9DF807301846FFF769FF069BC2
:101B7000002B04D003AB1846FFF7DAFE05E004E0C3
:101B80009DF807301846FFF75BFF034B9B699B6A84
:101B9000184609B05DF804FBA0160020B11A000831
:101BA00000B585B001900091019B009A9A62019B5B
:101BB0009A68154B9B699B689A4203D80198FFF776
:101BC00007FF1DE0104B9B691846FFF701FF0390CC
:101BD0000D4A019B9361019B012283F82020039809
:101BE000FFF786FD6B46A3F16402039BDB699A4213
:101BF00002D20648FFF7ACFD01980399FFF740FCBD
:101C000005B05DF804FB00BFA0160020F4420108F7
:101C100008B5054B1B689A68034B9B699B689A4201
:101C200001D900F03DF808BDA0160020AFF30080F8
:101C300000B583B0154B9B6901931448FFF7D8FD9D
:101C40000246124B9A61114B9B69012283F82020B6
:101C5000019B142283F823200198FFF7B9FE019815
:101C6000FFF746FD6B46A3F16402019BDB699A42D4
:101C700002D20748FFF76CFD044B9B691846019997
:101C8000FFF7FEFB03B05DF804FB00BFA0160020C9
:101C9000F4420108AFF30080AFF30080AFF300809F
:101CA00000B583B0204B9B6900931F48FFF7A0FD50
:101CB00002461D4B9A611C4B9B69012283F8202030
:101CC000009B002283F82020174B0193019B1B6887
:101CD0000193019B9A68009B9B689A42F6D8009BEF
:101CE000019A1A60019B5A68009B5A60009B5B68CE
:101CF000019A00995160019A52681A600098FFF7A2
:101D0000F7FC6B46A3F16402009BDB699A4202D2A6
:101D10000648FFF71DFD044B9B6918460099FFF725
:101D2000AFFB03B05DF804FBA0160020F4420108ED
:101D300008B5064B9B6993F82330002B02D1FFF7BF
:101D400077FF01E0FFF7ACFF08BD00BFA016002041
:101D500082B001900091019B009A9A60019B02223F
:101D600083F82020019B002283F82120019B14226C
:101D700083F82320019B009A5A64019B00221A6475
:101D8000019B0022DA63019B00225A62019B01221F
:101D900083F82220019B00229A61019B124A1A615A
:101DA000114B5A69019B5A61019B5B690E49019A6B
:101DB0004A610D4A52691A61019B03F12C02019B91
:101DC000DA62019B03F13002019B5A63019B5A6B5B
:101DD000019B1A63019B03F14C02019BDA61019B99
:101DE000184602B0704700BFA0160020AFF3008075
:101DF00084B00390029113468DF8073005E0039BF1
:101E00005A1C03929DF807201A70039A029B9A426B
:101E1000F5D304B0704700BFAFF30080AFF300808C
:101E200000B587B00390029101920093039B059344
:101E3000039B002B09D0029BB3F5AC7F05D3019B1C
:101E40007F2B02D8009B002B02D10F48FFF780FCAC
:101E5000029B643B039A1A44059BDA60059BDB688E
:101E6000009A1A64059BDB68089A5A64059BDB6834
:101E7000064A1A6605980199FFF76AFF0346184655
:101E800007B05DF804FB00BF10430108A11400086F
:101E900000B589B00590049103920293059B4C33E1
:101EA00005981946FF22FFF7A3FF059B03F14C019C
:101EB000059A049B1344084619465522FFF798FFDC
:101EC000FFF76EFA0A9B009305980499039A029B08
:101ED000FFF7A6FF079007980021FFF761FEFFF7C5
:101EE00067FA079B184609B05DF804FBAFF3008062
:101EF00000B583B00190019B002B02D10648FFF78B
:101F000027FCFFF74DFA06200199FFF719FEFFF7AE
:101F10004FFA03B05DF804FB50430108AFF30080B3
:101F200008B5FFF73DFA064B1B689A68044B9B699E
:101F30009B689A4201D3FFF77BFEFFF739FA08BD91
:101F4000A0160020AFF30080AFF30080AFF3008055
:101F500000B583B00190FFF723FA019800F008F86C
:101F600003B05DF804FB00BFAFF30080AFF3008067
:101F700000B585B00190184B9B690393039B019AB0
:101F80009A6208E0039B2C331846FFF759FC03467E
:101F90001846FFF71DFD039BDA6A039B2C339A4218
:101FA000F0D1039B93F8213003F00303002B09D1F8
:101FB000039B5B69039A12691A61039B1B69039A6D
:101FC00052695A610E20FFF73BFD0448FFF7C0FB42
:101FD00005B05DF804FB00BFA016002060430108B7
:101FE00000B589B005900491039202930598049975
:101FF00000F066FD0790079B002B01D1002327E02E
:10200000079B4C3307981946FF22FFF7F1FE079B09
:1020100003F14C01079A049B1344084619465522C4
:10202000FFF7E6FEFFF7BCF90A9B009307980499B7
:10203000039A029BFFF7F4FE0690069B012283F8A9
:10204000212006980021FFF7ABFDFFF7B1F9069BB1
:10205000184609B05DF804FBAFF30080AFF30080D1
:1020600000B583B001900091019B002B02D0009B32
:10207000002B02DA0748FFF76BFB019A019B5A60BD
:10208000019B5A68019B1A60019B009A9A6003B0F9
:102090005DF804FBB0430108AFF30080AFF30080AC
:1020A00000B585B00190FFF77BF9019800F008F8C2
:1020B0000390FFF77DF9039B184605B05DF804FB1C
:1020C00000B583B00190019B002B02D11B48FFF7A4
:1020D0003FFB019B9B68002B04DB019B1A68019B63
:1020E0009A420BD0019B9B68002B04DA019B1A6873
:1020F000019B9A4202D11248FFF72AFB019B9B6881
:102100005A1E019B9A60019B9B68002B11DA0D4BB4
:102110009B69019A9A620B4B9A69019B104619467A
:10212000FFF74EFB0320FFF78BFC064B9B699B6A76
:1021300000E00023184603B05DF804FBE443010807
:10214000F4430108A0160020AFF30080AFF3008035
:1021500000B585B001900091FFF722F90198009930
:1021600000F00EF80390FFF723F9039B184605B023
:102170005DF804FBAFF30080AFF30080AFF30080A5
:1021800000B583B001900091019B002B02D1214842
:10219000FFF7DEFA019B9B68002B04DB019B1A68AA
:1021A000019B9A420BD0019B9B68002B04DA019B98
:1021B0001A68019B9A4202D11748FFF7C9FA019B9E
:1021C0009B685A1E019B9A60019B9B68002B1BDA3F
:1021D000009B002B07D1019B9B685A1C019B9A60B6
:1021E0004FF0FF3311E00D4B9B69019A9A620B4B44
:1021F0009A69019B10461946FFF7E2FA03200099FD
:10220000FFF79EFC034600E00023184603B05DF88C
:1022100004FB00BF0844010820440108A016002068
:1022200000B585B00190019B002B02D11748FFF744
:102230008FFA019B9B68002B04DB019B1A68019BB2
:102240009A420BD0019B9B68002B04DA019B1A6811
:10225000019B9A4202D10E48FFF77AFA019B9B68D4
:102260005A1C019B9A60019B9B68002B0ADC019B16
:102270001846FFF7BDFA0390039B00229A62039869
:10228000FFF7A6FB05B05DF804FB00BF5C44010846
:1022900070440108AFF30080AFF30080AFF300801B
:1022A00000B583B00190019B002B02D10748FFF7D6
:1022B0004FFA019A019B5A60019B5A68019B1A6070
:1022C000019B00229A6003B05DF804FB0045010801
:1022D00000B583B00190FFF763F8019800F008F8AB
:1022E000FFF766F803B05DF804FB00BFAFF30080B2
:1022F00000B585B001903B4B9B690293019B002B7D
:1023000002D13948FFF724FA019B9B68002B5BD070
:10231000019B9B68039334E0029B9A68039B9A603D
:10232000039B93F82030042B04D0052B11D0002BF5
:102330001AD02CE00398FFF773FA0246039B9B6ABE
:1023400010461946FFF714FA039B9B6A9B68039398
:1023500017E00398FFF764FA0246039B9B6A104656
:102360001946FFF705FA0BE0039B012283F82020B2
:102370000398FFF755FA03461846FFF729FB00BFFD
:1023800005E0039B9A68029B9B689A42C4D3019B19
:1023900002981946FFF7ECF9029B019A9A62042011
:1023A000FFF74EFB019B9A68029B9A4202D00F48AE
:1023B000FFF7CEF9029B1A6C019B9A4203D00C489E
:1023C000FFF7C6F90AE009E0019B029A9A60029BB6
:1023D0001A6C019BDA60029B019A1A6405B05DF8E1
:1023E00004FB00BFA016002010450108204501088D
:1023F00034450108AFF30080AFF30080AFF30080F5
:1024000000B587B02E4B9B690393FEF7C9FF039B72
:102410001B6C002B02D12B48FFF79AF9039B1B6C16
:102420009A68039B9A4202D02748FFF791F9039BD1
:102430001B6C0293029BDA68039B1A64029B1A6866
:10244000029B9A4232D0039B5B6C0493039B1B6CF0
:10245000059311E0059B1A68059B9A4209D0059BDC
:102460001B689A68049B9A4203D9059B1B689B686A
:102470000493059BDB680593059B002BEAD1039B26
:10248000049A9A60029B1846FFF7B2F90190029BEA
:10249000019A9A60019B1A6C029BDA60019B029A76
:1024A0001A6401980021FFF77BFB02E0029B0022E7
:1024B0009A60FEF77DFF029B184607B05DF804FBAB
:1024C000A01600205C45010870450108AFF30080AC
:1024D00000B585B001900091019B002B02D10F48FF
:1024E000FFF736F9019B1B68039310E0039BDA6842
:1024F000009B1A43039BDA60039B5A68039B9B680B
:102500001046194600F00CF8039B1B680393039ACE
:10251000019B9A42EAD105B05DF804FBDC45010855
:1025200000B583B001900091019B002B02D11648A9
:10253000FFF70EF9019BDA6B009B1A43019BDA63EC
:10254000019B93F82030082B06D1019BDA6B019B8D
:102550009B6A1340002B0DD1019B93F82030092B6F
:102560000ED1019BDA6B019B9B6A1A40019B9B6A0F
:102570009A4205D10198FFF72BFA02460023936295
:1025800003B05DF804FB00BF04460108AFF3008010
:1025900000B583B001900091009B002B02D14FF059
:1025A000FF330FE0094B9B69019A9A62074B9A69C6
:1025B000019B10461946FFF703F90D200099FFF71C
:1025C000BFFA0346184603B05DF804FBA0160020CE
:1025D00084B00390029101920093039A039B5A6086
:1025E000039B5A68039B1A60039B00229A60039B1B
:1025F000029A5A61039B5A69039B9A61039B9A69E9
:10260000039BDA60029A019B1A44039B1A61039BA5
:10261000009ADA61039B049A1A6204B0704700BF03
:1026200000B583B001900B468DF80330019B5A69C9
:10263000019B9B699A4205D1019B9B68002B01D0AD
:10264000012300E0002303F00103DBB2002B02D0E2
:102650006FF0030327E0019B9B685A1C019B9A6063
:10266000019B5B69591C019A51619DF803201A7006
:10267000019B5A69019B1B699A4203D3019BDA684B
:10268000019B5A61019B1A68019B9A420AD0019BE7
:102690001846FFF7ADF803461846FFF799F90246CA
:1026A000002393620023184603B05DF804FB00BFCB
:1026B00000B585B001900091FEF772FE019BDB69C9
:1026C000002B03D0019BDB69019898470BE0019830
:1026D0000099FFF75DFF0390039B002B03DAFEF7E1
:1026E00067FE039B1EE0019B9B68002BEFD0019BC4
:1026F0009B685A1E019B9A60019B9B69591C019A19
:1027000091611B788DF80B30019B9A69019B1B69C5
:102710009A4203D3019BDA68019B9A61FEF748FE57
:102720009DF80B30184605B05DF804FBAFF3008050
:1027300000B587B00390029101920093039BDB697F
:10274000049300230593019B002B02D12348FEF73D
:10275000FFFFFEF725FE049B002B02D0049B03988D
:1027600098470AE003980099FFF712FF0346002BF1
:1027700003D0FEF71DFE059B2CE0039B9B68002BFE
:10278000F0D0039B9B685A1E039B9A60029B5A1CC5
:102790000292039A9269501C0399886112781A7008
:1027A000039B9A69039B1B699A4203D3039BDA68D4
:1027B000039B9A61FEF7FCFD059B01330593019B8A
:1027C000013B0193019B002B01D1059B02E0FEF729
:1027D000E7FDC0E7184607B05DF804FB4046010876
:1027E00084B00390029101920093039A039B5A6074
:1027F000039B5A68039B1A60039B019A9A60039B90
:10280000029A5A61039B5A69039B9A61039B9A69D6
:10281000039BDA60029A019B1A44039B1A61039B93
:10282000009ADA61039B049A1A6204B0704700BFF1
:1028300000B587B003900B4601928DF80B30FEF780
:10284000AFFD0BE003980199FFF7A2FE0590059BF1
:10285000002B03DAFEF7ACFD059B25E0039B9B688C
:10286000002BEFD0039B9B685A1E039B9A60039B2F
:102870005B69591C039A51619DF80B201A70039BE8
:102880005A69039B1B699A4203D3039BDA68039B33
:102890005A61039BDB69002B03D0039BDB69039820
:1028A0009847FEF785FD0023184607B05DF804FB46
:1028B00000B585B00190019B5A69019B9B699A42C2
:1028C00005D1019B9B68002B01D0012300E0002370
:1028D00003F00103DBB2002B02D06FF0020328E00B
:1028E000019B9B685A1C019B9A60019B9B69591C28
:1028F000019A91611B788DF80F30019B9A69019BB9
:102900001B699A4203D3019BDA68019B9A61019B80
:102910001A68019B9A420AD0019B1846FEF768FF8D
:1029200003461846FFF754F80246002393629DF8C9
:102930000F30184605B05DF804FB00BFAFF3008010
:1029400000B587B00390029101920093039BDB696D
:10295000049300230593019B002B02D12348FEF72B
:10296000F7FEFEF71DFD0AE003980099FFF710FE41
:102970000346002B03D0FEF71BFD059B32E0039BB3
:102980009B68002BF0D0039B9B685A1E039B9A60A8
:10299000039B5B69591C039A5161029A511C029175
:1029A00012781A70039B5A69039B1B699A4203D3DE
:1029B000039BDA68039B5A61049B002B02D0049BA3
:1029C00003989847FEF7F4FC059B01330593019BA0
:1029D000013B0193019B002B01D1059B02E0FEF717
:1029E000DFFCC0E7184607B05DF804FB5446010859
:1029F000064B073323F007031A46054B1A60054BB5
:102A000023F007031A46044B1A607047F444002071
:102A1000BC16002000C00120C0160020AFF30080CB
:102A200000B585B00190FEF7BBFC019800F008F8F6
:102A30000390FEF7BDFC039B184605B05DF804FB50
:102A400084B00190019B073323F0070301930C4BE3
:102A50001B681A460B4B1B68D31A1A46019B9A42F5
:102A600001D2002309E0074B1B680393054B1A684A
:102A7000019B1344034A1360039B184604B070473C
:102A8000C0160020BC160020AFF30080AFF300801A
:102A900008B5064B064A1A60044B00229A60034BA5
:102AA0000022DA600348FFF7FBFB08BDC8160020D0
:102AB000212A0008D8160020AFF30080AFF3008071
:102AC00000B587B001900091019B002B01D1344BE0
:102AD0000193009B073323F007030093019B083306
:102AE0000593019B10331846FFF7F2FB33E0059B7B
:102AF0001B680493049B5A68009B9A4229D3049B49
:102B00005A68009B08339A4204D2049B1A68059BBA
:102B10001A6016E0009B0833049A13440393049B45
:102B20001A68039B1A60049B5A68009BD31AA3F18E
:102B30000802039B5A60059B039A1A60049B009A43
:102B40005A60049B019A1A60FFF75AFC049B0833F1
:102B500021E0049B0593059B1B68002BC7D1FFF761
:102B60004FFC019B1B68002B14D0019B1B68009A33
:102B70000832104698470490049B002B0AD0049B0F
:102B8000019A1A60049B009A5A60049B08330493CC
:102B9000049B00E00023184607B05DF804FB00BF6B
:102BA000C8160020AFF30080AFF30080AFF30080C1
:102BB00000B587B00190019B002B02D13948FEF788
:102BC000C7FD019B083B0493049B1B680393039B75
:102BD00008330593039B10331846FFF779FB049ADB
:102BE000059B9A420AD3059B5B680833059A1A44F1
:102BF000049B9A4202D92C48FEF7AAFD039B03F1DD
:102C00000802059B9A4203D0049A059B9A423ED93A
:102C1000059B1B68002B04D0059B1A68049B9A42F5
:102C200035D9059B1A68049B1A60059B049A1A60A3
:102C3000049B5B680833049A1A44049B1B689A42FD
:102C40000ED1049B5A68049B1B685B68134403F114
:102C50000802049B5A60049B1B681A68049B1A6054
:102C6000059B5B680833059A1A44049B9A420DD170
:102C7000059B5A68049B5B68134403F10802059B9B
:102C80005A60049B1A68059B1A6004E003E0059BE8
:102C90001B680593A3E7FFF7B3FB00BF07B05DF820
:102CA00004FB00BF8046010890460108AFF3008096
:102CB00008B500F0F5FE084801F0D2FA00F010F86F
:102CC00000F0EEF800F07CF900F0A2FA00F030FB22
:102CD00002F086FA08BD00BF80500108AFF3008003
:102CE00008B501F025F908BDAFF30080AFF300800F
:102CF00000B583B00190019B01221A70019B002254
:102D00005A60019B00229A60019B0022DA60019BBD
:102D100000221A61019B00225A61019B1833184658
:102D2000FFF7BEFA03B05DF804FB00BFAFF300800D
:102D300000B583B001900091019B002B02D10F4898
:102D4000FEF706FDFEF72CFB019B1B78012B06D03E
:102D5000019B1B78022B02D00948FEF7F9FC019B6E
:102D6000009A5A60019801F013F9019B02221A702F
:102D7000FEF71EFB03B05DF804FB00BFB046010880
:102D8000C0460108AFF30080AFF30080AFF30080CE
:102D900000B585B00390029101920093FEF700FB0D
:102DA00003980299019A009B00F00AF8FEF700FBD5
:102DB00005B05DF804FB00BFAFF30080AFF3008007
:102DC00000B585B00390029101920093039B002B04
:102DD0000DD0029B002B0AD0019B002B07D0009B3B
:102DE000012B07D0009B03F00103002B02D01248F7
:102DF000FEF7AEFC039B1B78022B0AD0039B1B78CB
:102E0000042B06D0039B1B78052B02D00B48FEF742
:102E10009FFC039B019A9A60039B009ADA60039BD4
:102E2000029A1A61039B03221A70039801F028F991
:102E300005B05DF804FB00BFEC460108044701083B
:102E400000B587B00390029101920093FEF7A8FAB3
:102E5000039B5B69002B02D00D48FEF779FC0398B9
:102E60000299019A009BFFF7ABFF0A4B9A69039BFB
:102E70005A610220FEF7E4FD064B9B699B6A0593AD
:102E8000FEF796FA059B184607B05DF804FB00BFF5
:102E900084470108A0160020AFF30080AFF3008044
:102EA00008B501F0FDFC08BDAFF30080AFF3008072
:102EB00082B00190019B01221A70019B00225A608E
:102EC00002B07047AFF30080AFF30080AFF3008033
:102ED00000B583B001900091019B002B02D0009BB4
:102EE000002B02D10E48FEF733FCFEF759FA019B86
:102EF0001B78012B06D0019B1B78022B02D00948BE
:102F0000FEF726FC019B009A5A60019801F0E0FC54
:102F1000019B02221A70FEF74BFA03B05DF804FB26
:102F2000C0470108D0470108AFF30080AFF300802D
:102F300000B583B00190019B002B02D10B48FEF736
:102F400007FCFEF72DFA019B1B78022B02D00848E4
:102F5000FEF7FEFB019801F0A3FD019B03221A700E
:102F6000FEF726FA03B05DF804FB00BFFC4701083A
:102F70000C480108AFF30080AFF30080AFF300808E
:102F800000B583B001900091019B002B03D0019B01
:102F90009B680F2B02D90948FEF7DAFB019B1968E1
:102FA000019B5B68019A9268934008461946009A13
:102FB00001F0B6F903B05DF804FB00BF60480108FA
:102FC00008B501F035FE08BDAFF30080AFF3008017
:102FD00082B00190019B01221A70019B00225A606D
:102FE00002B07047AFF30080AFF30080AFF3008012
:102FF00000B583B001900091019B002B02D0009B93
:10300000002B02D11048FEF7A3FBFEF7C9F9019B84
:103010001B78012B06D0019B1B78022B02D00B489A
:10302000FEF796FB019B009A5A60009B9A88019BD1
:103030001A81019801F00CFE019B02221A70FEF722
:10304000B7F903B05DF804FB804801089048010817
:1030500000B583B001900B468DF803301346ADF8F0
:103060000030019B002B03D09DF80330032B02D9C5
:103070000C48FEF76DFBFEF793F9019B1B78022BC2
:1030800002D00948FEF764FB9DF80320BDF800302C
:10309000019811461A4601F0C3FEFEF789F903B004
:1030A0005DF804FBE848010800490108AFF300801F
:1030B00000B585B0039002910192039B303318460E
:1030C0000299019A4FF0FF33FFF73AFC0346184686
:1030D00005B05DF804FB00BFAFF30080AFF30080E4
:1030E00000B585B0039002910192039B0C33184602
:1030F0000299019A4FF0FF33FFF71AFB0346184677
:1031000005B05DF804FB00BFAFF30080AFF30080B3
:1031100000B583B001900B468DF80330019B03F19D
:1031200030029DF80330104619464FF0FF32FFF78A
:103130007FFB0346184603B05DF804FBAFF3008045
:1031400000B583B00190019B0C3318464FF0FF315E
:10315000FFF7AEFA0346184603B05DF804FB00BF64
:1031600000B585B003900B4601928DF80B30039BA0
:1031700003F130029DF80B3010461946019AFFF713
:1031800057FB0346184605B05DF804FBAFF300801B
:1031900000B583B001900091019B0C331846009953
:1031A000FFF786FA0346184603B05DF804FB00BF3C
:1031B00000B585B00390029101920093039B3033D8
:1031C00018460299019A009BFFF7BAFB034618467E
:1031D00005B05DF804FB00BFAFF30080AFF30080E3
:1031E00000B585B00390029101920093039B0C33CC
:1031F00018460299019A009BFFF79AFA034618466F
:1032000005B05DF804FB00BFAFF30080AFF30080B2
:1032100008B501F0A5FF08BDAFF30080AFF3008053
:1032200000B587B0059004910392059B134A1A607C
:10323000059B1A1D059B5A60059B01221A72059B6E
:1032400003F10C01059B03F15402059B0093084612
:1032500011461022049BFFF7BBF9059B03F13001D7
:10326000059B03F16402059B00930846114610225A
:10327000039BFFF7B5FA07B05DF804FB904F010818
:1032800000B583B001900091019B002B02D10E4844
:10329000FEF75EFAFEF784F8019B1B7A012B06D03D
:1032A000019B1B7A022B02D00848FEF751FA0198C5
:1032B000009901F065FF019B02221A72FEF778F86F
:1032C00003B05DF804FB00BF304901083C49010828
:1032D00000B583B001900B468DF80330019B002BA5
:1032E00002D11148FEF734FA019B5B69002B05D12E
:1032F000019B043318460421FFF7EAF8019B03F110
:103300000C029DF8033010461946FFF789F9034671
:10331000002B05DA019B043318468021FFF7D8F80B
:1033200003B05DF804FB00BF68490108AFF30080FB
:1033300008B501F015F908BDAFF30080AFF30080C8
:1033400000B583B00190019B01221A70019B0022FD
:103350005A60019B00229A60019B0C331846FEF7CD
:103360009FFF03B05DF804FBAFF30080AFF3008074
:1033700000B583B001900091019B002B02D0009B0F
:10338000002B02D10E48FEF7E3F9FEF709F8019B86
:103390001B78012B06D0019B1B78022B02D0094819
:1033A000FEF7D6F9019B009A5A60019801F000F9E6
:1033B000019B02221A70FDF7FBFF03B05DF804FBCE
:1033C00090490108A0490108AFF30080AFF30080E5
:1033D00000B585B00390029101920093039B002BEE
:1033E00008D0029B002B05D0009B002B02D0019B34
:1033F000002B02D11748FEF7ABF9FDF7D1FF039B75
:103400001B78022B02D01448FEF7A2F9039B5B68DD
:103410001B68002B02D01148FEF79AF9039B032288
:103420001A7003980299019A009B01F059F9039BC5
:103430009B68002B02D00A48FEF78AF9094B9A696B
:10344000039B9A600220FEF7FBFAFDF7B1FF05B07F
:103450005DF804FB044B0108144B0108284B0108DC
:10346000F44A0108A0160020AFF30080AFF30080FB
:1034700000B583B00190019B002B02D10548FEF7F7
:1034800067F9019B0C331846FEF722FF03B05DF885
:1034900004FB00BFA04B0108AFF30080AFF3008036
:1034A00000B583B00190019B002B02D10348FEF7C9
:1034B0004FF9FEF7A5FF03B05DF804FBB44B01081C
:1034C00000B583B00B4B1B6803F03D030193094A21
:1034D000019B9360084B1B68002B06D0064B1B68B2
:1034E000054A5268104601999847FDF769FF03B0F5
:1034F0005DF804FB00600240EC160020AFF3008092
:1035000000B583B00C4B1B689B0903F03D0301938E
:10351000094A019B9B019360084B9B68002B06D0D6
:10352000064B9B68054AD268104601999847FDF7FB
:1035300047FF03B05DF804FB00600240EC1600207A
:1035400000B583B00C4B1B681B0C03F03D030193CB
:10355000094A019B1B049360084B1B69002B06D092
:10356000064B1B69054A5269104601999847FDF7B9
:1035700027FF03B05DF804FB00600240EC1600205A
:1035800000B583B00C4B1B689B0D03F03D0301930A
:10359000094A019B9B059360084B9B69002B06D051
:1035A000064B9B69054AD269104601999847FDF779
:1035B00007FF03B05DF804FB00600240EC1600203A
:1035C00000B583B00B4B5B6803F03D030193094AE0
:1035D000019BD360084B1B6A002B06D0064B1B6A6D
:1035E000054A526A104601999847FDF7E9FE03B073
:1035F0005DF804FB00600240EC160020AFF3008091
:1036000000B583B00C4B5B689B0903F03D0301934D
:10361000094A019B9B01D360084B9B6A002B06D093
:10362000064B9B6A054AD26A104601999847FDF7F6
:10363000C7FE03B05DF804FB00600240EC160020FA
:1036400000B583B00C4B5B681B0C03F03D0301938A
:10365000094A019B1B04D360084B1B6B002B06D04F
:10366000064B1B6B054A526B104601999847FDF7B4
:10367000A7FE03B05DF804FB00600240EC160020DA
:1036800000B583B00C4B5B689B0D03F03D030193C9
:10369000094A019B9B05D360084B9B6B002B06D00E
:1036A000064B9B6B054AD26B104601999847FDF774
:1036B00087FE03B05DF804FB00600240EC160020BA
:1036C00000B583B00B4B1B6803F03D030193094A1F
:1036D000019B9360084B1B6C002B06D0064B1B6CA8
:1036E000054A526C104601999847FDF769FE03B0F0
:1036F0005DF804FB00640240EC160020AFF300808C
:1037000000B583B00C4B1B689B0903F03D0301938C
:10371000094A019B9B019360084B9B6C002B06D0D0
:10372000064B9B6C054AD26C104601999847FDF7F1
:1037300047FE03B05DF804FB00640240EC16002075
:1037400000B583B00C4B1B681B0C03F03D030193C9
:10375000094A019B1B049360084B1B6D002B06D08C
:10376000064B1B6D054A526D104601999847FDF7AF
:1037700027FE03B05DF804FB00640240EC16002055
:1037800000B583B00C4B1B689B0D03F03D03019308
:10379000094A019B9B059360084B9B6D002B06D04B
:1037A000064B9B6D054AD26D104601999847FDF76F
:1037B00007FE03B05DF804FB00640240EC16002035
:1037C00000B583B00B4B5B6803F03D030193094ADE
:1037D000019BD360084B1B6E002B06D0064B1B6E63
:1037E000054A526E104601999847FDF7E9FD03B06E
:1037F0005DF804FB00640240EC160020AFF300808B
:1038000000B583B00C4B5B689B0903F03D0301934B
:10381000094A019B9B01D360084B9B6E002B06D08D
:10382000064B9B6E054AD26E104601999847FDF7EC
:10383000C7FD03B05DF804FB00640240EC160020F5
:1038400000B583B00C4B5B681B0C03F03D03019388
:10385000094A019B1B04D360084B1B6F002B06D049
:10386000064B1B6F054A526F104601999847FDF7AA
:10387000A7FD03B05DF804FB00640240EC160020D5
:1038800000B583B00C4B5B689B0D03F03D030193C7
:10389000094A019B9B05D360084B9B6F002B06D008
:1038A000064B9B6F054AD26F104601999847FDF76A
:1038B00087FD03B05DF804FB00640240EC160020B5
:1038C00082B0164B00221A600023019311E01449C4
:1038D000019A13465B0013449B000B441B680022B3
:1038E0001A60104A019B002142F83310019B0133FA
:1038F0000193019B0F2BEADD0B4B4FF0FF329A60D7
:10390000094B4FF0FF32DA60084B4FF0FF329A60FC
:10391000064B4FF0FF32DA6002B07047E816002025
:10392000B04F0108EC160020006002400064024025
:1039300000B585B00390029101920093039B002B88
:1039400002D13848FDF704FF039B5B7A1A46012336
:1039500093401A46344B1B681340002B01D00123BF
:103960005CE0039B5B7A1946304A019B42F8313098
:10397000039B5B7A2D4ADB001344009A5A60039B39
:103980005B7A1A46012393401A46274B1B68134360
:10399000254A1360244B1B68DBB2002B05D0244A58
:1039A000234B1B6B43F4001313631F4B1B6803F47F
:1039B0007F43002B05D01E4A1D4B1B6B43F4800335
:1039C0001363039B1B68039A1268126822F01F029C
:1039D0001A6000BF039B1B681B6803F00103002BE8
:1039E000F8D1039B5B68039A127A11463D228A4004
:1039F0001A60039B1B6800221A60039B1B6821222C
:103A00005A61019B002B08D0039B9B7A1A46029BAC
:103A10001B0110461946FDF753FD0023184605B05B
:103A20005DF804FBD04B0108E8160020EC160020DE
:103A300000380240AFF30080AFF30080AFF30080A6
:103A4000134A134B1B6843F480731360114B1B6FB5
:103A500003F44073B3F5007F06D00E4B4FF4803271
:103A60001A670C4B00221A670A4A0A4B1B6B43F475
:103A700080231363064A064B5B6843F4007353606C
:103A800000BF034B5B6803F00803002BF9D07047BD
:103A90000070004000380240AFF30080AFF30080B8
:103AA00008B5224B1B69214B4FF0FF321A611F4BA7
:103AB00000221A611D4B5B691C4B4FF0FF325A61AB
:103AC0001A4B00225A61194A184B1B6A63F0805343
:103AD0001362164B00221A62144B5B6A134B4FF0B1
:103AE000FF325A62114B00225A62114B114A5A603E
:103AF0000F4B00229A600E4B07221A600E4A0E4BA3
:103B0000DB6843F08073D3600C4A0C4B1B6843F0B6
:103B100001031360054A054B1B6C43F0805313648B
:103B2000FFF78EFFFFF7CCFE08BD00BF0038024054
:103B300010E000E03F900200F0ED00E0001000E037
:103B4000404B4FF080521A643F4B4FF440421A6092
:103B50003C4A3C4B1B6843F00103136000BF394BE8
:103B60001B6803F00203002BF9D0364A354B9B68E3
:103B700023F003039360334A324B9B68936000BF8A
:103B8000304B9B6803F00C03002BF9D12D4A2D4BD1
:103B90001B6803F0F90313602A4B00229A60294A3C
:103BA000284B1B6843F48033136000BF254B1B6810
:103BB00003F40033002BF9D0224A224B5B6F43F011
:103BC0000103536700BF1F4B5B6F03F00203002B21
:103BD000F9D01C4B1D4A5A601A4A1A4B1B6843F015
:103BE0008073136000BF184B5B6803F48043002BA5
:103BF000F9D000BF134B1B6803F00073002BF9D002
:103C0000104B134A9A60134B40F205721A600D4A2A
:103C10000C4B9B6843F00203936000BF094B9B6809
:103C200003F00C03082BF9D1064A064B5B6C43F4F6
:103C300080435364034A034B5B6E43F480435366F3
:103C4000704700BF00380240007000400854400731
:103C500000940838003C0240AFF30080AFF30080CE
:103C600000B587B001900091009B03F00C03002B7E
:103C700030D0019800F08CFA019B1B699B68002BE7
:103C80000FD0019B05221A70019B1B699B6801984C
:103C900000219847019B1B78052B02D1019B022232
:103CA0001A70019B00221A61FDF77AFB019B5B6988
:103CB000002B0CD0019B5B690593019B00225A618C
:103CC000059B4FF0FF329A620598FDF781FEFDF7E4
:103CD0006FFB88E0019B1B69002B00F08480009B38
:103CE00003F02003002B6AD0019B1B691B78002B7B
:103CF0002BD0019B1B695B68002B74D0019BDB6898
:103D0000012B18D9019BDB685B080493019B1B699D
:103D10005B881A46049B03FB02F30393019B1B6918
:103D20005B68019A9168039A52000A44019811460F
:103D3000049A984757E0019B1B695B68019A916858
:103D4000019AD268019898474DE0019800F020FA56
:103D5000019B1B695B68002B16D0019B04221A7023
:103D6000019B1B695B68019A9168019AD26801986E
:103D70009847019B1B78042B0CD1019B02221A70DF
:103D8000019B00221A6105E0019B02221A70019B2F
:103D900000221A61FDF704FB019B5B69002B0BD02D
:103DA000019B5B690293019B00225A61029B0022E6
:103DB0009A620298FDF70CFEFDF7FAFA13E0009BF9
:103DC00003F01003002B0ED0019B1B695B68002BD6
:103DD00009D0019B1B695B68019A9168019AD268BE
:103DE00052080198984707B05DF804FBAFF30080D4
:103DF00000B585B0474B1B680393464B00221A6001
:103E0000039B03F02003002B39D0434BDB6A1B6874
:103E10005B68002B33D0404B1B69002B2FD03E48F2
:103E200000F0B6F93C4B1B699B68002B0FD03A4B56
:103E300005221A70384B1B699B6837480121984747
:103E4000354B1B78052B02D1334B02221A70324BB3
:103E500000221A61FDF7A4FA2F4B5B69002B0CD0EE
:103E60002D4B5B6902932C4B00225A61029B4FF051
:103E7000FF329A620298FDF7ABFDFDF799FA274BE6
:103E80001B680393254B00221A60039B03F0200359
:103E9000002B39D0224BDB6A1B685B68002B33D0C8
:103EA0001F4B1B69002B2FD01D4800F071F91C4BD4
:103EB0001B699B68002B0FD0194B05221A70184BF9
:103EC0001B699B68164801219847154B1B78052BE9
:103ED00002D1134B02221A70114B00221A61FDF716
:103EE0005FFA0F4B5B69002B0CD00D4B5B690193A4
:103EF0000B4B00225A61019B4FF0FF329A620198EE
:103F0000FDF766FDFDF754FAFDF75AFA05B05DF8C6
:103F100004FB00BF002001406C170020002101407D
:103F2000A0170020AFF30080AFF30080AFF3008054
:103F300008B50E48FEF7DCFE0C4B0D4A9A620B4B9F
:103F40000C4ADA62094B0C4A1A630C48FEF7D0FEA1
:103F50000A4B0B4A9A62094B0A4ADA62074B0A4A31
:103F60001A6312206021FDF7ABFA08BD6C17002020
:103F70000020014040500108162C0200A01700202C
:103F80000021014028500108162C0202AFF30080E6
:103F900000B585B00190019B1B78012B55D1019B89
:103FA0002B4A93421CD1019BDB6A18460621294A01
:103FB000019BFFF7BDFC03468DF80F309DF80F30D5
:103FC000002B02D02448FDF7C3FB019BDB6A1B6872
:103FD000224A9A60224A224B5B6C43F480735364FA
:103FE000019B204A93421CD1019BDB6A18460621A3
:103FF000184A019BFFF79CFC03468DF80E309DF894
:104000000E30002B02D01848FDF7A2FB019BDB6AA3
:104010001B68164A9A60124A114B5B6C43F400739A
:104020005364134A124B5B6803F4400343F4803338
:104030005360019B9B6A00225A60019B9B6A00228D
:104040009A60019B9B6A01229A6005B05DF804FBAF
:104050006C170020613C0008204C01084C200140F6
:1040600000380240A0170020344C01084C210140C8
:1040700000230140AFF30080AFF30080AFF3008076
:1040800086B00190019B1B690493019B1B6B0593F8
:10409000049B1B78002B0BD0059B43F48073059386
:1040A000019BDB68012B03D9059B43F008030593B3
:1040B000019BDB6A1B68019A9268DA60019BDB6AEC
:1040C0001B68049A52881146019AD26802FB01F2D9
:1040D0005A60019BDB6A1B68059A1A60019BDB6AC8
:1040E0001B68019AD26A1268126842F001021A60D3
:1040F000019B9B6A00221A60019B9B6A049A526989
:10410000DA60019B9B6A049A92691A61019B9B6A1F
:10411000049AD269DA62019B9B6A049A126A1A6352
:10412000019B9B6A049A526A5A63019B9A6A049B98
:10413000DB6843F0806343F480735360049B1B6926
:1041400043F4407343F001030393039B03F0804364
:10415000002B10D0019B9A6A039B23F0804323F02D
:10416000020343F002039360019B9B6A039A42F0AF
:1041700002029A6003E0019B9B6A039A9A6006B070
:10418000704700BFAFF30080AFF30080AFF3008053
:1041900082B00190019BDB6A1B68019AD26A1268A7
:1041A000126822F01F021A6000BF019BDB6A1B68C5
:1041B0001B6803F00103002BF7D1019BDB6A5B68EE
:1041C000019AD26A127A11463D228A401A60019BF6
:1041D0009B6A00225A60019B9B6A00229A60019BA5
:1041E0009B6A01229A6002B0704700BFAFF3008063
:1041F000034A034B5B6843F400035360704700BFFE
:1042000000230140AFF30080AFF30080AFF30080E4
:1042100082B001900091009B5A68019B5A60009BFC
:104220009A68019B9A60009BDA68019BDA60009BA8
:104230001A69019B5A61009B5A69019B1A62009B93
:104240009A69019B5A62009B1A68019B1A6002B02E
:10425000704700BFAFF30080AFF30080AFF3008082
:1042600000B583B00190244A234B1B6B6FEA5323A4
:104270006FEA43231363204A1F4B1B6D6FEA5323DE
:104280006FEA43231365019B1C481946FFF7C0FFE3
:10429000019B1C331A481946FFF7BAFF019B3833BC
:1042A00018481946FFF7B4FF019B543316481946C6
:1042B000FFF7AEFF019B703314481946FFF7A8FFC4
:1042C000019B8C3312481946FFF7A2FF019BA833CC
:1042D00010481946FFF79CFF019BC4330E4819464E
:1042E000FFF796FF019BE0330C481946FFF790FF5C
:1042F00003B05DF804FB00BF00380240000002403C
:104300000004024000080240000C0240001002407D
:104310000014024000180240001C0240002002402D
:104320008EB0039002910192019B03F003030D9361
:10433000019B03F004039B080C93019B03F01803FB
:10434000DB080B93019B03F060035B090A93019B5D
:1043500003F4F063DB09089300230993029B03F045
:104360000103002B54D0099B03F007039B001A465E
:10437000089B93400793099B03F007039B001A4691
:104380000F2393400693099B072B09D8039B1A6AB6
:10439000069BDB431A40079B1A43039B1A6208E003
:1043A000039B5A6A069BDB431A40079B1A43039BF5
:1043B0005A62099B012202FA03F30593039B5A6890
:1043C000059BDB431A400C9B1A43039B5A60099BD5
:1043D0005B001A46032393400493039B9A68049B53
:1043E000DB431A400B9B1A43039B9A60039BDA68DA
:1043F000049BDB431A400A9B1A43039BDA60039B2E
:104400001A68049BDB431A400D9B1A43039B1A60F6
:10441000029B5B080293029B002B00D10FE00C9BD8
:104420005B000C930B9B9B000B930A9B9B000A93D6
:104430000D9B9B000D93099B013309938EE70EB0F2
:10444000704700BFAFF30080AFF30080AFF3008090
:1044500000B585B001900091009B03F00C03002B88
:1044600001D0FCF755FF019B5B6A1B68019A526AF9
:104470001268126822F01F021A6000BF019B5B6A7B
:104480001B681B6803F00103002BF7D1019B5B6ADB
:104490005B68019A526A127A11463D228A401A607C
:1044A000019B1B6A1B68019A126A1268126822F04B
:1044B0001F021A6000BF019B1B6A1B681B6803F088
:1044C0000103002BF7D1019B1B6A5B68019A126AFA
:1044D000127A11463D228A401A60019B5B681B6874
:1044E000002B0FD0019B04221A70019B5B681B6894
:1044F00001989847019B1B78042B06D1019B02224F
:104500001A7002E0019B02221A70FCF749FF019B1E
:104510009B68002B0BD0019B9B680393019B00229F
:104520009A60039B00229A620398FDF751FAFCF708
:104530003FFF05B05DF804FBAFF30080AFF30080F0
:1045400000B583B001900091009B03F00C03002B99
:1045500001D0FCF7DDFE03B05DF804FBAFF3008093
:1045600008B50B4B4FF6FF721A800A48FEF7E8FEBB
:10457000084B094ADA61074B084A1A62054B084A98
:104580005A62044B074A9A62024B074ADA6208BD34
:1045900004180020D417002000380040D44F010830
:1045A000E04F01081600010046000100AFF3008053
:1045B00000B585B00190019B1B78012B3BD1019B7D
:1045C0003E4A934229D1019B1B6A18460A213C4A64
:1045D000019BFFF7ADF903468DF80F309DF80F30C2
:1045E000002B02D03748FDF7B3F8019B5B6A1846F1
:1045F0000A21354A019BFFF79BF903468DF80F30DE
:104600009DF80F30002B02D03048FDF7A1F8304A5A
:104610002F4B1B6C43F480431364019B1B6A1B6884
:10462000019AD2690C329A60019B5B6A1B68019AFD
:10463000D2690C329A60019B5B685B8903F400636A
:10464000002B0CD1019B9B6A23F4F042019B9A62E0
:10465000019BDB6A23F4F042019BDA620FE0019BCD
:104660009B6A23F4F04343F42052019B9A62019B1E
:10467000DB6A23F4F04343F42052019BDA62019B8E
:10468000DB6900221A80019BDB69019A526852891A
:1046900042F4417292B21A80019BDB6907229A8030
:1046A000019BDB69019AD269128892B242F0400202
:1046B00092B21A8005B05DF804FB00BFD417002049
:1046C00051440008504C010841450008644C010861
:1046D00000380240AFF30080AFF30080AFF30080FA
:1046E00084B00390029101920093039B1B6A1B68A4
:1046F000009ADA60039B1B6A1B68029A5A60039B4C
:104700001B6A1B68039A926A42F480621A60039BD8
:104710005B6A1B68019ADA60039B5B6A1B68029AFA
:104720005A60039B5B6A1B68039AD26A42F48062F8
:104730001A60039B1B6A1B68039A126A126812684C
:1047400042F001021A60039B5B6A1B68039A526A7B
:104750001268126842F001021A6004B0704700BF8C
:1047600000B585B00190019BDB681B69ADF80E3088
:10477000019BDB68DB68DBB29AB2BDF80E301340F8
:10478000ADF80E30019BDB68BDF80E20D2431A61F4
:10479000019B5B681B7D002B28D1BDF80E3003F018
:1047A0000203002B0FD0019B1B788DF80D30019B6D
:1047B00004221A709DF80D30032B04D0019B5B6816
:1047C000DB6801989847BDF80E3003F00403002B16
:1047D00034D0019B1B78032B30D0019B05221A702B
:1047E000019B5B689B680198984727E0BDF80E30F5
:1047F00003F00203002B0BD0019B1B78032B07D087
:10480000019B05221A70019B5B689B680198984781
:10481000BDF80E3003F00403002B0FD0019B1B7872
:104820008DF80C30019B04221A709DF80C30032B7C
:1048300004D0019B5B68DB6801989847BDF80E3097
:1048400003F00103002B04D0019B5B681B690198F6
:10485000984705B05DF804FBAFF30080AFF300802C
:1048600008B50348FFF77CFFFCF7AAFD08BD00BFB1
:1048700008180020AFF30080AFF30080AFF3008092
:1048800008B50348FFF76CFFFCF79AFD08BD00BFB1
:1048900020180020AFF30080AFF30080AFF300805A
:1048A00008B50748FEF704FB054B4FF08042DA607D
:1048B0000448FEF7FDFA034B034ADA6008BD00BF67
:1048C0000818002020180020000C0040AFF30080E2
:1048D00000B585B00190019B5B681B7D002B07D064
:1048E000019B5B681B7D012B02D06648FCF730FF03
:1048F000019B1B78012B34D1019B634A934215D154
:10490000624A624B1B6C43F0010313645F4A5F4BC6
:104910001B6A43F0010313625C4B00221A621C20E5
:104920007021FCF7CDFD019B594A9A60019B594AC1
:10493000934226D1554A554B1B6C43F00803136430
:10494000524A524B1B6A43F0080313624F4B00223A
:104950001A6232207021FCF7B3FD019B4C4A9A6029
:104960000FE0019BDB6800221A60019BDB680022DC
:104970005A63019BDB6800229A63019BDB6800227B
:104980005A62019BDB6800221A61019BDB68019A75
:104990005268926922F0FF02DA60019B9A68019BDB
:1049A0005B685B68B2FBF3F3013B0393039BB3F5D6
:1049B000803F0AD2039B0133019A5268526802FB7E
:1049C00003F2019B9B689A4202D02E48FCF7C0FE7E
:1049D000019BDB68039A92B29A62019BDB684FF6F7
:1049E000FF72DA62019B5B681B7D002B23D1019B68
:1049F000DB6840F201229A61019BDB6854229A60D5
:104A0000019B5B681B78002B04D1019BDB68312282
:104A10001A6203E0019BDB6813221A62019BDB68C8
:104A200003F13802019B1A61019BDB6803F1340238
:104A3000019B5A6122E0019BDB684FF481729A610D
:104A4000019BDB6864229A60019B5B681B78002BEA
:104A500004D1019BDB6813221A6203E0019BDB682F
:104A600031221A62019BDB6803F13402019B1A6157
:104A7000019BDB6803F13802019B5A6105B05DF8C8
:104A800004FB00BF804C01080818002000380240D9
:104A900000BD010520180020AFF30080AFF30080B7
:104AA00082B00190019BDB68019AD268526942F0A2
:104AB00001025A61019BDB6800221A61019B5B685D
:104AC0001B7D002B1AD1019B5B68DB68002B07D094
:104AD000019BDB68019AD268D26842F00202DA6078
:104AE000019B5B689B68002B22D0019BDB68019ACD
:104AF000D268D26842F00402DA6019E0019B5B6878
:104B00009B68002B07D0019BDB68019AD268D268B2
:104B100042F00202DA60019B5B68DB68002B07D081
:104B2000019BDB68019AD268D26842F00402DA6025
:104B3000019B5B681B69002B07D0019BDB68019A16
:104B4000D268D26842F00102DA60019BDB6805227C
:104B50001A6002B0704700BFAFF30080AFF300806F
:104B600000B585B00190019B1B691B69ADF80E3043
:104B7000019B1B69DB68DBB29AB2BDF80E301340B3
:104B8000ADF80E30019B1B69BDF80E20D2431A61AF
:104B9000BDF80E3003F00203002B04D0019B5B68CC
:104BA0001B6901989847BDF80E3003F00403002BF1
:104BB00004D0019B5B689B6901989847BDF80E3053
:104BC00003F00803002B04D0019B5B681B6A01986B
:104BD0009847BDF80E3003F01003002B04D0019B62
:104BE0005B689B6A01989847BDF80E3003F001039B
:104BF000002B04D0019B5B689B680198984705B027
:104C00005DF804FBAFF30080AFF30080AFF30080EA
:104C100008B50348FFF7A4FFFCF7D2FB08BD00BFAF
:104C200038180020AFF30080AFF30080AFF30080AE
:104C300008B50348FEF7CCF9014B024A1A6108BDDA
:104C40003818002000040040AFF30080AFF300806C
:104C500000B585B00190019B1B78012B24D1019BED
:104C6000694A934215D1694A684B1B6C43F00203B1
:104C70001364664A654B1B6A43F002031362634B7D
:104C800000221A621D207021FCF71AFC019B604A69
:104C9000DA60019B1B6946F668029A61019B1B69F9
:104CA00046F66802DA6117E0019B1B6900221A6070
:104CB000019B1B6900225A63019B1B6900229A63B6
:104CC000019B1B690022DA63019B1B6900221A64A5
:104CD000019B1B6900225A62019BDA68019B5B6899
:104CE0001B68B2FBF3F3013B0293029BB3F5803FD9
:104CF0000AD2029B0133019A5268126802FB03F246
:104D0000019BDB689A4202D04248FCF721FD019BDF
:104D10001B69029A92B29A62019B1B69019A1289DD
:104D2000013A92B2DA62019B1B69019A5268D26A17
:104D30005A6000230393019B5B68DB6803F00F0359
:104D4000012B05D0022B07D1039B43F002030393F1
:104D5000039B43F001030393019B5B685B6903F0D2
:104D60000F03012B05D0022B07D1039B43F0200337
:104D70000393039B43F010030393019B5B68DB6980
:104D800003F00F03012B05D0022B07D1039B43F443
:104D900000730393039B43F480730393019B5B684D
:104DA0005B6A03F00F03012B05D0022B07D1039B95
:104DB00043F400530393039B43F480530393019BF9
:104DC0001B69039A1A62019B1B6901225A61019BAC
:104DD0001B6900221A61019B1B69019A5268926843
:104DE000002A14BF01220022D2B21146019A526851
:104DF000126B22F0FF020A43DA60019B1B698522D5
:104E00001A6005B05DF804FB381800200038024035
:104E100000BD0105A04C0108AFF30080AFF3008096
:104E200084B001900B468DF803301346ADF8003086
:104E3000019B19699DF80330BDF800200C339B00DD
:104E40000B445A60019B5A689DF803300133DB0024
:104E500013449B68002B21D0019B1B69DB680393E3
:104E60009DF80330022202FA03F31A46039B134013
:104E7000002B13D1019B1B699DF80320022101FA2D
:104E800002F21146039A0A43DA60019B1B699DF8FE
:104E90000320022101FA02F2D2431A6104B07047E2
:104EA00084B001900091019B5B6F0393019B5B6F4A
:104EB0001C4A934204D0019B5B6F1B4A934208D16A
:104EC000009B1B68194AB2FBF3F39AB2039B1A8149
:104ED00007E0009B1B68164AB2FBF3F39AB2039BF0
:104EE0001A81009BDB8843F040039AB2039B1A822D
:104EF000009B1B8943F001039AB2039B9A82009B9B
:104F00009B8843F4045343F02C039AB2039B9A8189
:104F1000039B00221A80039B1B88039B9B8804B081
:104F2000704700BF001001400014014000BD0105A2
:104F300080DE8002AFF30080AFF30080AFF300802B
:104F400000B585B001900B46ADF802300023039305
:104F5000BDF8023003F00803002B03D0039B43F09D
:104F600080030393BDF8023003F00103002B03D04C
:104F7000039B43F020030393BDF8023003F00203C8
:104F8000002B03D0039B43F040030393BDF8023092
:104F900003F00403002B03D0039B43F480730393BB
:104FA000019B043318460399FDF792FA05B05DF8AA
:104FB00004FB00BFAFF30080AFF30080AFF30080CD
:104FC00000B587B00190019B5B6F0493049B9B89A4
:104FD000ADF80E30049B1B88ADF81630BDF81630C6
:104FE00003F48073002B0ED0FCF7DAF9019B043335
:104FF00018464FF40071FDF76BFAFCF7D9F9049BE2
:105000004FF6FF621A80FCF7CBF920E0BDF81630AE
:1050100003F00F03002B05D0BDF816300198194698
:10502000FFF78EFF049B9B889BB28DF80D30BDF877
:10503000163003F02003002B05D09DF80D300198A9
:105040001946FEF745F9049B1B88ADF81630BDF8EC
:10505000163003F02F03002BD8D1FCF7A9F9BDF8C7
:105060000E3003F08003002B28D0BDF8163003F07B
:105070008003002B22D0FCF793F9019B30331846B4
:10508000FDF716FC0290029B002B11DA019B043302
:1050900018460821FDF71CFABDF80E3023F0C003B6
:1050A0009BB243F040039BB29AB2049B9A8103E007
:1050B000029B9AB2049B9A80FCF77AF9BDF81630ED
:1050C00003F04003002B26D0FCF76AF9019B5A6CD1
:1050D000019B9B6C9A4205D1019B9B6B002B01D0DD
:1050E000012300E0002303F00103DBB2002B05D015
:1050F000019B043318461021FDF7EAF9BDF80E3084
:1051000023F040039AB2049B9A81049B4FF6BF722E
:105110001A80FCF74DF907B05DF804FBAFF300808F
:1051200082B00190044A044B9B899BB243F08003F8
:105130009BB2938102B0704700440040AFF30080FF
:1051400008B50348FFF73CFFFCF73AF908BD00BF7C
:105150004C180020AFF30080AFF30080AFF3008065
:1051600008B504480021044AFEF75AF8014B034AE7
:105170005A6708BD4C180020215100080044004027
:1051800000B583B001900091009B002B01D10D4B25
:105190000093019B1B7A012B0DD1019B0A4A93427C
:1051A00009D10A4A094B1B6C43F4003313642620CF
:1051B000C021FCF785F901980099FFF771FE03B053
:1051C0005DF804FB705001084C18002000380240C4
:1051D00008B5FEF7B5FC08BDAFF30080AFF3008063
:1051E000704700BFAFF30080AFF30080AFF30080E3
:1051F00008B50D4B1B78002B00D014E00A4B0122A0
:105200001A7000F015F800F0DBF904F0E1FF05F08A
:105210008FFA00F00DF908F063FE00F011FD08F0C0
:10522000BFF905F085FB08BDC4180020AFF300806E
:1052300008B5044B9B69002B03D1FDF739FDFCF742
:10524000B7F908BDA0160020AFF30080AFF30080CF
:1052500000B583B00190019B002B03D0B3F1FF3F59
:1052600003D007E0FCF75CFE13E04FF0FF30FCF7E3
:105270003FFE0EE0019B4FF47A7202FB03F3013B09
:10528000054AA2FB03239B0901331846FCF730FEB5
:1052900000BF03B05DF804FBD34D6210AFF3008094
:1052A00000B583B00190019B002B17D0B3F1FF3FF5
:1052B00004D14FF0FF30FCF71BFE10E0019B4FF4D0
:1052C0007A7202FB03F3013B064AA2FB03239B0C09
:1052D00001331846FCF70CFE00BF00E000BF03B02E
:1052E0005DF804FB83DE1B43AFF30080AFF3008067
:1052F00000B585B0039002910192029A019B9A42F7
:1053000001DD019B0293039B019ADA60039B18461F
:105310000299FCF7A5FE05B05DF804FBAFF3008031
:1053200000B583B001900091009B002B03D0B3F136
:10533000FF3F0DD012E0019B18460021FCF708FF4B
:105340000346B3F1FF3F14BF01230023DBB21CE08F
:10535000019B1846FCF7A4FE012316E00199009B6F
:105360004FF47A7202FB03F3013B0A4AA2FB0323C8
:105370009B09013308461946FCF7EAFE0346B3F1E0
:10538000FF3F14BF01230023DBB2184603B05DF8D2
:1053900004FB00BFD34D6210AFF30080AFF3008079
:1053A00000B583B00190FBF7FBFF019B9A68019B5E
:1053B000DB689A4203DA019B1846FCF731FFFCF7E1
:1053C00027FCFBF7F5FF03B05DF804FBAFF30080AB
:1053D00000B587B00590049103920293059B002BC2
:1053E0000FD1049B002B02D14FF480730493089BD0
:1053F000009300200499039A029BFCF7F1FD0346F9
:105400000DE0049B002B01D1002308E0089B0093D2
:1054100005980499039A029BFCF73AFD0346184647
:1054200007B05DF804FB00BFAFF30080AFF300806E
:10543000704700BFAFF30080AFF30080AFF3008090
:1054400010B586B00190009100230393039B049351
:10545000314B1B68059314E0059B5A68019B9A42E7
:1054600002D1049B01330493059B5B681A88019B5E
:105470001B889A4202D1039B01330393059B1B684F
:105480000593059B002BE7D1019B5B680020194623
:10549000FDF716FB0590059B002B01D1002338E09A
:1054A000019B5B68059800211A460BF0D1F8059B1B
:1054B000019A5A60019B9B68002B11D0019B9C684C
:1054C00005980099049A039BA047034683F00103C3
:1054D000DBB2002B04D00598FDF76AFB002318E02F
:1054E0000D4B1B68002B04D00C4B1B68059A1A60EF
:1054F00006E00A4A059B1360084B1B68064A1360C6
:10550000019BDB68002B03D0019BDB680598984763
:10551000059B184606B010BDC8180020CC18002006
:1055200084B003460091ADF80630002302930F4B80
:105530001B68039312E0039B5B681B88BDF8062081
:105540009A4208D1029A009B9A4201D1039B09E03A
:10555000029B01330293039B1B680393039B002B65
:10556000E9D10023184604B0704700BFC8180020D6
:1055700082B003460091ADF80630009B002B02D0AC
:10558000009B1B6801E00A4B1B68009302E0009B34
:105590001B680093009B002B06D0009B5B681B8858
:1055A000BDF806209A42F2D1009B184602B070471F
:1055B000C8180020AFF30080AFF30080AFF3008085
:1055C000704700BFAFF30080AFF30080AFF30080FF
:1055D00082B00190019B00225A60019B5A68019B96
:1055E0001A6002B0704700BFAFF30080AFF30080D5
:1055F00000B583B001900091FBF7D2FE01980099AD
:1056000000F006F8FBF7D4FE03B05DF804FB00BF22
:1056100082B001900091009B002B00D115E0009B0F
:1056200000221A60019B1B68002B07D1019B009A86
:105630005A60019B5A68019B1A6006E0019B5B68F7
:10564000009A1A60019B009A5A6002B0704700BF2E
:1056500000B583B001900091FBF7A2FE019800997C
:1056600000F006F8FBF7A4FE03B05DF804FB00BFF2
:1056700084B001900091009B002B00D130E0019B91
:105680001B68002B2CD0019B1A68009B9A4207D103
:10569000009B1A68019B1A60009B00221A601FE0A1
:1056A000019B1B68039317E0039B1A68009B9A42B7
:1056B0000FD1009B1A68039B1A60019B5A68009BDC
:1056C0009A4202D1019B039A5A60009B00221A6001
:1056D00006E0039B1B680393039B1B68002BE3D12D
:1056E00004B07047AFF30080AFF30080AFF30080E9
:1056F00000B585B00190019B1B8FADF80E30019B6A
:105700005B8FADF80C30019B00225A87019B5A8FAA
:10571000019B1A87019B1A89019B9A87019B5A89D1
:10572000019BDA87019809F003FB019BBDF80E206D
:105730001A87019BBDF80C205A87019BDB8B43F035
:1057400002039AB2019BDA8305B05DF804FB00BF47
:1057500000B583B00190019BDB8B03F00203002BAB
:1057600002D10198FFF7C4FF019809F011FB0198DD
:1057700009F0EEFA00BF03B05DF804FBAFF3008060
:1057800000B583B00190019B1A8F019B1B8E12B252
:105790001BB29A4217DB019B1A8F019B9B8E12B2A0
:1057A0001BB29A420FDA019B5A8F019B5B8E12B299
:1057B0001BB29A4207DB019B5A8F019BDB8E12B210
:1057C0001BB29A4200DB02E00198FFF7C1FF03B071
:1057D0005DF804FBAFF30080AFF30080AFF300800F
:1057E00000B583B00190019809F022FB00BF03B01F
:1057F0005DF804FBAFF30080AFF30080AFF30080EF
:1058000000B583B00190019BB3F84020019B1B8F32
:1058100012B21BB29A420DDA019B1A8F019B9A8732
:10582000019BB3F84020019B1A87019B9A8F019B33
:10583000A3F84020019B5A8F019B5B8E12B21BB2D2
:105840009A4207DB019B5A8F019BDB8E12B21BB27F
:105850009A4200DB49E0019B1A8F019B1B8E12B21A
:105860001BB29A4203DA019B1A8E019B1A87019B95
:10587000B3F84020019B9B8E12B21BB29A4208DB08
:10588000019B9B8E9BB2013B9BB29AB2019BA3F8FA
:105890004020019BB3F84020019B1B8F12B21BB22A
:1058A0009A4200DA21E0019B1A8F019BB3F8403045
:1058B00012B21BB29A4203D10198FFF749FF14E0DC
:1058C000019BB3F840309AB2019B1B8F9BB2D31A55
:1058D0009BB201339BB29AB2019B9A87019B012232
:1058E000DA87019809F0A4FA00BF03B05DF804FB61
:1058F00000B583B00190019BB3F84220019B5B8F00
:1059000012B21BB29A420DDA019B5A8F019BDA87C1
:10591000019BB3F84220019B5A87019BDA8F019BC0
:10592000A3F84220019B1A8F019B1B8E12B21BB25F
:105930009A4207DB019B1A8F019B9B8E12B21BB20E
:105940009A4200DB49E0019B5A8F019B5B8E12B2A9
:105950001BB29A4203DA019B5A8E019B5A87019B24
:10596000B3F84220019BDB8E12B21BB29A4208DBD5
:10597000019BDB8E9BB2013B9BB29AB2019BA3F8C9
:105980004220019BB3F84220019B5B8F12B21BB2F5
:105990009A4200DA21E0019B5A8F019BB3F8423012
:1059A00012B21BB29A4203D10198FFF7D1FE14E064
:1059B000019BB3F842309AB2019B5B8F9BB2D31A22
:1059C0009BB201339BB29AB2019BDA87019B012201
:1059D0009A87019809F02CFA00BF03B05DF804FB28
:1059E00000B587B00190019B5A8F019BB3F84230FC
:1059F00012B21BB29A4203D10198FFF701FF17E1DF
:105A0000019B1A8F019BB3F8403012B21BB29A422D
:105A100003D10198FFF76CFF0AE1019BB3F8402026
:105A2000019B1B8F12B21BB29A420EDB019BB3F893
:105A300040309AB2019B1B8F9BB2D31A9BB2ADF838
:105A400014300123ADF812300EE0019B1B8F9AB287
:105A5000019BB3F840309BB2D31A9BB2ADF814301F
:105A60004FF6FF73ADF81230019BB3F84220019B53
:105A70005B8F12B21BB29A420EDB019BB3F842302D
:105A80009AB2019B5B8F9BB2D31A9BB2ADF81630D2
:105A90000123ADF810300EE0019B5B8F9AB2019BA1
:105AA000B3F842309BB2D31A9BB2ADF816304FF622
:105AB000FF73ADF81030BDF91420BDF916309A42CD
:105AC0005BDBBDF916305B00ADF81630BDF8162073
:105AD000BDF81430D31A9BB2ADF80E30BDF80E20CD
